S00F000053445F436172642E73726563A5
S113000045C0000061C000005FC000005DC000008A
S11300105BC0000059C0000057C0000055C000007C
S113002053C0000051C000004FC000004DC000008C
S11300304BC0000049C0000047C0000045C000009C
S113004043C0000041C000003FC000003DC00000AC
S11300503BC0000039C0000037C0000035C00000BC
S113006033C0000031C000002FC000002DC00000CC
S11300702BC0000029C0000027C0000025C00000DC
S113008023C0000021C000001FC0000011241FBEB7
S1130090CFEFD0E4DEBFCDBF11E0A0E0B1E0E4E9F2
S11300A0FAE200E00BBF02C007900D92AA3BB10731
S11300B0D9F723E0AAEBB1E001C01D92A73FB20734
S11300C0E1F708D00C9448159BCF60EC73EA82E00A
S11300D093E40895CF93DF9300D0CDB7DEB78AB110
S11300E081608AB98AB182608AB98BB18E7F8BB9FB
S11300F08BB18D7F8BB98FE493EC0197F1F700C03E
S113010000006CEB71E080E00E946C0C80E290E0F7
S11301100E9427149093BB018093BA014AE067E0E0
S113012071E00E948A0C81111AC09E012F5F3F4F1B
S113013049E050E061E171E08091BA019091BB0126
S11301400E94960D8091BA019091BB010E94850F87
S113015089819A81099719F48BB181608BB9FFCF9A
S1130160DC01FB014230510538F0819191918D936E
S11301709D9342505109F6CFCA010197452B31F0A6
S113018020812C93AC0131961196F6CF0895FC0191
S1130190CA010197452B21F06083AC013196F8CF59
S11301A00895CF93DF93EC01DB0180E090E0FA0146
S11301B03197452B81F09E012F5F3F4F888190E05E
S11301C0AD014F5F5F4F6C91861B910931F4DA01E9
S11301D0E90121E005C020E003C0DA01E90120E0E3
S11301E0AF012111E4CFDF91CF910895FC0180810B
S11301F0882339F0282F30E02617370711F031967D
S1130200F6CF90E008950F931F93DC01FB01628DFC
S1130210738D80E090E02C91233059F40489158982
S113022020E030E0980111270027602B712B822BEE
S1130230932B1F910F910895FC01538F428F758B5F
S1130240648B08954F925F926F928F929F92AF92B8
S1130250BF92CF92DF92EF92FF921F93CF93DF93DF
S1130260FC015B01DB01CD91DC9198819F3211F09F
S11302709C3511F42196F9CFC488D5884BE050E021
S113028060E270E0C60183DF412C512C80E090E0F5
S11302906894882483F8912C612C01C0C7017C01E7
S11302A0BFEFEB1AFB0AFE01E80FF91F10811132B0
S11302B008F449C01F3209F446C01C3509F443C090
S11302C01E3219F048145904A0F0E8E08E16910487
S11302D009F05FC01E3209F05EC0660C660C6894BB
S11302E0442443F8512C0F2EFBE08F2E912CF02D3B
S11302F0D5CF112344F4F62DF3606F2EE12FF0E0F7
S1130300E754FF4F1081612F70E08AE191E06EDFC6
S1130310892B09F042C08FEB810F8A3120F4262DFE
S11303202260622E08C08FE9810F8A3120F4862D65
S11303308160682E1052F601E40DF51D1083D20180
S113034011962D01ABCFCE0DDF1DF501D183C083F6
S1130350113210F494E001C090E0452801F1D60177
S11303608C91853E11F485E08C93B8E08B16910452
S113037011F4660C660C862D8370813009F490614B
S1130380862D8C70843009F49860F601938780E0A0
S113039007C086E005C086E003C086E001C086E0B1
S11303A0DF91CF911F91FF90EF90DF90CF90BF909E
S11303B0AF909F908F906F905F904F9008950F93A0
S11303C0CF93DF93EC019A01AB01BC016E5C7F4FCC
S11303D001E089810E946F12811122C0FE01E05D5B
S11303E0FD4F8081918185359A4AE1F4E85CF140C2
S11303F080819181A281B381BB2786349144A44535
S1130400B10591F0CC57DF4F88819981AA81BB81D6
S1130410BB2786349144A445B10541F480E007C06C
S113042083E005C082E003C080E001C081E0DF9189
S1130430CF910F9108958F929F92AF92BF92CF92D6
S1130440DF92EF92FF920F93CF93DF93FC0124810D
S1130450222309F442C0EC01C6A4D7A4E0A8F1A861
S11304604C01F2E38F0E911C01E0A7019601B40147
S113047089810E94C512811132C01C828AA19BA16C
S1130480ACA1BDA1C816D906EA06FB0650F14A8DF7
S11304905B8D6C8D7D8D840F951FA61FB71FC816AD
S11304A0D906EA06FB06F8F4AB80B12C82E0A81664
S11304B0B104D8F08A8D9B8DAC8DBD8DC80ED91E2C
S11304C0EA1EFB1E01E0A7019601B40189810E9486
S11304D0C512E1E0AE1AB108E9CF80E007C081E0BF
S11304E005C080E003C080E001C080E0DF91CF91CF
S11304F00F91FF90EF90DF90CF90BF90AF909F90BF
S11305008F900895CF92DF92EF92FF920F931F93F3
S1130510CF93DF93FC01C6A4D7A4E0A8F1A8C41626
S1130520D506E606F706B9F06A017B01EC0183DF24
S1130530182F811112C001E0A7019601BE016E5C63
S11305407F4F89810E946F12811109C0CEA6DFA658
S1130550E8AAF9AA05C010E003C011E001C011E047
S1130560812FDF91CF911F910F91FF90EF90DF903A
S1130570CF9008950097C9F0DC01ED91FC9111979B
S11305803097A9F020812223A1F026813781129689
S11305908D919C9113972817390769F481810E94E2
S11305A0981180FF0AC083E0089589E0089589E0E6
S11305B0089589E0089589E0089580E008952F92D0
S11305C03F924F925F926F927F928F929F92AF92DF
S11305D0BF92CF92DF92EF92FF920F931F93CF932C
S11305E0DF93CDB7DEB72E970FB6F894DEBF0FBEFC
S11305F0CDBFDC01ED91FC91E080F12CB0E3EB1A6E
S1130600F1082AE0E216F10440F421812A3341F48E
S11306103296DC01ED93FC9305C0E12CF12C02C071
S1130620E12CF12CFB0111821082E114F10409F098
S11306302AC2F701EE0FFF1FE051FC4F808091802A
S11306409E868D868114910409F41FC2142FFB0128
S113065091828082D4018C91882369F011968C91C7
S11306600E94981180FD07C0112309F410C282FD75
S113067010C280E02DC2ED85FE851082E1828E2DB0
S11306800E949F1180FD07C2112311F082FD05C253
S113069040E050E0BA018D859E8591DE813089F479
S11306A0ED85FE85E051FE4F9481992371F0C0845D
S11306B0D184E284F384B701A6018D859E857FDE13
S11306C007C0C12CD12C760103C0C12CD12C7601DA
S11306D0833009F4E4C18111E4C1AD85BE85DD96A2
S11306E08D919C91DE978115924009F0DCC1ED85D6
S11306F0FE85E85BFF4F808191812C01612C712C78
S1130700411451046104710441F4ED85FE85EA5AF3
S1130710FF4F4080518062807380ED85FE85428E5C
S1130720538E648E758EEE5BFF4FA081ED85FE8542
S1130730A3838FEF8A0F823008F0B7C1B0E0A30122
S113074092010E940E146D837E838F83988727AD58
S11307502283222309F4ABC1422F50E0CA0101973E
S113076084239523892B09F0A4C1ED5BFF4F2080DE
S11307703180AD85BE8519963C922E921897C101A1
S11307808F709927892B09F096C1FD01EB5BFF4F10
S113079060817181CB01A0E0B0E00097A105B105B3
S11307A041F4ED85FE85EE5AFF4F80819181A2814F
S11307B0B381ED85FE85E05CFF4F40815181411599
S11307C0510509F47AC14A01A12CB12C89869A8673
S11307D0AB86BC868D809E80AF80B88449855A855F
S11307E06B857C85840E951EA61EB71EF101F295BD
S11307F0E295EF70EF27FF70EF27B501A4014E0FCC
S11308005F1F611D711D49835A836B837C83841729
S11308109507A607B70708F452C1BC01CD0189802A
S11308209A80AB80BC80681979098A099B0930E0F9
S113083040E050E00E94EC13DA01C90121153105B2
S11308404105510509F43DC1263F6FE036074105D6
S1130850510510F411E001C012E0863F9F4FA1053D
S1130860B10508F013E049015A0182E0880E911C99
S1130870A11CB11CAD85BE8556968D929D92AD92FC
S1130880BC925997FD01C68ED78EE0A2F1A289854C
S11308909A85AB85BC858C0D9D1DAE1DBF1D82A3A5
S11308A093A3A4A3B5A349815A816B817C814C0D88
S11308B05D1D6E1D7F1D42A753A764A775A7133046
S11308C0C1F4232809F0FFC0E25AFF4F80819181CF
S11308D0A281B381ED85FE8586A397A3A0A7B1A7C6
S11308E0880C991CAA1CBB1C880C991CAA1CBB1C38
S11308F02DC0232809F4E9C02D813E814F815885FC
S1130900820F931FA41FB51FED85FE8586A397A3B1
S1130910A0A7B1A7123029F4880C991CAA1CBB1CEF
S113092015C0A3E0B0E0A50194010E940E14DC01FF
S1130930CB01B695A79597958795F1E08F229924D9
S1130940AA24BB24880E991EAA1EBB1E2FEF820E5A
S113095021E0921EA11CB11C072E79E0B694A79445
S1130960979487947A95D1F7702D481459046A04A2
S11309707B0408F4ACC08FEF9FEFDC01ED85FE85AE
S113098086879787A08BB18BDF0112861386148626
S11309901586133009F05FC01582EE59FF4F808130
S11309A09181A7019601280F391F411D511DFD0199
S11309B0228B338B448B558B01E0BD016E5C7F4FE2
S11309C081810E946F12811123C0ED85FE85E05D57
S11309D0FD4F8081918185359A4AE1F4ED85FE854C
S11309E082A993A9A4A9B5A982359245A146B14487
S11309F099F4ED85FE85EA5EFD4F80819181A281A7
S1130A00B38182379247A144B14641F080E007C0E8
S1130A1080E005C080E003C080E001C081E088235D
S1130A20D1F0ED85FE85E25EFD4F80819181A2814A
S1130A30B381ED85FE8582879387A487B587E65EBB
S1130A40FD4F80819181A281B381ED85FE858687EA
S1130A509787A08BB18BAD85BE851C938091EE03E7
S1130A609091EF0301969093EF038093EE03179612
S1130A709C938E931697FD0116A617A610AA11AA89
S1130A80148280E025C08BE023C08CE021C080E08C
S1130A901FC08AE01DC083E01BC08AE019C081E04A
S1130AA017C08DE015C08DE013C08DE011C08DE03E
S1130AB00FC08DE00DC08DE00BC08DE009C08DE04E
S1130AC007C08DE005C08DE003C08DE001C08DE05E
S1130AD02E960FB6F894DEBF0FBECDBFDF91CF9137
S1130AE01F910F91FF90EF90DF90CF90BF90AF9048
S1130AF09F908F907F906F905F904F903F902F903A
S1130B000895EF92FF920F931F93CF93DF93EC011D
S1130B1092DC182F811152C08881833009F046C0BD
S1130B208D81882309F442C01EA61FA618AA19AAFB
S1130B3040E052E060E070E07E0182E3E80EF11CE8
S1130B40C70125DB85E59AEAFE01E05DFD4F91834F
S1130B50808382E592E5A1E6B1E48AAB9BABACABC2
S1130B60BDAB82E792E7A1E4B1E67A9780839183F3
S1130B70A283B3838E859F85A889B989349680839F
S1130B809183A283B3838A859B85AC85BD85349686
S1130B9080839183A283B3832A893B894C895D89AD
S1130BA001E0B70189810E94C5121D8240E050E036
S1130BB060E089810E942413811111E0812FDF916B
S1130BC0CF911F910F91FF90EF9008950F931F9372
S1130BD0FC019A01AB01225031094109510986896E
S1130BE09789A08DB18D0297A109B10928173907FA
S1130BF04A075B0768F4A281B0E00E940E1402A5C4
S1130C0013A524A535A5600F711F821F931F03C070
S1130C1060E070E0CB011F910F910895AF92BF92F5
S1130C20CF92DF92EF92FF920F931F93CF93DF93B4
S1130C30423051056105710508F4B2C0FC01068912
S1130C401789208D318D401751076207730708F00B
S1130C50ACC06A017B01EC018081823009F44DC093
S1130C60833009F46DC0813009F0A4C05A01B694F0
S1130C70A794A40EB51E42A153A164A175A1C501F8
S1130C80892F99278695480F591F611D711DCF0122
S1130C9039DC811193C0F501F170EC0FFD1F02A93D
S1130CA010E0FFEFAF1ABF0A4AA15BA16CA17DA1BE
S1130CB0C501892F99278695480F591F611D711DFC
S1130CC0CE0120DC81117EC081E0B822CA0DDB1D7B
S1130CD06AA970E0762F6627602B712BC0FE09C0CD
S1130CE0729562956F7067277F70672780E090E048
S1130CF074C07F7080E090E070C042A153A164A1F1
S1130D0075A1BB27AF2D9E2D8D2D480F591F6A1F2E
S1130D107B1FCF01F7DB811159C0B701A601440F36
S1130D20551F661F771F4E7F5170662777274E5CCD
S1130D305F4FC40FD51F6881798180E090E04DC07A
S1130D4042A153A164A175A1D701C601689416F804
S1130D50B695A795979587951694D1F7480F591F7F
S1130D606A1F7B1FCF01CEDB811134C0B701A601FE
S1130D70440F551F661F771F440F551F661F771FAB
S1130D804C7F5170662777274E5C5F4FC40FD51F89
S1130D9088819981AA81BB81BC01CD019F701DC04E
S1130DA061E070E080E090E018C061E070E080E015
S1130DB090E013C06FEF7FEFCB010FC06FEF7FEFB9
S1130DC0CB010BC06FEF7FEFCB0107C06FEF7FEF5D
S1130DD0CB0103C06FEF7FEFCB01DF91CF911F9168
S1130DE00F91FF90EF90DF90CF90BF90AF90089558
S1130DF0EF92FF920F931F93CF93DF93EC018B013C
S1130E007D836C834E815F8168857985413051058E
S1130E106105710509F491C0E881F9818689978992
S1130E20A08DB18D481759076A077B0708F087C062
S1130E30411551056105710539F48081833021F430
S1130E4046A157A160A571A541155105610571051C
S1130E50F1F44A875B876C877D87808591850817C5
S1130E60190708F06EC086A197A1A0A5B1A59801A5
S1130E70329522952F7023273F702327820F931FCB
S1130E80A11DB11D8E879F87A88BB98B40C0E280BE
S1130E9080E1E89E700111240E151F0500F1888180
S1130EA09981BCDEAB01BC014F3F8FEF5807680747
S1130EB0780709F448C0423051056105710508F40A
S1130EC044C0E881F98186899789A08DB18D48173E
S1130ED059076A077B07D8F50E191F09DDCF4A8722
S1130EE05B876C877D878881998170DE9801329554
S1130EF022952F7023273F702327DC01CB01820F1B
S1130F00931FA11DB11D8E879F87A88BB98B288144
S1130F1039810F701127C801880F991F8295929506
S1130F20907F9827807F982789010E5C1F4F080FB8
S1130F30191F1B8B0A8B80E00BC082E009C082E082
S1130F4007C082E005C081E003C082E001C082E006
S1130F50DF91CF911F910F91FF90EF9008954F92E1
S1130F605F926F927F92AF92BF92CF92DF92EF9295
S1130F70FF920F931F93CF93DF9300D000D000D044
S1130F80CDB7DEB7423051056105710508F4F4C0F0
S1130F90FC01C688D788E08CF18C4C155D056E0584
S1130FA07F0508F0EBC0280139016A017B019E83AB
S1130FB08D838081823009F475C0833009F498C030
S1130FC0813009F0D3C05A01B694A794A40EB51E7B
S1130FD042A153A164A175A1C501892F99278695C2
S1130FE0480F591F611D711DCF018CDA8111BFC0DB
S1130FF0C5019170A7019601217033274427552715
S113100029833A834B835C83C0FE0CC040E1449E39
S113101090011124ED81FE81E80FF91F42A94F7060
S1131020242B01C0242DED81FE81E80FF91F22AB92
S11310305FEFA51AB50A81E0ED81FE81848342A1A8
S113104053A164A175A1C501892F99278695480FDD
S1131050591F611D711DCF0155DA811188C0F1E05E
S1131060BF2229813A814B815C81232B242B252BA0
S113107049F0689413F876946794579447941694B7
S1131080D1F70AC0ED81FE81EA0DFB1D22A9207F64
S1131090952D9F70422E492AED81FE81EA0DFB1D9C
S11310A042AA65C0ED81FE8142A153A164A175A14C
S11310B0BB27AF2D9E2D8D2D480F591F6A1F7B1FF7
S11310C0CF0120DA811153C0CC0CDD1CEE1CFF1CB7
S11310D0E894C0F8F1E0DF22EE24FF2422E3C20EFC
S11310E0D11CED81FE81EC0DFD1D518240823FC07B
S11310F0ED81FE8142A153A164A175A1D701C6016E
S1131100689416F8B695A795979587951694D1F790
S1131110480F591F6A1F7B1FCF01F4D9811127C0C3
S1131120CC0CDD1CEE1CFF1CCC0CDD1CEE1CFF1CCF
S1131130FCEFCF22F1E0DF22EE24FF2422E3C20EF3
S1131140D11CED81FE81EC0DFD1D008111812281F8
S11311503381002711272227307F402A512A622A0F
S1131160732A408251826282738201C082E091E0DC
S1131170ED81FE81948303C082E001C082E0269663
S11311800FB6F894DEBF0FBECDBFDF91CF911F9194
S11311900F91FF90EF90DF90CF90BF90AF907F9032
S11311A06F905F904F9008954F925F926F927F92ED
S11311B08F929F92AF92BF92CF92DF92EF92FF9263
S11311C00F931F93CF93DF93EC012A013B01411549
S11311D051056105710599F48A849B84AC84BD84AE
S11311E081149104A104B104F1F08E899F89A88D22
S11311F0B98D88169906AA06BB06D0F41DC00EDD6B
S1131200623071058105910508F488C0CE88DF88B5
S1131210E88CF98C6C157D058E059F0508F483C058
S11312205301420109C0812C912C5401839404C0C0
S1131230812C912C54018394750164012FEFC21AFF
S1131240D20AE20AF20A8E899F89A88DB98DC8163E
S1131250D906EA06FB0660F082E088169104A10430
S1131260B10408F464C0C12CD12C76016894C1F88F
S1131270B701A601CE01D2DC611571058105910586
S113128099F06F3F2FEF72078207920709F454C059
S1131290613071058105910509F452C0C814D9045F
S11312A0EA04FB0459F650C00FEF1FEF2FEF3FE0A5
S11312B0B701A601CE0153DE81110BC041145104C4
S11312C06104710431F097018601B301A201CE01DA
S11312D046DE81111CC0CA86DB86EC86FD868E85BF
S11312E09F85A889B9898F3F2FEF9207A207B2077C
S11312F081F10197A109B1098E879F87A88BB98BCA
S113130081E08D834C2D3D2D2E2D9F2D2BC08130C2
S113131029F54FEF3FEF2FEF9FEF24C041E030E07E
S113132020E090E01FC0462F372F282F1BC040E03D
S113133030E020E090E016C0462F372F282F12C04F
S1131340462F372F282F0EC040E030E020E090E0F9
S113135009C04C2D3D2D2E2D9F2D04C041E030E0C1
S113136020E090E0642F732F822FDF91CF911F91A3
S11313700F91FF90EF90DF90CF90BF90AF909F9030
S11313808F907F906F905F904F9008958F929F926F
S1131390AF92BF92CF92DF92EF92FF920F931F937F
S11313A0CF93DF93DC011496CD91DC9115972196B0
S11313B009F4F6C01E968D909D90AD90BC90519707
S11313C081149104A104B10409F4ECC07B018C01E3
S11313D06E01BFE0CB22DD24C114D10409F0CAC0E0
S11313E0EFEF8E1A9E0AAE0ABE0ADC011E968D929B
S11313F09D92AD92BC9251971A964D915D916D91CB
S11314007C911D97411551056105710549F4ED91D4
S1131410FC9180859185C817D90708F0C5C0AAC07A
S1131420DC01ED91FC91228130E021503109CE01A3
S1131430929582958F7089279F7089272823392355
S1131440232B09F097C0CF01E9DB4B015C0162302B
S113145071058105910508F4A9C06F3F7F4F8F4F37
S11314609F4F09F4A5C0D801ED91FC918689978915
S1131470A08DB18D88169906AA06BB0608F469C02A
S1131480EF2809F497C0D8011A964D915D916D919A
S11314907C911D97CF0188DE4B015C0161157105BC
S11314A08105910509F488C06130710581059105B4
S11314B009F484C06F3F7F4F8F4F9F4F09F480C062
S11314C0D8018D919C910E941B0281117BC0F8016F
S11314D08081918140E052E060E070E0C2960E9419
S11314E0C700D801ED90FC90B501A401C7016EDBE3
S11314F0F70166A777A780AB91ABF12CD801ED91EA
S1131500FC9111978281F816C0F481E084838D9157
S11315109C910E941B02811157C0D801ED91FC914E
S113152086A597A5A0A9B1A90196A11DB11D86A75D
S113153097A7A0ABB1ABF394E1CF86A597A5A0A9DB
S1131540B1A98F199109A109B10986A797A7A0ABE1
S1131550B1ABF80182869386A486B586B501A40151
S11315608081918133DBD8011E966D937D938D9399
S11315709C935197F801D583C48380819181CC0CCD
S1131580DD1CCC0CDD1CCC0CDD1CCC0CDD1CCC0C13
S1131590DD1CC296C80ED91ED38AC28A80E015C04B
S11315A084E013C084E011C084E00FC082E00DC069
S11315B081E00BC084E009C087E007C082E005C079
S11315C081E003C081E001C081E0DF91CF911F91F0
S11315D00F91FF90EF90DF90CF90BF90AF909F90CE
S11315E08F9008951F93CF93DF93EC0160E070E038
S11315F0FFDB81112EC04E855F85688979898881DA
S113160099810E948202182F81111FC0EA89FB89E7
S113161080818823D9F0838583FD0BC06C897D8903
S11316204BE050E0CF010E94D100892B21F481E0EE
S113163003C080E001C080E081110AC060E070E076
S1131640CE01A4DE8823B9F204C003C084E001C043
S1131650812FDF91CF911F9108950F931F93CF9303
S1131660DF9300D0CDB7DEB78C017A836983E62F90
S1131670F72F80818F3211F08C3519F43196FA836B
S1131680E983D80116961D921D921D921C921997FA
S1131690E981FA818081803240F460E070E0C80121
S11316A0A7DBF801138A128A2EC0BE016F5F7F4F39
S11316B0C8010E942201811126C0C80193DFD8010C
S11316C05496ED91FC9155979385882329F08430A5
S11316D0D1F492FF15C017C092FD15C0F8016289BC
S11316E07389DB011B968C9184FF0CC080819181EE
S11316F00E940301F8016683778380879187D5CFA1
S113170085E001C085E00F900F90DF91CF911F918C
S11317100F910895EF92FF920F931F93CF93DF934E
S1131720EC017B0160E070E063DB811121C000E02B
S113173010E04E855F8568897989888199810E9446
S11317408202811115C0EA89FB899081953E11F0CE
S1131750911106C00F5F1F4F0E151F0519F408C025
S113176000E010E061E070E0CE0110DE882309F3B0
S1131770DF91CF911F910F91FF90EF9008950F93F8
S11317801F93CF938C0161E070E0C4DFC82F8111F7
S113179029C0D8011E964D915D916D917C91519710
S11317A08D919C910E948202C82F81111BC040E23E
S11317B050E060E070E0F801828993890E94C700DC
S11317C0D80154966D917C9155974BE050E0529618
S11317D08D919C9153970E94B000D801ED91FC919A
S11317E081E084838C2FCF911F910F9108958F9264
S11317F09F92AF92BF92CF92DF92EF92FF920F939C
S11318001F93CF93DF93EC016A017B0142305105B2
S11318106105710508F44BC08E899F89A88DB98D27
S1131820481759076A077B0708F043C010E002C055
S1131830750164018E899F89A88DB98DC816D90652
S1131840EA06FB06D8F5B701A601CE01E7D94B019C
S11318505C01672B682B692B89F181E08816910460
S1131860A104B10441F12FEF82169206A206B2063A
S113187021F100E010E09801B701A601CE016FDB71
S1131880182F81111BC08E859F85A889B9898F3F28
S11318902FEF9207A207B20759F20196A11DB11DBD
S11318A08E879F87A88BB98B81E08D83C1CF12E08F
S11318B005C012E003C012E001C011E0812FDF91E6
S11318C0CF911F910F91FF90EF90DF90CF90BF9039
S11318D0AF909F908F90089581111AC090E0FC0101
S11318E0EE0FFF1FE051FC4F0190F081E02D309787
S11318F009F010826115710511F0FB011082880F47
S1131900991FFC01E051FC4F7183608380E00895CE
S11319108BE008954F925F926F927F92AF92BF9245
S1131920CF92DF92EF92FF920F931F93CF93DF93A7
S1131930CDB7DEB7A8970FB6F894DEBF0FBECDBF04
S11319407CA36BA3009709F4D9C0042F7C01DC01AC
S11319501D921C92B42FBF71DB2E4E71BE016F5FBE
S11319607F4FCE0183960E94DF028111CAC0CE014F
S113197047969E8B8D8B6BA17CA146976EDE182FAC
S1131980AB88BC88811104C0A114B10409F416E029
S1131990802F8C7109F462C0112361F0143021F49A
S11319A0CE010196ECDE182FED2DE860DE2EAB881B
S11319B0BC880BC0D5011B968C91817119F402FD72
S11319C003C003C017E001C018E0111156C0D3FED4
S11319D054C00E946500F50166877787808B918BE0
S11319E01386148E158E168E178EB50189819A81F1
S11319F00E9403012B013C0140E050E0BA01C50103
S1131A000E941C01E981FA8181E08483411451041C
S1131A106104710491F186A597A5A0A9B1A98DA32C
S1131A209EA3AFA3B8A7B301A201CF01E0DE182F94
S1131A30811123C089819A81A1E04A1A5108610861
S1131A407108FC0142865386648675864DA15EA1A9
S1131A506FA178A50E948202182F0FC011110DC02A
S1131A60D5011B968C9184FD05C001FF06C080FD45
S1131A7003C003C014E001C017E0111112C0D3FE6B
S1131A8003C0BD2DB062DB2EE981FA8186A597A53E
S1131A90A0A9B1A9F701828F938FA48FB58FB78EB8
S1131AA0A68E11112DC0D7011496DC92C980DA805C
S1131AB0B501C6010E940301F70166877787808B11
S1131AC0918BF501848D958DA68DB78DF701828755
S1131AD09387A487B5871682178210861186168A83
S1131AE0178A108E118ED182C082D60116968D91DE
S1131AF09C91179793838283812F03C089E001C04F
S1131B00812FA8960FB6F894DEBF0FBECDBFDF912C
S1131B10CF911F910F91FF90EF90DF90CF90BF90E6
S1131B20AF907F906F905F904F9008952F923F9267
S1131B304F925F926F927F928F929F92AF92BF92D9
S1131B40CF92DF92EF92FF920F931F93CF93DF9385
S1131B50EC015B016A014901F901118210820E94C2
S1131B60BA0281117BC18C8188230CF474C181FF7A
S1131B7074C18A859B85AC85BD85AC01BD014C0DC6
S1131B805D1D611D711D481759076A077B0710F415
S1131B90C12CD12CC114D10409F447C14E815F81F9
S1131BA068857985DB01CA019170AA27BB27892B37
S1131BB08A2B8B2B09F0EFC0E881F9811281115037
S1131BC0DB01CA01072E79E0B695A795979587950D
S1131BD07A95D1F7702D1823E1F5452B462B472B29
S1131BE099F46E857F8588899989611571058105C8
S1131BF0910581F440E050E0BA01CF01D5DA6E8757
S1131C007F87888B998B06C04A895B896C897D891B
S1131C10CF01CADA611571058105910509F405C181
S1131C20613071058105910529F48C8180688C836C
S1131C3082E014C16F3FFFEF7F078F079F0729F4EE
S1131C408C8180688C8381E009C16A8B7B8B8C8B4F
S1131C509D8BE881F98146A557A560A971A98E8954
S1131C609F89A88DB98D481759076A077B0739F4EE
S1131C70CF010E941B02882321F081E003C080E091
S1131C8001C080E0882329F08C8180688C8381E006
S1131C90E5C04A895B896C897D8928803980C101C6
S1131CA00E94E605611571058105910529F48C8171
S1131CB080688C8382E0D2C02B013C01410E511C10
S1131CC0611C711C7601EF2CFF24E694E114F104ED
S1131CD009F440C0F1014281242F30E0C701810F93
S1131CE0911D2817390718F47901E11AF1080E2D0E
S1131CF0A3019201B501F101818147D4882329F020
S1131D008C8180688C8381E0A9C0E881F98186A5F3
S1131D1097A5A0A9B1A984199509A609B709A7018E
S1131D2060E070E084179507A607B70778F4982F4A
S1131D308827990FB501680F791F40E052E0CF0161
S1131D40C2960E94B000E881F9811482FE2CEE2430
S1131D50FF0C53C04E815F81688579858A859B8598
S1131D60AC85BD85481759076A077B0780F0C10118
S1131D700E941B02882329F08C8180688C8381E077
S1131D806DC0E881F98146A657A660AA71AA4E8A59
S1131D905F8A688E798E8E819F81A885B9859170BE
S1131DA020E032E07901E81AF90ACE14DF0408F4DD
S1131DB076014E895F89688D798D888199810E9429
S1131DC08202882329F08C8180688C8381E046C05C
S1131DD0288139814E815F816885798551706627B4
S1131DE07727CA01C296A701B501820F931F0E94EB
S1131DF0B000E881F98181E08483AE0CBF1C8E8140
S1131E009F81A885B9858E0D9F1DA11DB11D8E834F
S1131E109F83A887B987F401808191818E0D9F1DCE
S1131E2091838083CE18DF08B5CE8E819F81A885EB
S1131E30B9854A855B856C857D85481759076A078E
S1131E407B0720F48A879B87AC87BD878C8180625F
S1131E508C8380E003C082E001C087E0DF91CF91F2
S1131E601F910F91FF90EF90DF90CF90BF90AF90B4
S1131E709F908F907F906F905F904F903F902F90A6
S1131E8008950F931F93CF93DF93EC010E94BA023E
S1131E90811136C09C8195FF33C04A8D5B8D6C8D5A
S1131EA07D8D888199810E948202811129C00E8DC5
S1131EB01F8DF8018385806283878A859B85AC8525
S1131EC0BD85848F958FA68FB78F4E855F85688972
S1131ED07989C8010E941C010E946500F801668B83
S1131EE0778B808F918F138A128A8C818F7D8C835C
S1131EF0E881F98181E08483888199810E94810548
S1131F00DF91CF911F910F910895CF93DF93EC014F
S1131F10B8DF811102C019821882DF91CF91089530
S1131F2023B10197E9F70895FC019F012F5F3F4F0B
S1131F308081882324F495B1906295B903C095B14A
S1131F409F7D95B995B1906895B995B19F7795B9ED
S1131F5086FF04C095B1906295B903C095B19F7D89
S1131F6095B995B1906895B995B19F7795B985FF65
S1131F7004C095B1906295B903C095B19F7D95B9A0
S1131F8095B1906895B995B19F7795B984FF04C0D0
S1131F9095B1906295B903C095B19F7D95B995B1FE
S1131FA0906895B995B19F7795B983FF04C095B1B1
S1131FB0906295B903C095B19F7D95B995B190682C
S1131FC095B995B19F7795B982FF04C095B1906298
S1131FD095B903C095B19F7D95B995B1906895B9B0
S1131FE095B19F7795B981FF04C095B1906295B979
S1131FF003C095B19F7D95B995B1906895B995B198
S11320009F7795B980FF04C085B1806285B903C00C
S113201085B18F7D85B985B1806885B985B18F77A4
S113202085B961507109F90109F07FCF0895FC0168
S113203085B1806285B901C0F9011E9902C090E0A2
S113204001C091E085B1806885B985B18F7785B984
S1132050990F1E999F5F85B1806885B985B18F7787
S113206085B9990F1E999F5F85B1806885B985B13F
S11320708F7785B9990F1E999F5F85B1806885B95F
S113208085B18F7785B9990F1E999F5F85B1806857
S113209085B985B18F7785B9990F1E999F5F85B1F1
S11320A0806885B985B18F7785B9990F1E999F5F2F
S11320B085B1806885B985B18F7785B9990F1E99E7
S11320C09F5F25B1206825B925B12F7725B99F01D8
S11320D02F5F3F4F90836150710909F0ADCF089590
S11320E00F931F93CF93DF931F92CDB7DEB708E80A
S11320F013E10115110571F061E070E0CE01019664
S113210096DF89818F3F31F084E690E009DF01504A
S11321101109EFCF012B19F081E090E002C080E0BB
S113212090E00F90DF91CF911F910F910895CF937D
S1132130DF931F92CDB7DEB785B1826085B961E0C8
S113214070E0CE01019673DF0F90DF91CF91089577
S11321500F931F93CF93DF931F92CDB7DEB785B153
S11321608D7F85B961E070E0CE01019660DFB8DF54
S11321708C01892B11F4DBDF02C001E010E0C801FF
S11321800F90DF91CF911F910F910895CF92DF921D
S1132190EF92FF920F931F93CF93DF9300D0CDB7AD
S11321A0DEB77C016B0108EE13E00115110571F037
S11321B061E070E0CE0101963ADF89818F3F31F40E
S11321C084E690E0ADDE01501109EFCF89818E3FA6
S11321D059F4B601C7012BDF62E070E0CE0101962D
S11321E026DF81E090E002C080E090E00F900F9045
S11321F0DF91CF911F910F91FF90EF90DF90CF90DF
S11322000895EF92FF921F93CF93DF9300D0CDB741
S1132210DEB77C01162F64DF009711F1198361E0AA
S113222070E0CE01019680DE1D3FA9F060E072E00F
S1132230C7017ADE62E070E0CE010196F8DE61E06B
S113224070E0CE010196F3DE89818F71853031F023
S113225080E090E005C081E090E002C081E090E081
S11322600F900F90DF91CF911F91FF90EF90089501
S1132270DF92EF92FF920F931F93CF93DF93CDB72B
S1132280DEB727970FB6F894DEBF0FBECDBF182F69
S1132290042FF52EE62ED72E882344F41F7740E032
S11322A050E0BA0187E3E4DF8230A0F540DF50DF7D
S11322B0892B79F1812F80648A83DB82EC82FD8211
S11322C00E83112311F081E001C085E9183009F46F
S11322D087E88F8366E070E0CE01029625DE1C302D
S11322E029F461E070E0CE010196A1DE1AE061E01C
S11322F070E0CE0101969BDE8981882324F411507D
S113230021F091E003C090E001C090E09111EFCF83
S113231001C08FEF27960FB6F894DEBF0FBECDBF76
S1132320DF91CF911F910F91FF90EF90DF9008956F
S1132330811103C080910601089581E00895EF9210
S1132340FF920F931F93CF93DF9300D000D0CDB7AC
S1132350DEB78111B8C080E197E2E2DD84B182602A
S113236084B985B1826085B984B1806884B985B146
S11323708F7785B984B1806284B91AE0112339F06A
S113238061E070E0CE01019652DE1150F7CF40E0DB
S113239050E0BA0180E06CDF813009F07DC04AEA88
S11323A051E060E070E088E063DF813009F03EC016
S11323B064E070E0CE0101963ADE8B81813009F051
S11323C06DC08C818A3A09F06BC008EE13E00115E8
S11323D0110571F040E050E060E070E489EA48DF04
S11323E0882331F088EE93E09BDD01501109EFCF93
S11323F0012B49F040E050E0BA018AE339DF811152
S113240004C081E003C080E001C080E0882309F4B7
S113241049C064E070E0CE01019609DE898186FF3F
S113242043C00F2EFCE0FF2EF02D43C040E050E0EF
S1132430BA0189EA1DDF823040F40F2EF9EAEF2E4B
S1132440F02D6894FF24F1F804C0EE24E394FF24F3
S1132450F39408EE13E00115110569F040E050E033
S1132460BA018E2D05DF882331F088EE93E058DD24
S113247001501109F0CF012B49F040E052E060E037
S113248070E080E1F5DE811103C003C081E001C08A
S113249081E081110DC00DC0F12C0BC0F12C09C0DD
S11324A0F12C07C0F12C05C06894FF24F2F801C098
S11324B0F12CF092F20311E0F11010E010930601F8
S11324C036DE812F01C083E00F900F900F900F90A4
S11324D0DF91CF911F910F91FF90EF900895CF92CC
S11324E0DF92EF92FF920F93CF93DF93EB01690199
S11324F07A011EDF80FD3EC08091F20383FD09C096
S11325000B2EB9E0CC0CDD1CEE1CFF1CBA95D1F7E8
S1132510B02D0130A1F4B701A60181E1A9DE81113A
S113252008C060E072E0CE0131DE892B21F081E049
S113253003C080E001C080E0811116C016C0B7015D
S1132540A60182E195DE811110C060E072E0CE0147
S11325501DDE892B19F0DE5F0150B9F740E050E031
S1132560BA018CE085DE01C000E0E1DD002321F04A
S113257081E003C083E001C080E0DF91CF910F913F
S1132580FF90EF90DF90CF900895CF92DF92EF927B
S1132590FF920F93CF93DF93EB0169017A01C8DEB9
S11325A080FD47C08091F20383FD09C00B2EB9E082
S11325B0CC0CDD1CEE1CFF1CBA95D1F7B02D0130FC
S11325C099F4B701A60188E153DE811107C06EEFCB
S11325D0CE0117DE892B21F081E003C080E001C029
S11325E080E081111EC020C0867031F0402F50E081
S11325F060E070E087E93CDEB701A60189E138DEDE
S1132600811112C06CEFCE01FCDD892B19F0DE5F65
S11326100150C1F76DEF80E090E0F3DD892B19F0F4
S113262003C000E001C001E082DD002321F081E06D
S113263003C083E001C080E0DF91CF910F91FF9050
S1132640EF90DF90CF900895EF92FF921F93CF9376
S1132650DF93CDB7DEB760970FB6F894DEBF0FBE39
S1132660CDBF162F7A0164DE80FDA9C0113059F068
S113267020F0133009F490C09AC06ADD892B09F068
S113268098C011E099C040E050E0BA0189E0F0DD63
S1132690811109C060E170E0CE01019677DD892BDC
S11326A021F081E003C080E001C080E0882309F4C8
S11326B082C0898190E0082E892F000C881F990B15
S11326C0000C881F991F019731F58A85298530E010
S11326D0322F2227280F311D88858F7390E0A0E0C8
S11326E0B0E0DC0199278827820F931FA11DB11D3B
S11326F00196A11DB11D072E7AE0880F991FAA1F0C
S1132700BB1F7A95D1F7702DF70180839183A28343
S1132710B38310E051C08E812B859A85382F3F708A
S1132720822F881F8827881F830F9370990F890F22
S113273042E0480F898590E0BC01062E672F000C0B
S1132740661F770B000C661F771F288530E0C901D0
S1132750880F991F880F991F860F971F2F81237049
S113276030E0322F2227330F330F820F931F01964D
S1132770A0E0B0E0242F30E02950310904C0880FD4
S1132780991FAA1FBB1F2A95D2F7F7018083918353
S1132790A283B38310E010C080E890E0A0E0B0E032
S11327A0F70180839183A283B38310E005C014E012
S11327B003C010E001C011E0BADC812F01C083E046
S11327C060960FB6F894DEBF0FBECDBFDF91CF91F8
S11327D01F91FF90EF900895A1E21A2EAA1BBB1B34
S11327E0FD010DC0AA1FBB1FEE1FFF1FA217B307D9
S11327F0E407F50720F0A21BB30BE40BF50B661FEF
S1132800771F881F991F1A9469F7609570958095B2
S113281090959B01AC01BD01CF01089509D0A59FFE
S1132820900DB49F900DA49F800D911D11240895C7
S1132830A29FB001B39FC001A39F700D811D1124FD
S1132840911DB29F700D811D1124911D08950F9348
S11328501F93CF93DF938230910510F482E090E0D0
S1132860E091F503F091F60320E030E0A0E0B0E061
S1132870309719F14081518102811381481759071A
S1132880C8F08417950769F4109731F012960C93E9
S1132890129713961C9327C00093F5031093F60325
S11328A022C02115310519F04217530718F49A0173
S11328B0BD01EF01DF01F801DBCF21153105F9F08E
S11328C0281B390B2430310580F48A819B816115E2
S11328D0710521F0FB019383828304C09093F60376
S11328E08093F503FE01329644C0FE01E20FF31F0C
S11328F08193919322503109398328833AC02091DE
S1132900F3033091F403232B41F42091020130911D
S113291003013093F4032093F303209100013091D9
S113292001012115310541F42DB73EB74091040151
S113293050910501241B350BE091F303F091F4034E
S1132940E217F307A0F42E1B3F0B2817390778F082
S1132950AC014E5F5F4F2417350748F04E0F5F1FE1
S11329605093F4034093F3038193919302C0E0E006
S1132970F0E0CF01DF91CF911F910F910895CF9394
S1132980DF93009709F481C0FC013297138212820D
S1132990A091F503B091F603109781F42081318161
S11329A0820F931F2091F3033091F4032817390702
S11329B051F5F093F403E093F30367C0ED0120E0D5
S11329C030E0CE17DF0740F44A815B819E01411558
S11329D05105F1F0EA01F5CFD383C28340815181DF
S11329E0840F951FC817D90759F488819981840FDA
S11329F0951F0296918380838A819B81938382832E
S1132A002115310529F4F093F603E093F5033DC055
S1132A10E901FB83EA8349915991C40FD51FEC174F
S1132A20FD0761F480819181840F951F0296E9016D
S1132A3099838883828193819B838A83E0E0F0E099
S1132A4012968D919C911397009719F0FD01DC016A
S1132A50F7CF8D919C9111979D012E5F3F4F820F6F
S1132A60931F2091F3033091F4032817390769F475
S1132A70309729F41092F6031092F50302C01382E2
S1132A801282B093F403A093F303DF91CF910895DE
S1072A90F894FFCFE4
S1132A940000F703200001696D6167652E6A7067A1
S1132AA400746573742E6A706700222A2B2C3A3BD7
S1132AB43C3D3E3F5B5D7C7F00222A2B2C2E3A3B1F
S1132AC43C3D3E3F5B5D7C7F00809A90418E418F0C
S1132AD4804545454949498E8F9092924F994F5567
S1132AE45559999A9B9C9D9E9F41494F55A5A5A6CE
S1132AF4A7A8A9AAABAC21AEAFB0B1B2B3B4B5B672
S1132B04B7B8B9BABBBCBDBEBFC0C1C2C3C4C5C6D5
S1132B14C7C8C9CACBCCCDCECFD0D1D2D3D4D5D6C5
S1132B24D7D8D9DADBDCDDDEDFE0E1E2E3E4E5E6B5
S1132B34E7E8E9EAEBECEDEEEFF0F1F2F3F4F5F6A5
S10D2B44F7F8F9FAFBFCFDFEFF00B0
S9030000FC
