:1000000045C0000061C000005FC000005DC000008E
:100010005BC0000059C0000057C0000055C0000080
:1000200053C0000051C000004FC000004DC0000090
:100030004BC0000049C0000047C0000045C00000A0
:1000400043C0000041C000003FC000003DC00000B0
:100050003BC0000039C0000037C0000035C00000C0
:1000600033C0000031C000002FC000002DC00000D0
:100070002BC0000029C0000027C0000025C00000E0
:1000800023C0000021C000001FC0000011241FBEBB
:10009000CFEFD0E4DEBFCDBF1EE0A0E0B1E0E2E5EF
:1000A000F9E200E00BBF02C007900D92A83BB10738
:1000B000D9F720E1A8EBBEE001C01D92A53FB20731
:1000C000E1F708D00C94A7149BCF60EC73EA82E0B0
:1000D00093E40895CF93DF93CDB7DEB7C950DD40E9
:1000E0000FB6F894DEBF0FBECDBF87E09DE0E7E01E
:1000F000F1E0DE01119601900D920197E1F78AB1CE
:1001000081608AB98AB182608AB98BB18E7F8BB9DE
:100110008BB18D7F8BB98FE493EC0197F1F700C021
:1001200000006AEB7EE080E00E94820C80E290E0BA
:100130000E9486139093B90E8093B80E4AE06EE049
:100140007EE00E94A00C811120C09E01285F324FEA
:1001500047E05DE0BE016F5F7F4F8091B80E9091E8
:10016000B90E0E94AC0D8091B80E9091B90E0E940C
:100170009B0FC85FD24F88819981C850DD4087307E
:100180009D4019F48BB181608BB9FFCFDC01FB017D
:100190004230510538F0819191918D939D93425059
:1001A0005109F6CFCA010197452B31F020812C93DC
:1001B000AC0131961196F6CF0895FC01CA01019762
:1001C000452B21F06083AC013196F8CF0895CF9391
:1001D000DF93EC01DB0180E090E0FA013197452BE1
:1001E00081F09E012F5F3F4F888190E0AD014F5F0E
:1001F0005F4F6C91861B910931F4DA01E90121E02E
:1002000005C020E003C0DA01E90120E0AF012111BF
:10021000E4CFDF91CF910895FC018081882339F0EC
:10022000282F30E02617370711F03196F6CF90E0EF
:1002300008950F931F93DC01FB01628D738D80E0A5
:1002400090E02C91233059F40489158920E030E0A6
:10025000980111270027602B712B822B932B1F9164
:100260000F910895FC01538F428F758B648B089515
:100270004F925F926F928F929F92AF92BF92CF9266
:10028000DF92EF92FF921F93CF93DF93FC015B010C
:10029000DB01CD91DC9198819F3211F09C3511F4F6
:1002A0002196F9CFC488D5884BE050E060E270E039
:1002B000C60183DF412C512C80E090E068948824B3
:1002C00083F8912C612C01C0C7017C01BFEFEB1AB0
:1002D000FB0AFE01E80FF91F1081113208F449C032
:1002E0001F3209F446C01C3509F443C01E3219F010
:1002F00048145904A0F0E8E08E16910409F05FC09C
:100300001E3209F05EC0660C660C6894442443F803
:10031000512C0F2EFBE08F2E912CF02DD5CF1123D9
:1003200044F4F62DF3606F2EE12FF0E0E954F24F24
:100330001081612F70E088E19EE06EDF892B09F06B
:1003400042C08FEB810F8A3120F4262D2260622E6D
:1003500008C08FE9810F8A3120F4862D8160682ED4
:100360001052F601E40DF51D1083D20111962D01F6
:10037000ABCFCE0DDF1DF501D183C083113210F458
:1003800094E001C090E0452801F1D6018C91853EB2
:1003900011F485E08C93B8E08B16910411F4660C8F
:1003A000660C862D8370813009F49061862D8C70E7
:1003B000843009F49860F601938780E007C086E0F6
:1003C00005C086E003C086E001C086E0DF91CF91E2
:1003D0001F91FF90EF90DF90CF90BF90AF909F90D4
:1003E0008F906F905F904F9008950F93CF93DF930E
:1003F000EC019A01AB01BC016E5C7F4F01E0898189
:100400000E94CE11811122C0FE01E05DFD4F80816E
:10041000918185359A4AE1F4E85CF14080819181CF
:10042000A281B381BB2786349144A445B10591F0E4
:10043000CC57DF4F88819981AA81BB81BB27863445
:100440009144A445B10541F480E007C083E005C0B4
:1004500082E003C080E001C081E0DF91CF910F9185
:1004600008958F929F92AF92BF92CF92DF92EF92B8
:10047000FF920F93CF93DF93FC012481222309F491
:1004800042C0EC01C6A4D7A4E0A8F1A84C01F2E355
:100490008F0E911C01E0A7019601B40189810E9491
:1004A0002412811132C01C828AA19BA1ACA1BDA1E2
:1004B000C816D906EA06FB0650F14A8D5B8D6C8D95
:1004C0007D8D840F951FA61FB71FC816D906EA0693
:1004D000FB06F8F4AB80B12C82E0A816B104D8F08A
:1004E0008A8D9B8DAC8DBD8DC80ED91EEA1EFB1E5C
:1004F00001E0A7019601B40189810E942412E1E084
:10050000AE1AB108E9CF80E007C081E005C080E005
:1005100003C080E001C080E0DF91CF910F91FF9098
:10052000EF90DF90CF90BF90AF909F908F90089505
:10053000CF92DF92EF92FF920F931F93CF93DF93AF
:10054000FC01C6A4D7A4E0A8F1A8C416D506E60607
:10055000F706B9F06A017B01EC0183DF182F8111E6
:1005600012C001E0A7019601BE016E5C7F4F898138
:100570000E94CE11811109C0CEA6DFA6E8AAF9AA71
:1005800005C010E003C011E001C011E0812FDF9130
:10059000CF911F910F91FF90EF90DF90CF90089532
:1005A0000097C9F0DC01ED91FC9111973097A9F00B
:1005B00020812223A1F02681378112968D919C9172
:1005C00013972817390769F481810E94051180FF6C
:1005D0000AC083E0089589E0089589E0089589E0DC
:1005E000089589E0089580E008952F923F924F92F8
:1005F0005F926F927F928F929F92AF92BF92CF92B3
:10060000DF92EF92FF920F931F93CF93DF93CDB7BB
:10061000DEB72E970FB6F894DEBF0FBECDBFDC015C
:10062000ED91FC91E080F12CB0E3EB1AF1082AE0A7
:10063000E216F10440F421812A3341F43296DC01C0
:10064000ED93FC9305C0E12CF12C02C0E12CF12CC0
:10065000FB0111821082E114F10409F02AC2F701B2
:10066000EE0FFF1FE251FF4E808091809E868D86A7
:100670008114910409F41FC2142FFB01918280821E
:10068000D4018C91882369F011968C910E940511F8
:1006900080FD07C0112309F410C282FD10C280E062
:1006A0002DC2ED85FE851082E1828E2D0E940C11F7
:1006B00080FD07C2112311F082FD05C240E050E029
:1006C000BA018D859E8591DE813089F4ED85FE85A8
:1006D000E051FE4F9481992371F0C084D184E2846B
:1006E000F384B701A6018D859E857FDE07C0C12CEE
:1006F000D12C760103C0C12CD12C7601833009F4B2
:10070000E4C18111E4C1AD85BE85DD968D919C91DA
:10071000DE978115924009F0DCC1ED85FE85E85B2E
:10072000FF4F808191812C01612C712C4114510467
:100730006104710441F4ED85FE85EA5AFF4F408063
:10074000518062807380ED85FE85428E538E648E6B
:10075000758EEE5BFF4FA081ED85FE85A3838FEF45
:100760008A0F823008F0B7C1B0E0A30192010E9465
:100770006D136D837E838F83988727AD2283222319
:1007800009F4ABC1422F50E0CA010197842395239D
:10079000892B09F0A4C1ED5BFF4F20803180AD852E
:1007A000BE8519963C922E921897C1018F70992799
:1007B000892B09F096C1FD01EB5BFF4F60817181D0
:1007C000CB01A0E0B0E00097A105B10541F4ED85B3
:1007D000FE85EE5AFF4F80819181A281B381ED8524
:1007E000FE85E05CFF4F408151814115510509F4C0
:1007F0007AC14A01A12CB12C89869A86AB86BC8627
:100800008D809E80AF80B88449855A856B857C85B4
:10081000840E951EA61EB71EF101F295E295EF70AB
:10082000EF27FF70EF27B501A4014E0F5F1F611D79
:10083000711D49835A836B837C8384179507A607B0
:10084000B70708F452C1BC01CD0189809A80AB8002
:10085000BC80681979098A099B0930E040E050E0C2
:100860000E944B13DA01C9012115310541055105DB
:1008700009F43DC1263F6FE036074105510510F4EC
:1008800011E001C012E0863F9F4FA105B10508F0BD
:1008900013E049015A0182E0880E911CA11CB11C91
:1008A000AD85BE8556968D929D92AD92BC9259971C
:1008B000FD01C68ED78EE0A2F1A289859A85AB850F
:1008C000BC858C0D9D1DAE1DBF1D82A393A3A4A34B
:1008D000B5A349815A816B817C814C0D5D1D6E1DD4
:1008E0007F1D42A753A764A775A71330C1F423281F
:1008F00009F0FFC0E25AFF4F80819181A281B3814C
:10090000ED85FE8586A397A3A0A7B1A7880C991CA7
:10091000AA1CBB1C880C991CAA1CBB1C2DC023281C
:1009200009F4E9C02D813E814F815885820F931FC4
:10093000A41FB51FED85FE8586A397A3A0A7B1A729
:10094000123029F4880C991CAA1CBB1C15C0A3E00A
:10095000B0E0A50194010E946D13DC01CB01B695B6
:10096000A79597958795F1E08F229924AA24BB2417
:10097000880E991EAA1EBB1E2FEF820E21E0921E2A
:10098000A11CB11C072E79E0B694A7949794879484
:100990007A95D1F7702D481459046A047B0408F441
:1009A000ACC08FEF9FEFDC01ED85FE8586879787D2
:1009B000A08BB18BDF011286138614861586133047
:1009C00009F05FC01582EE59FF4F80819181A70128
:1009D0009601280F391F411D511DFD01228B338BBC
:1009E000448B558B01E0BD016E5C7F4F81810E947D
:1009F000CE11811123C0ED85FE85E05DFD4F808124
:100A0000918185359A4AE1F4ED85FE8582A993A905
:100A1000A4A9B5A982359245A146B14499F4ED85C2
:100A2000FE85EA5EFD4F80819181A281B38182378C
:100A30009247A144B14641F080E007C080E005C084
:100A400080E003C080E001C081E08823D1F0ED8523
:100A5000FE85E25EFD4F80819181A281B381ED85AB
:100A6000FE8582879387A487B587E65EFD4F8081E8
:100A70009181A281B381ED85FE8586879787A08BC2
:100A8000B18BAD85BE851C938091EC109091ED10DB
:100A900001969093ED108093EC1017969C938E9393
:100AA0001697FD0116A617A610AA11AA148280E0B7
:100AB00025C08BE023C08CE021C080E01FC08AE00D
:100AC0001DC083E01BC08AE019C081E017C08DE023
:100AD00015C08DE013C08DE011C08DE00FC08DE01A
:100AE0000DC08DE00BC08DE009C08DE007C08DE02A
:100AF00005C08DE003C08DE001C08DE02E960FB6DD
:100B0000F894DEBF0FBECDBFDF91CF911F910F9143
:100B1000FF90EF90DF90CF90BF90AF909F908F901D
:100B20007F906F905F904F903F902F900895EF923D
:100B3000FF920F931F93CF93DF93EC0192DC182F5A
:100B4000811152C08881833009F046C08D8188238D
:100B500009F442C01EA61FA618AA19AA40E052E036
:100B600060E070E07E0182E3E80EF11CC70125DB46
:100B700085E59AEAFE01E05DFD4F9183808382E581
:100B800092E5A1E6B1E48AAB9BABACABBDAB82E72F
:100B900092E7A1E4B1E67A9780839183A283B3833D
:100BA0008E859F85A889B989349680839183A28395
:100BB000B3838A859B85AC85BD853496808391837C
:100BC000A283B3832A893B894C895D8901E0B701FF
:100BD00089810E9424121D8240E050E060E08981FA
:100BE0000E948312811111E0812FDF91CF911F911B
:100BF0000F91FF90EF9008950F931F93FC019A01BE
:100C0000AB01225031094109510986899789A08D8C
:100C1000B18D0297A109B109281739074A075B0767
:100C200068F4A281B0E00E946D1302A513A524A56B
:100C300035A5600F711F821F931F03C060E070E035
:100C4000CB011F910F910895AF92BF92CF92DF9287
:100C5000EF92FF920F931F93CF93DF934230510592
:100C60006105710508F4B2C0FC0106891789208D61
:100C7000318D401751076207730708F0ACC06A0155
:100C80007B01EC018081823009F44DC0833009F48E
:100C90006DC0813009F0A4C05A01B694A794A40E87
:100CA000B51E42A153A164A175A1C501892F992741
:100CB0008695480F591F611D711DCF0139DC8111C7
:100CC00093C0F501F170EC0FFD1F02A910E0FFEFDA
:100CD000AF1ABF0A4AA15BA16CA17DA1C501892FF2
:100CE00099278695480F591F611D711DCE0120DC83
:100CF00081117EC081E0B822CA0DDB1D6AA970E0B7
:100D0000762F6627602B712BC0FE09C07295629505
:100D10006F7067277F70672780E090E074C07F70F6
:100D200080E090E070C042A153A164A175A1BB27EF
:100D3000AF2D9E2D8D2D480F591F6A1F7B1FCF0190
:100D4000F7DB811159C0B701A601440F551F661F7B
:100D5000771F4E7F5170662777274E5C5F4FC40F19
:100D6000D51F6881798180E090E04DC042A153A1F8
:100D700064A175A1D701C601689416F8B695A79528
:100D8000979587951694D1F7480F591F6A1F7B1FB7
:100D9000CF01CEDB811134C0B701A601440F551F2E
:100DA000661F771F440F551F661F771F4C7F5170BA
:100DB000662777274E5C5F4FC40FD51F88819981C6
:100DC000AA81BB81BC01CD019F701DC061E070E0B4
:100DD00080E090E018C061E070E080E090E013C037
:100DE0006FEF7FEFCB010FC06FEF7FEFCB010BC039
:100DF0006FEF7FEFCB0107C06FEF7FEFCB0103C039
:100E00006FEF7FEFCB01DF91CF911F910F91FF909B
:100E1000EF90DF90CF90BF90AF900895EF92FF9248
:100E20000F931F93CF93DF93EC018B017D836C8332
:100E30004E815F8168857985413051056105710575
:100E400009F491C0E881F98186899789A08DB18DD7
:100E5000481759076A077B0708F087C041155105F5
:100E60006105710539F48081833021F446A157A1D1
:100E700060A571A54115510561057105F1F44A8719
:100E80005B876C877D87808591850817190708F037
:100E90006EC086A197A1A0A5B1A598013295229513
:100EA0002F7023273F702327820F931FA11DB11D91
:100EB0008E879F87A88BB98B40C0E28080E1E89E37
:100EC000700111240E151F0500F188819981BCDE87
:100ED000AB01BC014F3F8FEF58076807780709F453
:100EE00048C0423051056105710508F444C0E881ED
:100EF000F98186899789A08DB18D481759076A07AE
:100F00007B07D8F50E191F09DDCF4A875B876C87F1
:100F10007D878881998170DE9801329522952F70A6
:100F200023273F702327DC01CB01820F931FA11DD4
:100F3000B11D8E879F87A88BB98B288139810F704F
:100F40001127C801880F991F82959295907F982745
:100F5000807F982789010E5C1F4F080F191F1B8B7C
:100F60000A8B80E00BC082E009C082E007C082E00B
:100F700005C081E003C082E001C082E0DF91CF9133
:100F80001F910F91FF90EF9008954F925F926F9293
:100F90007F92AF92BF92CF92DF92EF92FF920F9328
:100FA0001F93CF93DF9300D000D000D0CDB7DEB732
:100FB000423051056105710508F4F4C0FC01C68892
:100FC000D788E08CF18C4C155D056E057F0508F027
:100FD000EBC0280139016A017B019E838D838081EA
:100FE000823009F475C0833009F498C0813009F06B
:100FF000D3C05A01B694A794A40EB51E42A153A122
:1010000064A175A1C501892F99278695480F591F9D
:10101000611D711DCF018CDA8111BFC0C5019170B6
:10102000A7019601217033274427552729833A8346
:101030004B835C83C0FE0CC040E1449E90011124B0
:10104000ED81FE81E80FF91F42A94F70242B01C0EA
:10105000242DED81FE81E80FF91F22AB5FEFA51A69
:10106000B50A81E0ED81FE81848342A153A164A190
:1010700075A1C501892F99278695480F591F611DB4
:10108000711DCF0155DA811188C0F1E0BF2229819D
:101090003A814B815C81232B242B252B49F06894CA
:1010A00013F876946794579447941694D1F70AC02E
:1010B000ED81FE81EA0DFB1D22A9207F952D9F70F9
:1010C000422E492AED81FE81EA0DFB1D42AA65C030
:1010D000ED81FE8142A153A164A175A1BB27AF2D73
:1010E0009E2D8D2D480F591F6A1F7B1FCF0120DABF
:1010F000811153C0CC0CDD1CEE1CFF1CE894C0F821
:10110000F1E0DF22EE24FF2422E3C20ED11CED81A8
:10111000FE81EC0DFD1D518240823FC0ED81FE81BC
:1011200042A153A164A175A1D701C601689416F824
:10113000B695A795979587951694D1F7480F591F9F
:101140006A1F7B1FCF01F4D9811127C0CC0CDD1C95
:10115000EE1CFF1CCC0CDD1CEE1CFF1CFCEFCF2298
:10116000F1E0DF22EE24FF2422E3C20ED11CED8148
:10117000FE81EC0DFD1D008111812281338100274C
:1011800011272227307F402A512A622A732A40825F
:1011900051826282738201C082E091E0ED81FE8122
:1011A000948303C082E001C082E026960FB6F894D3
:1011B000DEBF0FBECDBFDF91CF911F910F91FF908A
:1011C000EF90DF90CF90BF90AF907F906F905F9047
:1011D0004F9008954F925F926F927F928F929F925D
:1011E000AF92BF92CF92DF92EF92FF920F931F9335
:1011F000CF93DF93EC012A013B01411551056105B5
:10120000710599F48A849B84AC84BD848114910413
:10121000A104B104F1F08E899F89A88DB98D88163B
:101220009906AA06BB06D0F41DC00EDD623071051A
:101230008105910508F488C0CE88DF88E88CF98C98
:101240006C157D058E059F0508F483C0530142018E
:1012500009C0812C912C5401839404C0812C912CC1
:1012600054018394750164012FEFC21AD20AE20A75
:10127000F20A8E899F89A88DB98DC816D906EA060B
:10128000FB0660F082E088169104A104B10408F422
:1012900064C0C12CD12C76016894C1F8B701A601B5
:1012A000CE01D2DC611571058105910599F06F3F82
:1012B0002FEF72078207920709F454C0613071055D
:1012C0008105910509F452C0C814D904EA04FB044D
:1012D00059F650C00FEF1FEF2FEF3FE0B701A60107
:1012E000CE0153DE81110BC041145104610471041D
:1012F00031F097018601B301A201CE0146DE8111D2
:101300001CC0CA86DB86EC86FD868E859F85A889F3
:10131000B9898F3F2FEF9207A207B20781F101979A
:10132000A109B1098E879F87A88BB98B81E08D8336
:101330004C2D3D2D2E2D9F2D2BC0813029F54FEFAB
:101340003FEF2FEF9FEF24C041E030E020E090E03E
:101350001FC0462F372F282F1BC040E030E020E071
:1013600090E016C0462F372F282F12C0462F372F58
:10137000282F0EC040E030E020E090E009C04C2D66
:101380003D2D2E2D9F2D04C041E030E020E090E067
:10139000642F732F822FDF91CF911F910F91FF90B8
:1013A000EF90DF90CF90BF90AF909F908F907F9005
:1013B0006F905F904F9008958F929F92AF92BF92DF
:1013C000CF92DF92EF92FF920F931F93CF93DF9311
:1013D000DC011496CD91DC911597219609F4F6C0A5
:1013E0001E968D909D90AD90BC9051978114910464
:1013F000A104B10409F4ECC07B018C016E01BFE0D3
:10140000CB22DD24C114D10409F0CAC0EFEF8E1A3B
:101410009E0AAE0ABE0ADC011E968D929D92AD9286
:10142000BC9251971A964D915D916D917C911D974B
:10143000411551056105710549F4ED91FC918085D7
:101440009185C817D90708F0C5C0AAC0DC01ED9185
:10145000FC91228130E021503109CE019295829594
:101460008F7089279F70892728233923232B09F020
:1014700097C0CF01E9DB4B015C016230710581054A
:10148000910508F4A9C06F3F7F4F8F4F9F4F09F41C
:10149000A5C0D801ED91FC9186899789A08DB18D69
:1014A00088169906AA06BB0608F469C0EF2809F455
:1014B00097C0D8011A964D915D916D917C911D97C1
:1014C000CF0188DE4B015C01611571058105910535
:1014D00009F488C0613071058105910509F484C063
:1014E0006F3F7F4F8F4F9F4F09F480C0D8018D9180
:1014F0009C910E94310281117BC0F8018081918111
:1015000040E052E060E070E0C2960E94DD00D80149
:10151000ED90FC90B501A401C7016EDBF70166A751
:1015200077A780AB91ABF12CD801ED91FC9111978D
:101530008281F816C0F481E084838D919C910E9491
:101540003102811157C0D801ED91FC9186A597A574
:10155000A0A9B1A90196A11DB11D86A797A7A0AB0F
:10156000B1ABF394E1CF86A597A5A0A9B1A98F1936
:101570009109A109B10986A797A7A0ABB1ABF80162
:1015800082869386A486B586B501A4018081918167
:1015900033DBD8011E966D937D938D939C93519769
:1015A000F801D583C48380819181CC0CDD1CCC0CE7
:1015B000DD1CCC0CDD1CCC0CDD1CCC0CDD1CC29667
:1015C000C80ED91ED38AC28A80E015C084E013C039
:1015D00084E011C084E00FC082E00DC081E00BC048
:1015E00084E009C087E007C082E005C081E003C055
:1015F00081E001C081E0DF91CF911F910F91FF90B9
:10160000EF90DF90CF90BF90AF909F908F90089514
:101610001F93CF93DF93EC0160E070E0FFDB81115B
:101620002EC04E855F8568897989888199810E945D
:101630009802182F81111FC0EA89FB8980818823B5
:10164000D9F0838583FD0BC06C897D894BE050E028
:10165000CF010E94E700892B21F481E003C080E0E4
:1016600001C080E081110AC060E070E0CE01A4DE1C
:101670008823B9F204C003C084E001C0812FDF9148
:10168000CF911F9108950F931F93CF93DF9300D0B5
:10169000CDB7DEB78C017A836983E62FF72F80817F
:1016A0008F3211F08C3519F43196FA83E983D80121
:1016B00016961D921D921D921C921997E981FA812E
:1016C0008081803240F460E070E0C801A7DBF8015F
:1016D000138A128A2EC0BE016F5F7F4FC8010E941D
:1016E0003801811126C0C80193DFD8015496ED91CD
:1016F000FC9155979385882329F08430D1F492FF8B
:1017000015C017C092FD15C0F80162897389DB010D
:101710001B968C9184FF0CC0808191810E941901DD
:10172000F8016683778380879187D5CF85E001C0F4
:1017300085E00F900F90DF91CF911F910F91089549
:10174000EF92FF920F931F93CF93DF93EC017B01F6
:1017500060E070E063DB811121C000E010E04E85A5
:101760005F8568897989888199810E9498028111B1
:1017700015C0EA89FB899081953E11F0911106C050
:101780000F5F1F4F0E151F0519F408C000E010E091
:1017900061E070E0CE0110DE882309F3DF91CF9184
:1017A0001F910F91FF90EF9008950F931F93CF9388
:1017B0008C0161E070E0C4DFC82F811129C0D8011D
:1017C0001E964D915D916D917C9151978D919C915B
:1017D0000E949802C82F81111BC040E250E060E0D7
:1017E00070E0F801828993890E94DD00D801549647
:1017F0006D917C9155974BE050E052968D919C9164
:1018000053970E94C600D801ED91FC9181E084833A
:101810008C2FCF911F910F9108958F929F92AF922D
:10182000BF92CF92DF92EF92FF920F931F93CF93CD
:10183000DF93EC016A017B014230510561057105BE
:1018400008F44BC08E899F89A88DB98D4817590718
:101850006A077B0708F043C010E002C0750164010D
:101860008E899F89A88DB98DC816D906EA06FB0610
:10187000D8F5B701A601CE01E7D94B015C01672B72
:10188000682B692B89F181E088169104A104B104C9
:1018900041F12FEF82169206A206B20621F100E076
:1018A00010E09801B701A601CE016FDB182F81115E
:1018B0001BC08E859F85A889B9898F3F2FEF92071E
:1018C000A207B20759F20196A11DB11D8E879F870D
:1018D000A88BB98B81E08D83C1CF12E005C012E0E7
:1018E00003C012E001C011E0812FDF91CF911F9161
:1018F0000F91FF90EF90DF90CF90BF90AF909F90AF
:101900008F90089581111AC090E0FC01EE0FFF1F27
:10191000E251FF4E0190F081E02D309709F01082E6
:101920006115710511F0FB011082880F991FFC01F0
:10193000E251FF4E7183608380E008958BE008954B
:101940004F925F926F927F92AF92BF92CF92DF924F
:10195000EF92FF920F931F93CF93DF93CDB7DEB734
:10196000A8970FB6F894DEBF0FBECDBF7CA36BA3C4
:10197000009709F4D9C0042F7C01DC011D921C9250
:10198000B42FBF71DB2E4E71BE016F5F7F4FCE0152
:1019900083960E94F5028111CAC0CE0147969E8BA4
:1019A0008D8B6BA17CA146976EDE182FAB88BC880F
:1019B000811104C0A114B10409F416E0802F8C71C8
:1019C00009F462C0112361F0143021F4CE010196B4
:1019D000ECDE182FED2DE860DE2EAB88BC880BC046
:1019E000D5011B968C91817119F402FD03C003C0CF
:1019F00017E001C018E0111156C0D3FE54C00E9478
:101A00006500F50166877787808B918B1386148E2E
:101A1000158E168E178EB50189819A810E94190143
:101A20002B013C0140E050E0BA01C5010E943201A7
:101A3000E981FA8181E084834114510461047104D5
:101A400091F186A597A5A0A9B1A98DA39EA3AFA347
:101A5000B8A7B301A201CF01E0DE182F811123C086
:101A600089819A81A1E04A1A510861087108FC0134
:101A700042865386648675864DA15EA16FA178A5C6
:101A80000E949802182F0FC011110DC0D5011B968E
:101A90008C9184FD05C001FF06C080FD03C003C01A
:101AA00014E001C017E0111112C0D3FE03C0BD2D18
:101AB000B062DB2EE981FA8186A597A5A0A9B1A91C
:101AC000F701828F938FA48FB58FB78EA68E1111D9
:101AD0002DC0D7011496DC92C980DA80B501C60109
:101AE0000E941901F70166877787808B918BF5013A
:101AF000848D958DA68DB78DF70182879387A487F6
:101B0000B5871682178210861186168A178A108E5C
:101B1000118ED182C082D60116968D919C91179715
:101B200093838283812F03C089E001C0812FA8960F
:101B30000FB6F894DEBF0FBECDBFDF91CF911F91DE
:101B40000F91FF90EF90DF90CF90BF90AF907F907C
:101B50006F905F904F9008952F923F924F925F92B7
:101B60006F927F928F929F92AF92BF92CF92DF92AD
:101B7000EF92FF920F931F93CF93DF93EC015B01E2
:101B80006A014901F901118210820E94D00281117B
:101B90007BC18C8188230CF474C181FF74C18A8558
:101BA0009B85AC85BD85AC01BD014C0D5D1D611DE6
:101BB000711D481759076A077B0710F4C12CD12CF7
:101BC000C114D10409F447C14E815F8168857985CC
:101BD000DB01CA019170AA27BB27892B8A2B8B2B8B
:101BE00009F0EFC0E881F98112811150DB01CA01CF
:101BF000072E79E0B695A795979587957A95D1F7B1
:101C0000702D1823E1F5452B462B472B99F46E8553
:101C10007F8588899989611571058105910581F410
:101C200040E050E0BA01CF01D5DA6E877F87888B1C
:101C3000998B06C04A895B896C897D89CF01CADA94
:101C4000611571058105910509F405C161307105C2
:101C50008105910529F48C8180688C8382E014C110
:101C60006F3FFFEF7F078F079F0729F48C81806804
:101C70008C8381E009C16A8B7B8B8C8B9D8BE88187
:101C8000F98146A557A560A971A98E899F89A88D5C
:101C9000B98D481759076A077B0739F4CF010E94AD
:101CA0003102882321F081E003C080E001C080E0A0
:101CB000882329F08C8180688C8381E0E5C04A8983
:101CC0005B896C897D8928803980C1010E94FC056F
:101CD000611571058105910529F48C8180688C83DB
:101CE00082E0D2C02B013C01410E511C611C711CD1
:101CF0007601EF2CFF24E694E114F10409F440C0CE
:101D0000F1014281242F30E0C701810F911D281776
:101D1000390718F47901E11AF1080E2DA301920197
:101D2000B501F101818190D3882329F08C818068ED
:101D30008C8381E0A9C0E881F98186A597A5A0A937
:101D4000B1A984199509A609B709A70160E070E057
:101D500084179507A607B70778F4982F8827990F57
:101D6000B501680F791F40E052E0CF01C2960E9492
:101D7000C600E881F9811482FE2CEE24FF0C53C0CA
:101D80004E815F81688579858A859B85AC85BD8517
:101D9000481759076A077B0780F0C1010E9431028A
:101DA000882329F08C8180688C8381E06DC0E88174
:101DB000F98146A657A660AA71AA4E8A5F8A688EE4
:101DC000798E8E819F81A885B985917020E032E05F
:101DD0007901E81AF90ACE14DF0408F476014E8975
:101DE0005F89688D798D888199810E949802882306
:101DF00029F08C8180688C8381E046C028813981FC
:101E00004E815F8168857985517066277727CA0181
:101E1000C296A701B501820F931F0E94C600E881F8
:101E2000F98181E08483AE0CBF1C8E819F81A885DF
:101E3000B9858E0D9F1DA11DB11D8E839F83A8871F
:101E4000B987F401808191818E0D9F1D91838083DC
:101E5000CE18DF08B5CE8E819F81A885B9854A85C9
:101E60005B856C857D85481759076A077B0720F4D9
:101E70008A879B87AC87BD878C8180628C8380E05A
:101E800003C082E001C087E0DF91CF911F910F91E5
:101E9000FF90EF90DF90CF90BF90AF909F908F908A
:101EA0007F906F905F904F903F902F9008950F9389
:101EB0001F93CF93DF93EC010E94D002811136C0B3
:101EC0009C8195FF33C04A8D5B8D6C8D7D8D8881A3
:101ED00099810E949802811129C00E8D1F8DF801F1
:101EE0008385806283878A859B85AC85BD85848F49
:101EF000958FA68FB78F4E855F8568897989C801D0
:101F00000E9432010E946500F801668B778B808FFA
:101F1000918F138A128A8C818F7D8C83E881F9815D
:101F200081E08483888199810E949705DF91CF9118
:101F30001F910F910895CF93DF93EC01B8DF8111CA
:101F400002C019821882DF91CF91089523B10197C1
:101F5000E9F70895FC01CF01019620812EBD0DB453
:101F600007FEFDCF61507109FC01A9F70895FC013E
:101F700001C0F9011EBC0DB407FEFDCF8EB59F0157
:101F80002F5F3F4F80836150710999F708950F9338
:101F90001F93CF93DF931F92CDB7DEB708E813E10D
:101FA0000115110571F061E070E0CE010196DFDFEF
:101FB00089818F3F31F084E690E0C8DF015011093C
:101FC000EFCF012B19F081E090E002C080E090E0BB
:101FD0000F90DF91CF911F910F91089585B182608D
:101FE00085B90895CF93DF9385B18D7F85B9CFDF14
:101FF000EC01892B11F4F2DF02C0C1E0D0E0CE0188
:10200000DF91CF910895CF92DF92EF92FF920F93DD
:102010001F93CF93DF9300D0CDB7DEB77C016B0168
:1020200008EE13E00115110571F061E070E0CE01DA
:1020300001969DDF89818F3F31F484E690E086DF51
:1020400001501109EFCF89818E3F59F4B601C701C4
:102050008EDF62E070E0CE01019689DF81E090E0E2
:1020600002C080E090E00F900F90DF91CF911F9120
:102070000F91FF90EF90DF90CF900895EF92FF9235
:102080001F93CF93DF9300D0CDB7DEB77C01162F1F
:102090007EDF009711F1198361E070E0CE010196B7
:1020A00059DF1D3FA9F060E072E0C70153DF62E035
:1020B00070E0CE0101965BDF61E070E0CE01019639
:1020C00056DF89818F71853031F080E090E005C066
:1020D00081E090E002C081E090E00F900F90DF91EE
:1020E000CF911F91FF90EF900895DF92EF92FF92B2
:1020F0000F931F93CF93DF93CDB7DEB727970FB61C
:10210000F894DEBF0FBECDBF182F042FF52EE62E9C
:10211000D72E882344F41F7740E050E0BA0187E3CC
:10212000E4DF8230A0F55ADF5DDF892B79F1812F62
:1021300080648A83DB82EC82FD820E83112311F09E
:1021400081E001C085E9183009F487E88F8366E0F3
:1021500070E0CE010296FEDE1C3029F461E070E0F2
:10216000CE01019604DF1AE061E070E0CE01019635
:10217000FEDE8981882324F4115021F091E003C010
:1021800090E001C090E09111EFCF01C08FEF279652
:102190000FB6F894DEBF0FBECDBFDF91CF911F9178
:1021A0000F91FF90EF90DF90089584B1826084B921
:1021B00085B1826085B984B1806A84B981ED8CBDB6
:1021C00085B18B7F85B984E88EBD0DB407FEFDCF48
:1021D00087E98EBD0DB407FEFDCF85B1846085B95A
:1021E00085B18B7F85B91EBC0DB407FEFDCF1EBC2B
:1021F0000DB407FEFDCF9EB585B1846085B99739D2
:1022000019F48BB180618BB90895811103C080915D
:102210000601089581E00895EF92FF920F931F93B6
:10222000CF93DF9300D000D0CDB7DEB78111AAC025
:1022300080E197E28BDEB9DF1AE0112339F061E02B
:1022400070E0CE01019693DE1150F7CF40E050E0F0
:10225000BA0180E04ADF813009F07DC04AEA51E0EE
:1022600060E070E088E041DF813009F03EC064E06A
:1022700070E0CE0101967BDE8B81813009F06DC06C
:102280008C818A3A09F06BC008EE13E00115110544
:1022900071F040E050E060E070E489EA26DF8823D6
:1022A00031F088EE93E052DE01501109EFCF012B9F
:1022B00049F040E050E0BA018AE317DF811104C021
:1022C00081E003C080E001C080E0882309F449C0B8
:1022D00064E070E0CE0101964ADE898186FF43C04A
:1022E0000F2EFCE0FF2EF02D43C040E050E0BA017D
:1022F00089EAFBDE823040F40F2EF9EAEF2EF02D52
:102300006894FF24F1F804C0EE24E394FF24F394CE
:1023100008EE13E00115110569F040E050E0BA0144
:102320008E2DE3DE882331F088EE93E00FDE01503E
:102330001109F0CF012B49F040E052E060E070E07D
:1023400080E1D3DE811103C003C081E001C081E0E0
:1023500081110DC00DC0F12C0BC0F12C09C0F12C66
:1023600007C0F12C05C06894FF24F2F801C0F12CDD
:10237000F092F01011E0F11010E0109306012EDE43
:10238000812F01C083E00F900F900F900F90DF918D
:10239000CF911F910F91FF90EF900895CF92DF9210
:1023A000EF92FF920F93CF93DF93EB0169017A01D4
:1023B0002CDF80FD3EC08091F01083FD09C00B2E04
:1023C000B9E0CC0CDD1CEE1CFF1CBA95D1F7B02D8A
:1023D0000130A1F4B701A60181E187DE811108C0B7
:1023E00060E072E0CE010FDE892B21F081E003C0B6
:1023F00080E001C080E0811116C016C0B701A601BF
:1024000082E173DE811110C060E072E0CE01FBDD7D
:10241000892B19F0DE5F0150B9F740E050E0BA01B6
:102420008CE063DE01C000E0D9DD002321F081E013
:1024300003C083E001C080E0DF91CF910F91FF9056
:10244000EF90DF90CF900895CF92DF92EF92FF92BE
:102450000F93CF93DF93EB0169017A01D6DE80FD04
:1024600047C08091F01083FD09C00B2EB9E0CC0C61
:10247000DD1CEE1CFF1CBA95D1F7B02D013099F48C
:10248000B701A60188E131DE811107C06EEFCE01F0
:10249000F5DD892B21F081E003C080E001C080E000
:1024A00081111EC020C0867031F0402F50E060E0E6
:1024B00070E087E91ADEB701A60189E116DE811115
:1024C00012C06CEFCE01DADD892B19F0DE5F01500E
:1024D000C1F76DEF80E090E0D1DD892B19F003C0EA
:1024E00000E001C001E07ADD002321F081E003C0BB
:1024F00083E001C080E0DF91CF910F91FF90EF90DA
:10250000DF90CF900895EF92FF921F93CF93DF93C8
:10251000CDB7DEB760970FB6F894DEBF0FBECDBF64
:10252000162F7A0172DE80FDA9C0113059F020F01B
:10253000133009F490C09AC055DD892B09F098C07A
:1025400011E099C040E050E0BA0189E0CEDD811190
:1025500009C060E170E0CE01019655DD892B21F0C4
:1025600081E003C080E001C080E0882309F482C0DC
:10257000898190E0082E892F000C881F990B000C90
:10258000881F991F019731F58A85298530E0322F00
:102590002227280F311D88858F7390E0A0E0B0E0DE
:1025A000DC0199278827820F931FA11DB11D019679
:1025B000A11DB11D072E7AE0880F991FAA1FBB1F0E
:1025C0007A95D1F7702DF70180839183A283B3832D
:1025D00010E051C08E812B859A85382F3F70822F55
:1025E000881F8827881F830F9370990F890F42E0F7
:1025F000480F898590E0BC01062E672F000C661FEE
:10260000770B000C661F771F288530E0C901880F03
:10261000991F880F991F860F971F2F81237030E015
:10262000322F2227330F330F820F931F0196A0E022
:10263000B0E0242F30E02950310904C0880F991FE1
:10264000AA1FBB1F2A95D2F7F70180839183A2832B
:10265000B38310E010C080E890E0A0E0B0E0F701A4
:1026600080839183A283B38310E005C014E003C08C
:1026700010E001C011E0B2DC812F01C083E0609660
:102680000FB6F894DEBF0FBECDBFDF91CF911F9183
:10269000FF90EF900895A1E21A2EAA1BBB1BFD012B
:1026A0000DC0AA1FBB1FEE1FFF1FA217B307E40731
:1026B000F50720F0A21BB30BE40BF50B661F771F89
:1026C000881F991F1A9469F7609570958095909569
:1026D0009B01AC01BD01CF01089509D0A59F900DCC
:1026E000B49F900DA49F800D911D11240895A29F69
:1026F000B001B39FC001A39F700D811D1124911DD6
:10270000B29F700D811D1124911D08950F931F9389
:10271000CF93DF938230910510F482E090E0E09156
:10272000F310F091F41020E030E0A0E0B0E030973A
:1027300019F1408151810281138148175907C8F06E
:102740008417950769F4109731F012960C9312973D
:1027500013961C9327C00093F3101093F41022C01B
:102760002115310519F04217530718F49A01BD01DC
:10277000EF01DF01F801DBCF21153105F9F0281B4E
:10278000390B2430310580F48A819B8161157105F4
:1027900021F0FB019383828304C09093F410809313
:1027A000F310FE01329644C0FE01E20FF31F819345
:1027B000919322503109398328833AC02091F11036
:1027C0003091F210232B41F420910201309103014A
:1027D0003093F2102093F11020910001309101010B
:1027E0002115310541F42DB73EB7409104015091B8
:1027F0000501241B350BE091F110F091F210E21766
:10280000F307A0F42E1B3F0B2817390778F0AC0113
:102810004E5F5F4F2417350748F04E0F5F1F5093F0
:10282000F2104093F1108193919302C0E0E0F0E048
:10283000CF01DF91CF911F910F910895CF93DF9337
:10284000009709F481C0FC01329713821282A09193
:10285000F310B091F410109781F420813181820F30
:10286000931F2091F1103091F2102817390751F57C
:10287000F093F210E093F11067C0ED0120E030E03A
:10288000CE17DF0740F44A815B819E014115510557
:10289000F1F0EA01F5CFD383C28340815181840FE7
:1028A000951FC817D90759F488819981840F951FFE
:1028B0000296918380838A819B81938382832115F1
:1028C000310529F4F093F410E093F3103DC0E901D1
:1028D000FB83EA8349915991C40FD51FEC17FD077B
:1028E00061F480819181840F951F0296E90199839B
:1028F0008883828193819B838A83E0E0F0E0129653
:102900008D919C911397009719F0FD01DC01F7CF91
:102910008D919C9111979D012E5F3F4F820F931FC8
:102920002091F1103091F2102817390769F430978F
:1029300029F41092F4101092F31002C01382128244
:10294000B093F210A093F110DF91CF910895F89415
:02295000FFCFB7
:102952000000F510200001FFD8FFE000104A4649B0
:102962004600010101006000600000FFDB008400FE
:102972000503040404030504040405050506070C05
:1029820008070707070F0B0B090C110F1212110F83
:10299200111113161C1713141A1511111821181AD4
:1029A2001D1D1F1F1F13172224221E241C1E1F1E43
:1029B200010505050706070E08080E1E1411141E50
:1029C2001E1E1E1E1E1E1E1E1E1E1E1E1E1E1E1E25
:1029D2001E1E1E1E1E1E1E1E1E1E1E1E1E1E1E1E15
:1029E2001E1E1E1E1E1E1E1E1E1E1E1E1E1E1E1E05
:1029F2001EFFC200110800600060030122000211E4
:102A020001031101FFC400330000020301010101AF
:102A12000000000000000000000607040508030093
:102A22000902010003010101000000000000000092
:102A3200000000030405020601FFDA000C03010096
:102A42000210031000000015E4036DCA750EC2E403
:102A5200BBD37E57D22F106EA9A6CB728C838B620A
:102A62002EC8A372F7AE9A8B067DC918C6D1B70AD3
:102A7200F2EB5228CBB86EAF6E1BDA4A927F3E2938
:102A8200FE862C573658D33981B8A1B40B3564CEA3
:102A9200F4290EF56CDB7355EAB7757CEA8465019F
:102AA200966BB7702F594EAB4BDAD75558326ACF67
:102AB2005B32A8C8C70D3CC64A6DB80B96468BB2AE
:102AC200D989452747E258B7B75198D4F0A925329A
:102AD200C8642E989D073589FF0041840078E0D0B4
:102AE2001823D2B65D597E29F1A453EB3F2A731203
:102AF200A483AD361AAC2003DAB0314761EEDD5162
:102B0200E15374A262568C6DE6DD29C958A0CB9EB2
:102B12000832ACFEC02597C6DAD138C2F31AFFC418
:102B2200002C10000105000104010401030500004E
:102B32000000000301020405060700111213210818
:102B4200142232151641422324253133FFDA0008BC
:102B5200010100010C00B4ADB996BE02709ACCEE30
:102B62007EC60D9364482315A19D19EC41FB1BE51C
:102B72005571152B7C1CAE55CFDAC76B0BF89153F0
:102B820061CA99BCF487443BCA79551CC74CC53C01
:102B9200B3564BEF99DA53E88C58F5AA574983F7A5
:102BA200433395F5D2FB6886D2DACD2A31CDEB8953
:102BB2001112B9C9FDDBFAA75676B6A92CBE130EBF
:102BC200D4C112DA7DD314F30CE14714A85A9573D9
:102BD2008BE40CC080FA942386CEDCC7C9D268E2AB
:102BE200CAA9A120D8E7DC98D255C5EE572DD884C2
:102BF20031474542BE2EC9609525C3570A5FD3D7D8
:102C02003147D47DAE6AFD5A963C8ED54D3D8B5AE6
:102C1200DECBC5289FC7AFC7CB7F54EAC38EEE4A2F
:102C2200573D9E235CEE52DEA65B0C57B15936BA75
:102C320071AF124B66B1A3E4ED9968F8F015B08F4D
:102C4200EA937C743B04C0B94AB57C4FB9B080B3F7
:102C5200474A5188F8ED5025BE32D34BF64C8336A5
:102C62000C9FB69B18A02D64E9F0ECA09AB0A409C1
:102C720083A766B61ADDAB3D7238A57BD7BBA4FD30
:102C820013AB0504D08911AA8D7C10B7F2ECBD5AA2
:102C9200660069449BEE735799A5FACF022BDC8E2E
:102CA20067D37F19B278A3EAAF41E68488D41A3198
:102CB200068892A862388A47C76ABB9830306F2B61
:102CC200092191DAC9483743B5703CDE3EB884C465
:102CD2006ACF1B95147C52A8B09FDBA6FEA9D452E2
:102CE200B558D6348D5EA423BD2AAABF12BC5F1587
:102CF200ED577875A4A36E9B95B3B9D7395C06EAF4
:102D0200FF00A7D16255E7244E8791D841D14542B1
:102D120024434426C77359420571A1CB94A1DC57C1
:102D2200DB95823D258411FD45E0E3D4185A8AB42F
:102D32006B63F10BBDB22CD11157AE264ED5EF45C8
:102D420045456FEA9D5F664102D2A9D025940E9156
:102D52008985FC595E29446BF534408F9B49633B5E
:102D62009170F958469B8DD487BACCDAF1BDA5A4EF
:102D7200B9066CEB078F8A3044CB908F9077BFAD4A
:102D8200D642D6CEF492845312367F1FB985608F15
:102D9200159CA344E67AC912F8B654222238F93CAB
:102DA2004D665B0F1E405EC91338C93F191DBE1325
:102DB200FC53AF5BA25D8E63EE7F181A9952AAFD97
:102DC20002B32BC5A5B223E9D4522413D7C46E7A19
:102DD200666988D4450D9689AC1B01193CE441D142
:102DE2000A294F16705E270F4CC9360D2438921AE5
:102DF200D1DAC6970DA512A2B79148B26302B84DB7
:102E0200421764A9515B5F56E7A3DFC5AE42422178
:102E120053FEBFC53AD2218B38AAD7BBAE3BBD9772
:102E22005E71457915CCDCC947533BB393BF12CFD2
:102E32005818B8077B97D1AA8D616115B2F3524237
:102E420009F5D05F2EB05F7B652564EB1F635825C3
:102E520005095664FA4FB88F58D9168A364BD9DE0F
:102E6200BA111D611D5AF3CFB79D7CE4B19FEBF6F9
:102E7200715B3B52B57AFEC9D1A92A0921E424C665
:102E8200A3ABB33023D80A4BA4B512DC359202E0CF
:102E9200C89BE3D631D063E1CF1CAE6AD6F10F27CF
:102EA2004765BC7ABB790FFB4345853DCA68D3C8E9
:102EB200D59AB06B84E7CDB3451E9F94DB2CF20903
:102EC2000FC962C2B8358E9BFA76C068BD004D0C40
:102ED2005F5A27C7162FFC2A74ABF09D599C8DB1FF
:102EE2003765F8AFB1359CC87180DEFD69EA98DAC2
:102EF200B71DADEE5D35FCE1E5859A0195B1F0D9DE
:102F0200A87B1E23AF011DE99918FC999672C05B3C
:102F12003294162FE44D215C233CA402E7D9998B0D
:102F2200FCCE8E5A19F5161352C9D726739B2A9EC8
:102F3200CE25A570CCC20DA6E326AB6993E3A55FAF
:102F420084EA651D1FBDEF348FF5204883522F1888
:102F52000A302ECB5F7053AC7058901063C97585E0
:102F620072CCF273DDF4B6D8D2F252E117BABCF9E0
:102F72005111AAA865ED77571AAA194E72B182D8D3
:102F82005D9357A65945334158DAE46FE8DEEDB058
:102F9200FF006F4E3135AAEEB8679226D393F8EB55
:102FA200971265750DFD45EC6F7D54E149414EF672
:102FB20037FF003F62B1549F3EB54EB43552E71D14
:102FC2003B78FACF1A6D3BFCC247353E98F571ABA0
:102FD200B7A282556805C89B8CBE22BFEE2F6CC675
:102FE20012724F29697676B215B2490AA9E92A61A5
:102FF200511E4219F512F435088919EE70A15D1EB1
:10300200DA3B027AE7C52D7B900EFC9A8E4A4BB9C9
:1030120034F3072A0CD24691FFC400331000020198
:10302200030204040405040300000000000102116D
:10303200000321123104224151136171814291A195
:10304200B1103252C1F0052333826272E1FFDA001D
:10305200080101000D3F00E9CD43786A1D01CD054D
:10306200E8A68B9D94D2896B56C657D4F4AB8D8556
:1030720052B318EF19C8C5249361961E3BC7514637
:103082007E0AD5B30822BC4351418C4350C10CC6C1
:103092000D3ECA7A1A293247955CB855AFDB2095A6
:1030A200004F291B19FB55C12ECE773D7EB5218BD2
:1030B2000C0C6008F41F41566F4DABCAC43000F7C8
:1030C200157D9ACF0BC49022EB05D415BB18C03DD9
:1030D200686991EC2BC43514C646B3FB5010C16924
:1030E2005A74135C69F09DC608B607341E93813585
:1030F200731A021DE76FAD05D4A2E908CC3C81A585
:10310200EC9FBD0F82E2C1AE16E8B8B714C15706F4
:10311200669ED22710920C5C5500911D0EE2BC43B4
:10312200514B9004003D00AF5A06400C6AD7053659
:10313200E7B99CFB903E55AB5707618600FD46A25E
:1031420036A8C18AB4A74B01923B525CD300F9C5A1
:103152003D957F5CE0FD6BC43F8769A028F58ABD81
:10316200A3C68DD91753B7D01F9D70EBE1816404BC
:103172002BA706351008AEB66FC6A1F2A9D21787E3
:10318200B7A9A6AE6EFC426981DE04D5EBA2D712C6
:10319200AA3127661F6A5B36C20EC0E6BC5322A262
:1031A200B8924DD176E165C0C0031DEAD5BD5AD8AB
:1031B200821B6C9F9F4A6B05DF5C46A009C796285D
:1031C200DBBF62E19995F0EEC1F220C8F7ABE142B4
:1031D20025ABE105A83381119EB3342C8508D73580
:1031E200C102249EA4C49F335F98594689FE6F5A38
:1031F200A5EDF196832E981CA39B1FFB572ED95148
:10320200E475802B89B88D7AF8F8B7851D80076A36
:10321200F17F615156DB9519A40F6A29A5915CE9EA
:1032220023B4500428662401E5DAB86BF7EDC9121D
:103232004CA8607EA6AE8E451DBB9EC291045D2643
:1032420056E1EB156988B9AC4075F2A3D3620F62FF
:103252002B88E22D940760158319F952B9E21F4EAB
:103262000019023CB27E54D74FE1ABF55398C9C85E
:10327200A293F4A0E03C9C0D4201F9C0A109E25DD9
:103282005D4A1412723DEA00BEB76C290AD898EE64
:10329200378A73CB6EEF0FA6D81224B3032064EDE6
:1032A2003B55E00BA5B2744A8C9CFF00302B865034
:1032B200F6C389504B0500FA89346DAA85B6B0AAC7
:1032C200A3A0F9D1B87EF514C769A0DCBE74134C73
:1032D2004D0B0C2E5D67D21563F34F48EF5C6071A6
:1032E200C1F1775748BC15CAAB1EDAB4B7B8A1D141
:1032F20018447A52E58BE9598EA6050616ED623519
:10330200662455EE0D38B67D47525C248543FEB9DE
:103312001EB4A22BC43F7FC039FBD5B61A88A29F28
:103322005AB56C35F08603B79F715C135E4B17D3A9
:10333200F321F118C7A6D8A41A6DB986911899CCB1
:103342005414E7E548F3033F3AB506CF0EA6433FD0
:10335200411D735C4DD1758CE40F847B55C106DC35
:10336200E4B0DE075AF10FE0589281B23D7B513250
:1033720058658FB9148DA6F5C36D4EB6FD2A23315B
:10338200F7A2EC973191D898DB11B62ACF18E0C793
:10339200490089AE82AD2977B8E60280264D5AB936
:1033A200E1F0C2E3040477CF53BD1123D28F10A4FE
:1033B20080608E56C83DE89E5B840376D7BFC5EF1A
:1033C20040732830EBEAA7228EEC9714D7FCA3F6C1
:1033D200A5D80DE9C43A91861E75FD53FB17AD932E
:1033E2000BAF7B6C3DF97FDA9D66D70D6F9AF5DFE7
:1033F200FAA8E9E66079D168B3C121E50A0E0BFEAD
:10340200A6FE0AD84998F4ED40FF0085F993E5D36A
:10341200DA291B5179942208C4E41CD30823BD5A2B
:1034220069561B47F3DB35FFC40029110002010373
:103432000303030403000000000000000102030074
:1034420004110512211334413151611422237132C6
:10345200A1C1FFDA0008010201013F00944C53733D
:1034620035759E78B208E2ACEC5D90190F14FA4CF7
:10347200654ED3835A8D935B28DC735A4F6CB5AA81
:1034820040F7237A854007A01FDD5B5A491BAEE255
:10349200314D73924278A37CF1B7E40315ADC6B205
:1034A20041BBC8E6B48ED5680B89A3652E323E2A8D
:1034B200E239A064DE73914BD45000A795E4425ADE
:1034C200AE6E07D1943EBFE715A476AB5134914658
:1034D200497E31ED53C8C1D373678A532B9C834114
:1034E200E48F2A6AF9808F27D4D691DA27EA896392
:1034F20011CB78AB4D2E7BA28771C01CFC5168E3C7
:10350200253D8F9A93A59C6EC93E0735AD69D2A41D
:103512004B281C79F8AD23B44FD55969505B818E85
:103522004FB9A31BC4C481F6D5FD81329239CF3580
:10353200A6E9896EDD46196F1F14A858E08A974FD5
:1035420051FC062BFFC400291100020103020504ED
:103552000203000000000000000102030004110544
:10356200211222314171133451A114612391B1FF0F
:10357200DA0008010301013F008A1B60F85534E9B3
:10358200146E460EFF00BABABB8D5B0A37A5BDC1E9
:10359200E6AD32E049290076AD5BDD354379019035
:1035A200721CF9AB8962646E10739A4B2538697B81
:1035B200D1D2E2917F898E7F75A33149F84F7DABDD
:1035C20056F74D467B68E504467FBA86486E11B8C9
:1035D20006306992160589FBA5B748C8E13F750C0C
:1035E20007F284A3A77F35AA9CDCB1A6F424900F2E
:1035F2004F7CFCD204E160AB8DE9628426E36FBAB2
:103602009A18D806031567CCDC1D86F5AB0C5D3025
:10361200A1162404277A9E748C372EF9A8C48C151F
:10362200FE40E941A56DF1803B9DAB4BB842EC0FEA
:1036320053D3C56AFEE9FCD4B74D21A92470E4B77F
:103642004AB4BEE18860E3157DAB35C0F4D3A7FB75
:1036520051DC2B8C1183524425DC9DEBFFD9696D23
:103662006167652E6A706700222A2B2C3A3B3C3D2B
:103672003E3F5B5D7C7F00222A2B2C2E3A3B3C3D59
:103682003E3F5B5D7C7F00809A90418E418F8045FA
:1036920045454949498E8F9092924F994F555559B8
:1036A200999A9B9C9D9E9F41494F55A5A5A6A7A867
:1036B200A9AAABAC21AEAFB0B1B2B3B4B5B6B7B88C
:1036C200B9BABBBCBDBEBFC0C1C2C3C4C5C6C7C8F0
:1036D200C9CACBCCCDCECFD0D1D2D3D4D5D6D7D8E0
:1036E200D9DADBDCDDDEDFE0E1E2E3E4E5E6E7E8D0
:1036F200E9EAEBECEDEEEFF0F1F2F3F4F5F6F7F8C0
:08370200F9FAFBFCFDFEFF00DB
:00000001FF
