:1000000045C0000053C0000051C000004FC00000B8
:100010004DC000004BC0000049C0000047C00000B8
:1000200045C0000043C0000041C000003FC00000C8
:100030003DC000003BC0000039C0000037C00000D8
:1000400035C0000033C0000031C0000057C00000C0
:100050002DC000002BC0000029C0000027C00000F8
:1000600025C0000023C0000021C000001FC0000008
:100070001DC000001BC0000019C0000017C0000018
:1000800015C0000013C0000011C0000011241FBEE5
:10009000CFEFD0E4DEBFCDBF21E0A0E0B1E001C0F2
:1000A0001D92A638B207E1F719D08AC0A9CF2A98C5
:1000B0008EBD0DB407FEFDCF1EBC0DB407FEFDCFF7
:1000C0008EB52A9A08952A988EBD0DB407FEFDCFED
:1000D0006EBD0DB407FEFDCF2A9A0895509A589828
:1000E00064E080E05BD067E980E8EDDF80E0DFDF9F
:1000F000873909F4589A80E090E008951F920F9292
:100100000FB60F9211240BB60F922F933F938F933C
:100110009F93EF93FF938091030190E001968F737B
:1001200099272091020130E08217930739F08093DC
:1001300003012EB5FC01EA5FFE4F2083909105017B
:1001400080910401981771F08091040190E001966C
:100150008F73992780930401FC01EA5BFE4F808135
:100160008EBD0FC080910001882339F0809100017D
:100170008150809300011EBC04C02C9A81E08093C2
:100180000101FF91EF919F918F913F912F910F90DE
:100190000BBE0F900FBE0F901F901895249A2C9AAB
:1001A000229A2A9A91E09093010194B1906A94B9AD
:1001B00024E0829FC0011124606D862B8CBD0895C0
:0401C000F894FFCFE1
:00000001FF
