:1000000045C0000062C0000060C000005EC000008B
:100010005CC000005AC0000058C0000056C000007C
:1000200054C0000052C0000050C000004EC000008C
:100030004CC000004AC0000048C0000046C000009C
:1000400044C0000042C0000040C000003EC00000AC
:100050003CC000003AC0000038C0000036C00000BC
:1000600034C0000032C0000030C000002EC00000CC
:100070002CC000002AC0000028C0000026C00000DC
:1000800024C0000022C0000020C0000011241FBEB8
:10009000CFEFD0E4DEBFCDBF11E0A0E0B1E0E2E5FC
:1000A000F8E400E00BBF02C007900D92A23BB1073D
:1000B000D9F723E0A2EBB1E001C01D92AF3EB20739
:1000C000E1F70E94A20D0C9427249ACF60EC73EA0A
:1000D00082E093E4089594B1906194B995B19061F0
:1000E00095B994B1946094B995B1946095B994B16F
:1000F000906A94B990E0880F991F880F991F862BFA
:10010000806D8CBD089595B19B7F95B98EBD0DB462
:1001100007FEFDCF1EBC0DB407FEFDCF8EB595B119
:10012000946095B9089595B19B7F95B98EBD0DB436
:1001300007FEFDCF6EBD0DB407FEFDCF85B1846017
:1001400085B9089561E084E8EEDF61E084E8EBDFE3
:1001500060E184E8E8DF60E284E8E5DF2FE38DE03A
:1001600093E0215080409040E1F700C0000062E041
:1001700084E8D9DF81E4C7DF83FFFCCF83EC99E01B
:100180000197F1F700C0000008951092B9008CE0CB
:100190008093B800089594EA9093BC009091BC00BD
:1001A0009923E4F79091B900987F983011F090313D
:1001B00091F48093BB0084E88093BC008091BC00E4
:1001C0008823E4F78091B900887F883131F080344A
:1001D00031F480E0089581E0089580E0089581E0A1
:1001E00008958093BB0084E88093BC008091BC009C
:1001F0008823E4F78091B900887F883211F081E08C
:10020000089580E008951F93CF93DF93182FD62F82
:10021000C42F88E7C0DF812FE4DF8D2FE2DF8C2F32
:10022000E0DFDF91CF911F910895CF93DF93D82F17
:10023000C62F69DF682F6C2B8D2F806874DFDF91EC
:10024000CF91089543E963E081E3DDDF42E868E0B0
:1002500080E3D9DF4FE767E180E3D5DF4CEF68E16A
:1002600080E3D1DF42EC60E188E3CDDF40EF65E180
:1002700086E3C9DF40E060E080E3C5DF40E061E0A5
:1002800080E3C1DF4CE562E080E3BDDF40E063E096
:1002900080E3B9DF4FEF64E080E3B5DF4FEF65E067
:1002A00080E3B1DF43E466E080E3ADDF47E367E08E
:1002B00080E3A9DF48E061E180E3A5DF40E160E1A0
:1002C00080E3A1DF42E26CE086E49DDF44E065E18B
:1002D00088E399DF40EA6CE087E395DF4CEF62E06A
:1002E00086E391DF4FEF62E186E38DDF40EC64E36C
:1002F00086E389DF40E063E186E385DF4CE765E084
:1003000086E381DF49E061E286E37DDF40E662E289
:1003100086E379DF40E464E086E375DF47EA63E083
:1003200086E371DF47E263E086E36DDF41E260E090
:1003300080E469DF42E26DE180E465DF44E560E08E
:1003400086E361DF44E065E086E35DDF4FE366E07E
:1003500086E359DF40E861E08CE355DF4FE460E07D
:1003600080E551DF44E060E280E54DDF49E761E888
:1003700081E549DF40E062E881E545DF42E265E88A
:1003800081E541DF41E067E981E53DDF4FEF61E075
:1003900080E539DF4AE060E085E535DF40E064E094
:1003A00085E531DF4FE765E085E52DDF48E060E872
:1003B00080E529DF48E16EE080E325DF40E060E191
:1003C00086E421DF45E06DE187E41DDF46E068E07B
:1003D00087E419DF42E068E088E315DF40E869E080
:1003E00088E311DF41E06AE088E30DDF40EE6BE077
:1003F00088E309DF47E06EE088E305DF40ED6FE06A
:1004000088E301DF40E06FE180E5FDDE4FE460E07E
:1004100080E5F9DE40E360E083E4F5DE47E063E099
:1004200085E3F1DE43E761E085E3EDDE40E862E08D
:1004300085E3E9DE40E06BE085E3E5DE47E063E08D
:1004400085E3E1DE41E164E288E3DDDE4EE161E087
:1004500085E3D9DE40E862E085E3D5DE4FE76BE077
:1004600085E3D1DE4CE06CE088E3CDDE40E86DE072
:1004700088E3C9DE43E06EE088E3C5DE48EE6FE066
:1004800088E3C1DE44E06DE08AE3BDDE43E06EE078
:100490008AE3B9DE41EC68E188E3B5DE4BED65E067
:1004A00087E3B1DE41E86AE087E3ADDE40E861E082
:1004B00088E3A9DE47E861E286E3A5DE40E561E086
:1004C00088E3A1DE48E063E088E39DDE48E067E280
:1004D00088E399DE40E460E188E395DE45E064E08E
:1004E00088E391DE40E065E088E38DDE45E062E888
:1004F00086E589DE40E063E886E585DE43E066E088
:1005000088E381DE40EC67E088E37DDE43E066E877
:1005100086E579DE4CEB67E886E575DE48E760E066
:100520008AE371DE45E06AE18AE36DDE40E363E180
:100530008AE369DE40E068E18AE365DE4CE769E171
:100540008AE361DE42E168E08AE35DDE40EC69E077
:100550008AE359DE4FE06AE08AE355DE40EA6BE069
:100560008AE351DE47E06CE085E34DDE40ED6DE06F
:1005700085E349DE40E060E085E345DE40E061E0A0
:1005800085E341DE40E062E085E33DDE40E06AE095
:1005900085E339DE40E06BE085E335DE40E063E093
:1005A00085E331DE42E06AE882E52DDE44E06BE877
:1005B00082E529DE48E06CE882E525DE48E06DE86A
:1005C00082E521DE48E06EE882E51DDE40E16FE86D
:1005D00082E519DE40E160E982E515DE40E062E98E
:1005E00082E511DE42E063E982E50DDE40E064E988
:1005F00082E509DE42E065E982E505DE40E066E984
:1006000082E501DE42E067E982E5FDDD40E068E980
:1006100082E5F9DD42E069E982E5F5DD40E06AE97D
:1006200082E5F1DD42E06BE982E5EDDD40E06CE979
:1006300082E5E9DD42E06DE982E5E5DD40E06EE975
:1006400082E5E1DD42E06FE982E5DDDD4BE060E37C
:1006500080E3D9DD40E062E08AE3D5DD4DE763E089
:100660008AE3D1DD40E064E08AE3CDDD40E064E18F
:100670008AE3C9DD4DE765E18AE3C5DD40E066E177
:100680008AE3C1DD48E760E08AE3BDDD49E068E078
:100690008AE3B9DD40E669E08AE3B5DD47E06AE078
:1006A0008AE3B1DD40ED6BE08AE3ADDD48E06DE06B
:1006B0008AE3A9DD46E06EE08AE3A5DD40E763E971
:1006C00081E5A1DD44E06BE988E59DDD45EC6AE963
:1006D00088E599DD40E26EE180E495DD42E461E089
:1006E00080E491DD44E06CE180E48DDD41E06AE886
:1006F00082E589DD44E06BE882E585DD48E06CE871
:1007000082E581DD40E16DE882E57DDD40E26EE875
:1007100082E579DD48E26FE882E575DD40E360E976
:1007200082E571DD40E062E982E56DDD41E063E98B
:1007300082E569DD40E064E982E565DD44E065E984
:1007400082E561DD40E066E982E55DDD48E067E97C
:1007500082E559DD40E068E982E555DD40E169E97F
:1007600082E551DD40E06AE982E54DDD40E26BE97A
:1007700082E549DD40E06CE982E545DD48E26DE96E
:1007800082E541DD40E06EE982E53DDD40E36FE971
:1007900082E539DD40E062E882E535DD40E060E099
:1007A00083E531DD40E261E083E52DDD40E062E09C
:1007B00083E529DD4CE763E083E525DD40E06CE07F
:1007C00083E521DD4CE06DE083E51DDD40E26EE078
:1007D00083E519DD40E86FE083E515DD40E260E187
:1007E00083E511DD40E861E183E50DDD40E268E08D
:1007F00083E509DD40E469E083E505DD40E064E090
:1008000083E501DD40E365E083E5FDDC40E066E093
:1008100083E5F9DC40E867E083E5F5DC48E064E186
:1008200083E5F1DC40E265E183E5EDDC40E369E18D
:1008300083E5E9DC40E166E183E5E5DC40E067E192
:1008400083E5E1DC42E068E183E5DDDC4FE362E083
:1008500084E5D9DC40E063E084E5D5DC40E066E097
:1008600084E3D1DC4FEF60E881E5CDDC42E561E86F
:1008700081E5C9DC41E162E881E5C5DC44E163E88A
:1008800081E5C1DC45E264E881E5BDDC44E265E880
:1008900081E5B9DC46E066E881E5B5DC48E067E87B
:1008A00081E5B1DC48E068E881E5ADDC4CE769E86A
:1008B00081E5A9DC40E66AE881E5A5DC42EB6BE86E
:1008C00081E5A1DC42EB6CE881E59DDC44E46DE868
:1008D00081E599DC4DE36EE881E595DC48E56FE85C
:1008E00081E591DC46E460E981E58DDC48EF61E972
:1008F00081E589DC44E062E981E585DC40E763E984
:1009000081E581DC40EF64E981E57DDC40EF65E96C
:1009100081E579DC43E066E981E575DC41E067E982
:1009200081E571DC44E068E981E56DDC42E169E97B
:1009300081E569DC44E06AE981E565DC40E06BE97A
:1009400081E561DC46E06CE981E55DDC42E86DE96A
:1009500081E559DC40E06EE981E555DC40E865E27F
:1009600080E551DC40E463E885E54DDC40E464E883
:1009700085E549DC42E060E885E545DC4FEC60E078
:1009800080E541DC40E160E187E33DDC41E562E395
:1009900086E339DC40E162E087E335DC42EB63E08B
:1009A00087E331DC48E164E087E32DDC40E46BE081
:1009B00087E329DC43E06DE087E325DC41E061E388
:1009C00086E321DC42E562E386E31DDC44E266E087
:1009D00086E319DC46E960E286E315DC47E065E87A
:1009E00087E511DC40E363E18AE30DDC42E560E08A
:1009F00086E309DC48E464E086E305DC4BE166E07D
:100A000086E301DC4BE06DE087E3FDDB40EC6FE06B
:100A100087E3F9DB41E069E087E3F5DB40E063E28F
:100A200088E3F1DB40E067E080E5EDDB40E069E092
:100A300080E5E9DB40E061E180E5E5DB40E063E1A2
:100A400080E5E1DB40E06EE981E5DDDB40E066E882
:100A500080E5D9DB40E067E880E5D5DB40E068E889
:100A600080E5D1DB40E069E880E5CDDB40E06BE28A
:100A700080E3C9DB41E068E088E3C5DB40E469E08E
:100A800088E3C1DB40E06AE088E3BDDB40EF6BE078
:100A900088E3B9DB48E760E08AE3B5DB4FEF61E06C
:100AA00080E5B1DB40E563E885E5ADDB40E564E882
:100AB00085E5A9DB42E060E885E5A5DB40E861E08B
:100AC0008CE3A1DB44E060E08CE39DDB48E460E084
:100AD00088E599DB41E361E088E595DB41E262E08E
:100AE00088E591DB4BE163E088E58DDB4AE164E07A
:100AF00088E589DB4EE165E088E585DB49E266E073
:100B000088E581DB48E367E088E57DDB46E268E075
:100B100088E579DB47E169E088E575DB41E16AE07A
:100B200088E571DB4EE06BE088E56DDB4DE06CE065
:100B300088E569DB4EE06DE088E565DB43E16EE06A
:100B400088E561DB4AE16FE088E55DDB45E160E176
:100B500088E559DB4DE061E188E555DB48E062E17D
:100B600088E551DB45E063E188E54DDB44E064E185
:100B700088E549DB45E065E188E545DB49E066E17C
:100B800088E541DB4DE067E188E53DDB41E168E177
:100B900088E539DB4AE069E188E535DB44E06AE174
:100BA00088E531DB40E06BE188E52DDB40E06CE17E
:100BB00088E529DB41E06DE188E525DB46E06EE173
:100BC00088E521DB49E06FE188E51DDB42E160E279
:100BD00088E519DB4BE061E288E515DB44E062E281
:100BE00088E511DB40E063E288E50DDB40E064E28C
:100BF00088E509DB41E065E288E505DB46E066E281
:100C000088E501DB4AE067E288E5FDDA47E168E272
:100C100088E5F9DA4FE069E288E5F5DA49E06AE269
:100C200088E5F1DA46E06BE288E5EDDA45E06CE272
:100C300088E5E9DA46E06DE288E5E5DA4AE06EE269
:100C400088E5E1DA4EE06FE288E5DDDA48E260E36C
:100C500088E5D9DA4AE161E388E5D5DA41E162E382
:100C600088E5D1DA4EE063E388E5CDDA4EE064E36F
:100C700088E5C9DA4FE065E388E5C5DA45E166E372
:100C800088E5C1DA4DE167E388E5BDDA4EE668E361
:100C900088E5B9DA49E369E388E5B5DA47E26AE36A
:100CA00088E5B1DA4FE16BE388E5ADDA4EE16CE35C
:100CB00088E5A9DA43E26DE388E5A5DA4FE26EE361
:100CC00088E5A1DA41E46FE388E59DDA4EE060E46F
:100CD00088E599DA4CE061E488E595DA4DE062E474
:100CE00088E591DA4CE063E488E58DDA4CE064E471
:100CF00088E589DA4CE065E488E585DA4CE066E46D
:100D000088E581DA4CE067E488E57DDA4DE068E467
:100D100088E579DA4EE069E488E575DA4EE06AE460
:100D200088E571DA4AE06BE488E56DDA4EE06CE460
:100D300088E569DA4EE06DE488E565DA40E16EE465
:100D400088E561DA40E16FE488E55DDA41E160E57C
:100D500088E559DA4AE061E588E555DA4FE062E571
:100D600088E551DA4EE063E588E54DDA40E164E577
:100D700088E549DA40E165E588E545DA40E166E580
:100D800088E541DA4AE067E588E53DDA4EE068E566
:100D900088E539DA4EE069E588E535DA4FE06AE55D
:100DA00088E531DA4FE06BE588E52DDA4FE06CE558
:100DB00088E529DA4AE06DE588E525DA49E06EE55F
:100DC00088E521DA4DE06FE588E51DDA4CE060E664
:100DD00088E519DA4BE061E688E515DA4DE062E670
:100DE00088E511DA47E063E688E50DDA47E164E675
:100DF00088E509DA44E165E688E505DA48E166E672
:100E000088E501DA48E167E688E5FDD946E168E66C
:100E100088E5F9D942E169E688E5F5D94BE16AE66A
:100E200088E5F1D94AE16BE688E5EDD946E16CE663
:100E300088E5E9D946E16DE688E5E5D948E16EE661
:100E400088E5E1D94FE16FE688E5DDD94CE160E75F
:100E500088E5D9D946E161E788E5D5D940E162E77F
:100E600088E5D1D94FE063E788E5CDD943E164E770
:100E700088E5C9D94CE165E788E5C5D94EE166E763
:100E800088E5C1D947E167E788E5BDD941E168E771
:100E900088E5B9D941E169E788E5B5D944E16AE770
:100EA00088E5B1D94EE16BE788E5ADD94CE16CE757
:100EB00088E5A9D94CE16DE788E5A5D94AE16EE757
:100EC00088E5A1D94AE16FE788E59DD94BE160E863
:100ED00088E599D94FE161E888E595D944E162E870
:100EE00088E591D94AE163E888E58DD94DE164E868
:100EF00088E589D94EE165E888E585D94AE166E863
:100F000088E581D94AE167E888E57DD94FEF60E857
:100F100081E579D942E561E881E575D941E162E889
:100F200081E571D944E163E881E56DD945E264E882
:100F300081E569D944E265E881E565D944E166E87F
:100F400081E561D944E167E881E55DD944E168E87C
:100F500081E559D949E669E881E555D940E66AE86D
:100F600081E551D942EA6BE881E54DD94CE96CE85D
:100F700081E549D946E36DE881E545D944E36EE86A
:100F800081E541D944E56FE881E53DD94CE460E96C
:100F900081E539D948EF61E981E535D944E062E975
:100FA00081E531D940E763E981E52DD940EF64E976
:100FB00081E529D940EF65E981E525D943E066E976
:100FC00081E521D941E067E981E51DD945E068E97E
:100FD00081E519D94FE269E981E515D944E06AE96B
:100FE00081E511D940E06BE981E50DD946E06CE976
:100FF00081E509D940EA6DE981E505D940EA6EE964
:1010000081E501D940E06AE882E5FDD841E06BE87E
:1010100082E5F9D844E06CE882E5F5D848E06DE86F
:1010200082E5F1D840E16EE882E5EDD840E26FE874
:1010300082E5E9D840E360E982E5E5D840E062E98D
:1010400082E5E1D840E063E982E5DDD840E064E98B
:1010500082E5D9D841E065E982E5D5D840E066E986
:1010600082E5D1D844E067E982E5CDD840E068E97F
:1010700082E5C9D848E069E982E5C5D840E06AE977
:1010800082E5C1D840E16BE982E5BDD840E06CE97A
:1010900082E5B9D840E26DE982E5B5D840E06EE975
:1010A00082E5B1D840E36FE982E5ADD840E062E87F
:1010B00082E5A9D840E060E083E5A5D840E261E0A0
:1010C00083E5A1D840E062E083E59DD84CE763E08A
:1010D00083E599D840E06CE083E595D840E16DE088
:1010E00083E591D840E26EE083E58DD840E86FE07B
:1010F00083E589D840E260E183E585D840E861E195
:1011000083E581D840E268E083E57DD840E469E08A
:1011100083E579D840E064E083E575D840E365E095
:1011200083E571D840E066E083E56DD840E867E08C
:1011300083E569D848E064E183E565D840E265E18C
:1011400083E561D840E369E183E55DD840E166E18C
:1011500083E559D840E067E183E555D842E068E18E
:1011600083E551D841E060E883E54DD840E061E88F
:1011700083E549D840E062E883E545D84FE163E87C
:1011800083E541D840E064E883E53DD846E065E882
:1011900083E539D840E066E883E535D840E067E884
:1011A00083E531D840E068E883E52DD841EE69E871
:1011B00083E529D840E06AE883E525D84BE26BE86F
:1011C00083E521D840E06CE883E51DD840E06DE878
:1011D00083E519D840E06EE883E515D840E16FE873
:1011E00083E511D840E060E983E50DD843EB61E980
:1011F00083E509D840E062E983E505D846EA63E97A
:1012000083E501D848E064E983E50E9403014CE0EE
:1012100060E884E50E94030148E161E884E50E94FA
:1012200003014FE262E884E50E94030145E563E8BB
:1012300084E50E94030144E664E884E50E9403011A
:1012400041E765E884E50E9403014DE766E884E52F
:101250000E94030147E867E884E50E94030141E931
:1012600068E884E50E9403014AE969E884E50E9490
:1012700003014AEA6AE884E50E94030148EB6BE84F
:1012800084E50E9403014DEC6CE884E50E940301B3
:101290004DED6DE884E50E9403014AEE6EE884E5B9
:1012A0000E9403014DE16FE884E50E94030145E0DF
:1012B00060E984E50E94030140E061E984E50E9461
:1012C000030144E062E984E50E94030140E263E92E
:1012D00084E50E94030143E064E984E50E94030180
:1012E00040E665E984E50E94030142E066E984E5A1
:1012F0000E94030148EB67E984E50E94030142E094
:1013000068E984E50E94030146E869E984E50E94F2
:10131000030142E06AE984E50E9403014BE56BE9C1
:1013200084E50E94030142E06CE984E50E94030128
:101330004BE36DE984E50E94030142E06EE984E538
:101340000E9403014CE16FE984E50E94030142E041
:1013500060EA84E50E94030144E061EA84E50E94BA
:10136000030141E062EA84E50E9403014DEE63EA75
:1013700084E50E94030141E064EA84E50E940301E0
:1013800045EC65EA84E50E94030141E066EA84E5F4
:101390000E94030145EA67EA84E50E94030141E0F7
:1013A00068EA84E50E9403014CE669EA84E50E944C
:1013B000030141E06AEA84E50E94030141E46BEA2B
:1013C00084E50E94030141E06CEA84E50E94030188
:1013D00040E26DEA84E50E94030140E06EEA84E5A4
:1013E0000E94030146E16FEA84E50E94030141E0A7
:1013F00060EB84E50E94030140E261EB84E50E941A
:10140000030140E062EB84E50E94030140E163EBED
:1014100084E50E94030140E064EB84E50E9403013F
:1014200040EF65EB84E50E94030140E066EB84E554
:101430000E9403014FED67EB84E50E9403014FE337
:1014400062E084E50E94030140E063E084E50E94DD
:10145000030140E160E085E50E94030140E062E0B5
:1014600085E50E94030146E063E085E50E940301F3
:1014700040E064E085E50E9403014FE765E085E513
:101480000E94030140E865E280E50E94030140E319
:101490006FE08AE30E94030148E260E18AE30E9470
:1014A000030140E36BE18AE30E94030148E26EE13D
:1014B0008AE30E94030141E661E18AE30E9403019D
:1014C00040E16FE18AE30E9403014DEF68E886E5A1
:1014D0000E9403014FED69E886E50E9403014EEF8B
:1014E0006AE886E50E9403014FEE6BE886E50E94FC
:1014F00003014EEF6CE886E50E9403014FEE6DE8B4
:1015000086E50E9403014AEA6EE886E50E9403012F
:101510004AEA6FE886E50E9403014FEF6FEF8FEF15
:101520000C940301089547E063E085E30E94030102
:1015300040E060E080E30E94030140E061E080E37E
:101540000E94030140E062E080E30E94030140E06A
:1015500063E080E30E9403014FEF65E080E30E94B7
:1015600003014FEF66E080E30E9403014FE367E071
:1015700080E30E94030147E06CE085E30E940301E1
:1015800040ED6DE085E30E94030144EE62E086E3F6
:101590000E9403014CEA62E186E30E94030144E4F5
:1015A00063E186E30E94030147E261E286E30E9471
:1015B000030148E062E286E30E94030142E263E243
:1015C00086E30E94030140E664E086E30E94030193
:1015D0004AED65E087E30E94030140E86AE087E3A3
:1015E0000E9403014AE861E088E30E9403014AE0A7
:1015F00063E088E30E9403014AE064E088E30E941C
:10160000030140E265E088E30E94030147E066E0F1
:1016100088E30E94030148E967E088E30E94030130
:101620004AE068E088E30E94030140E269E088E361
:101630000E94030147E06AE088E30E94030148E951
:101640006BE088E30E9403014CE06CE088E30E94B9
:10165000030140E86DE088E30E94030147E06EE08B
:1016600088E30E94030140ED6FE088E30E940301DC
:1016700042EC60E188E30E94030144E465E188E311
:101680000E94030148EC68E188E30E94030141E005
:1016900064E288E30E9403014AE067E288E30E9473
:1016A000030148E760E08AE30E94030140E16DE046
:1016B0008AE30E9403014DE06EE08AE30E94030189
:1016C00042E360E18AE30E9403014CE36BE18AE3B9
:1016D0000E94030142E36EE18AE30E94030140E8B5
:1016E00061E18AE30E94030140E26FE18AE30E9424
:1016F000030148E760E08AE30E94030145E36BE0F1
:1017000086E40E94030140E06DE187E40E9403014A
:1017100043E063E187E40E94030140E56CE187E474
:101720000E9403014AE062E886E50E94030140E26C
:1017300063E886E50E94030147E066E886E50E94CB
:10174000030148E967E886E50E9403014FE461E090
:1017500080E50E94030140E06BE988E50E940301F7
:1017600040EC6AE988E50E94030144E067E084E414
:101770000E94030140E06BE988E50E94030140EC10
:101780006AE988E50E9403014CE062E080E30E9480
:10179000030140E062E080E30E94030140E063E077
:1017A00085E30E94030140E160E180E30E940301C0
:1017B00048E061E180E30E9403014FEF60E080E5D3
:1017C0000E9403014FEF6FEF8FEF0C940301089518
:1017D00041E060E088E30E94030148EA61E088E3B9
:1017E0000E94030140E062E088E30E9403014AE0B6
:1017F00063E088E30E9403014AE064E088E30E941A
:10180000030140E265E088E30E94030147E066E0EF
:1018100088E30E94030148E967E088E30E9403012E
:1018200042E068E088E30E94030140E869E088E361
:101830000E94030141E06AE088E30E94030140EE58
:101840006BE088E30E9403014CE06CE088E30E94B7
:10185000030140E86DE088E30E94030147E06EE089
:1018600088E30E94030140ED6FE088E30E940301DA
:101870004FE761E080E50E94030140E060E886E513
:101880000E94030140E061E886E50E9403014AE00E
:1018900062E886E50E94030140E263E886E50E9473
:1018A000030140E064E886E50E94030140E065E84A
:1018B00086E50E94030147E066E886E50E94030191
:1018C00048E967E886E50E94030140EB61E088E3B0
:1018D0000E9403014FEF6FEF8FEF0C940301089507
:1018E00060E887E80E94930060E087E80E94930028
:1018F00040E868E080E30E9403010E94220113DEB9
:1019000067DF87EA91E60197F1F700C0000048EA37
:1019100068E188E30E94030140E161E286E30E94FE
:10192000030140EB61E088E30E94030148E067E0C7
:1019300084E40E94030140E068E888E50E94030116
:101940004FEF60E080E50E94030162E083E00E94C7
:10195000150160E081E80C9493000895DF92EF9206
:10196000FF920F931F93CF93DF93CDB7DEB7C25093
:10197000D1400FB6F894DEBF0FBECDBF8FE493EC1D
:101980000197F1F700C0000064EB71E080E00E9475
:101990007E1980E290E00E9406239093B301809329
:1019A000B20190E0F12CDD24D39400E010E003C0FC
:1019B0008C019F2DFE2C81E0E9EDFE1280E0882352
:1019C00031F081E09F3F09F080E0811171C08DE32B
:1019D0000E948300E82EC8010196E3E0F0E0EC0FDE
:1019E000FD1FE00FF11FE082F5E0FA95F1F78F3F60
:1019F0009105F1F2ECF28CB58F7B8CBDDD2021F1ED
:101A00004AE067E071E08091B2019091B3010E94D9
:101A10009C19811146C08BB181608BB99E012F5FEB
:101A20003F4F40E051E0BE016D5F7F4F8091B201BA
:101A30009091B3010E94A81A8091B2019091B301D4
:101A40000E94971CD12C2EC042E167E071E080918A
:101A5000B2019091B3010E949C19811123C0809121
:101A6000B2019091B301FC0142855385648575856F
:101A70000E94A21C811116C09E012F5F3F4F40E0C3
:101A800051E0BE016D5F7F4F8091B2019091B30133
:101A90000E94A81A8091B2019091B3010E94971CF4
:101AA00001C0D12C8CB580648CBD00E010E081CFEA
:101AB0001016110694F58CB58F7B8CBD42E167E062
:101AC00071E08091B2019091B3010E949C19811143
:101AD00021C08091B2019091B301FC0142855385F0
:101AE000648575850E94A21C811114C09E012F5F20
:101AF0003F4F40E051E0BE016D5F7F4F8091B201EA
:101B00009091B3010E94A81A8091B2019091B30103
:101B10000E94971C8CB580648CBD8091B20190911D
:101B2000B3010E94971CCE5FDE4F0FB6F894DEBF64
:101B30000FBECDBFDF91CF911F910F91FF90EF901E
:101B4000DF9008958AB181608AB98AB182608AB9CA
:101B50008BB18E7F8BB98BB18D7F8BB964E080E0C8
:101B60000E946B000E94C500BBDE0E94A200F6DE50
:101B700061E084E80E9493008BB182608BB980E0C1
:101B800090E00895DC01FB014230510538F081916D
:101B900091918D939D9342505109F6CFCA010197BF
:101BA000452B31F020812C93AC0131961196F6CF64
:101BB0000895FC01CA010197452B21F06083AC0117
:101BC0003196F8CF0895CF93DF93EC01DB0180E0ED
:101BD00090E0FA013197452B81F09E012F5F3F4F36
:101BE000888190E0AD014F5F5F4F6C91861B91093A
:101BF00031F4DA01E90121E005C020E003C0DA0197
:101C0000E90120E0AF012111E4CFDF91CF910895E8
:101C1000FC018081882339F0282F30E02617370710
:101C200011F03196F6CF90E008950F931F93DC01E9
:101C3000FB01628D738D80E090E02C91233059F48C
:101C40000489158920E030E0980111270027602BD6
:101C5000712B822B932B1F910F910895FC01538FB1
:101C6000428F758B648B08954F925F926F928F9223
:101C70009F92AF92BF92CF92DF92EF92FF921F930B
:101C8000CF93DF93FC015B01DB01CD91DC91988167
:101C90009F3211F09C3511F42196F9CFC488D58874
:101CA0004BE050E060E270E0C60183DF412C512C34
:101CB00080E090E06894882483F8912C612C01C026
:101CC000C7017C01BFEFEB1AFB0AFE01E80FF91F09
:101CD0001081113208F449C01F3209F446C01C3586
:101CE00009F443C01E3219F048145904A0F0E8E08A
:101CF0008E16910409F05FC01E3209F05EC0660CBA
:101D0000660C6894442443F8512C0F2EFBE08F2E70
:101D1000912CF02DD5CF112344F4F62DF3606F2EC6
:101D2000E12FF0E0EE54FF4F1081612F70E083E16E
:101D300091E06EDF892B09F042C08FEB810F8A3171
:101D400020F4262D2260622E08C08FE9810F8A318F
:101D500020F4862D8160682E1052F601E40DF51DE9
:101D60001083D20111962D01ABCFCE0DDF1DF501F1
:101D7000D183C083113210F494E001C090E0452873
:101D800001F1D6018C91853E11F485E08C93B8E089
:101D90008B16910411F4660C660C862D83708130CD
:101DA00009F49061862D8C70843009F49860F601F6
:101DB000938780E007C086E005C086E003C086E028
:101DC00001C086E0DF91CF911F91FF90EF90DF90EF
:101DD000CF90BF90AF909F908F906F905F904F90FB
:101DE00008950F93CF93DF93EC019A01AB01BC01EF
:101DF0006E5C7F4F01E089810E944E21811122C0DB
:101E0000FE01E05DFD4F8081918185359A4AE1F4C4
:101E1000E85CF14080819181A281B381BB27863447
:101E20009144A445B10591F0CC57DF4F8881998149
:101E3000AA81BB81BB2786349144A445B10541F4F6
:101E400080E007C083E005C082E003C080E001C0FD
:101E500081E0DF91CF910F9108958F929F92AF9281
:101E6000BF92CF92DF92EF92FF920F93CF93DF93C7
:101E7000FC012481222309F442C0EC01C6A4D7A4AA
:101E8000E0A8F1A84C01F2E38F0E911C01E0A7013C
:101E90009601B40189810E94A421811132C01C8263
:101EA0008AA19BA1ACA1BDA1C816D906EA06FB0672
:101EB00050F14A8D5B8D6C8D7D8D840F951FA61F13
:101EC000B71FC816D906EA06FB06F8F4AB80B12C9A
:101ED00082E0A816B104D8F08A8D9B8DAC8DBD8DA3
:101EE000C80ED91EEA1EFB1E01E0A7019601B4012F
:101EF00089810E94A421E1E0AE1AB108E9CF80E017
:101F000007C081E005C080E003C080E001C080E040
:101F1000DF91CF910F91FF90EF90DF90CF90BF9026
:101F2000AF909F908F900895CF92DF92EF92FF92A3
:101F30000F931F93CF93DF93FC01C6A4D7A4E0A80F
:101F4000F1A8C416D506E606F706B9F06A017B01CA
:101F5000EC0183DF182F811112C001E0A701960167
:101F6000BE016E5C7F4F89810E944E21811109C0A4
:101F7000CEA6DFA6E8AAF9AA05C010E003C011E0CA
:101F800001C011E0812FDF91CF911F910F91FF9040
:101F9000EF90DF90CF9008950097C9F0DC01ED91AC
:101FA000FC9111973097A9F020812223A1F026817E
:101FB000378112968D919C9113972817390769F4F0
:101FC00081810E94772080FF0AC083E0089589E024
:101FD000089589E0089589E0089589E0089580E0F2
:101FE00008952F923F924F925F926F927F928F92BD
:101FF0009F92AF92BF92CF92DF92EF92FF920F9398
:102000001F93CF93DF93CDB7DEB72E970FB6F8941B
:10201000DEBF0FBECDBFDC01ED91FC91E080F12C65
:10202000B0E3EB1AF1082AE0E216F10440F4218152
:102030002A3341F43296DC01ED93FC9305C0E12C88
:10204000F12C02C0E12CF12CFB0111821082E11471
:10205000F10409F02AC2F701EE0FFF1FE851FC4F0F
:10206000808091809E868D868114910409F41FC220
:10207000142FFB0191828082D4018C91882369F016
:1020800011968C910E94772080FD07C0112309F4DE
:1020900010C282FD10C280E02DC2ED85FE85108247
:1020A000E1828E2D0E947E2080FD07C2112311F057
:1020B00082FD05C240E050E0BA018D859E8591DE2B
:1020C000813089F4ED85FE85E051FE4F948199239E
:1020D00071F0C084D184E284F384B701A6018D85B8
:1020E0009E857FDE07C0C12CD12C760103C0C12C98
:1020F000D12C7601833009F4E4C18111E4C1AD85AE
:10210000BE85DD968D919C91DE978115924009F0F8
:10211000DCC1ED85FE85E85BFF4F808191812C015C
:10212000612C712C411451046104710441F4ED855A
:10213000FE85EA5AFF4F4080518062807380ED85B2
:10214000FE85428E538E648E758EEE5BFF4FA081AE
:10215000ED85FE85A3838FEF8A0F823008F0B7C12B
:10216000B0E0A30192010E94ED226D837E838F83F4
:10217000988727AD2283222309F4ABC1422F50E078
:10218000CA01019784239523892B09F0A4C1ED5B33
:10219000FF4F20803180AD85BE8519963C922E92EE
:1021A0001897C1018F709927892B09F096C1FD01FD
:1021B000EB5BFF4F60817181CB01A0E0B0E0009745
:1021C000A105B10541F4ED85FE85EE5AFF4F8081F2
:1021D0009181A281B381ED85FE85E05CFF4F408156
:1021E00051814115510509F47AC14A01A12CB12C44
:1021F00089869A86AB86BC868D809E80AF80B884A7
:1022000049855A856B857C85840E951EA61EB71E52
:10221000F101F295E295EF70EF27FF70EF27B5011E
:10222000A4014E0F5F1F611D711D49835A836B838B
:102230007C8384179507A607B70708F452C1BC0131
:10224000CD0189809A80AB80BC80681979098A09A0
:102250009B0930E040E050E00E94CB22DA01C90146
:10226000211531054105510509F43DC1263F6FE0B7
:1022700036074105510510F411E001C012E0863F18
:102280009F4FA105B10508F013E049015A0182E012
:10229000880E911CA11CB11CAD85BE8556968D92F1
:1022A0009D92AD92BC925997FD01C68ED78EE0A249
:1022B000F1A289859A85AB85BC858C0D9D1DAE1DCF
:1022C000BF1D82A393A3A4A3B5A349815A816B81A7
:1022D0007C814C0D5D1D6E1D7F1D42A753A764A719
:1022E00075A71330C1F4232809F0FFC0E25AFF4F4D
:1022F00080819181A281B381ED85FE8586A397A31C
:10230000A0A7B1A7880C991CAA1CBB1C880C991CFF
:10231000AA1CBB1C2DC0232809F4E9C02D813E81D5
:102320004F815885820F931FA41FB51FED85FE8531
:1023300086A397A3A0A7B1A7123029F4880C991CF3
:10234000AA1CBB1C15C0A3E0B0E0A50194010E942B
:10235000ED22DC01CB01B695A79597958795F1E025
:102360008F229924AA24BB24880E991EAA1EBB1E64
:102370002FEF820E21E0921EA11CB11C072E79E0E6
:10238000B694A794979487947A95D1F7702D4814B2
:1023900059046A047B0408F4ACC08FEF9FEFDC01A2
:1023A000ED85FE8586879787A08BB18BDF0112862E
:1023B000138614861586133009F05FC01582EE5916
:1023C000FF4F80819181A7019601280F391F411D80
:1023D000511DFD01228B338B448B558B01E0BD01D8
:1023E0006E5C7F4F81810E944E21811123C0ED855B
:1023F000FE85E05DFD4F8081918185359A4AE1F44B
:10240000ED85FE8582A993A9A4A9B5A98235924537
:10241000A146B14499F4ED85FE85EA5EFD4F8081C9
:102420009181A281B38182379247A144B14641F0A4
:1024300080E007C080E005C080E003C080E001C00C
:1024400081E08823D1F0ED85FE85E25EFD4F80813D
:102450009181A281B381ED85FE8582879387A487D0
:10246000B587E65EFD4F80819181A281B381ED85C4
:10247000FE8586879787A08BB18BAD85BE851C9323
:102480008091E6039091E70301969093E703809390
:10249000E60317969C938E931697FD0116A617A632
:1024A00010AA11AA148280E025C08BE023C08CE022
:1024B00021C080E01FC08AE01DC083E01BC08AE00D
:1024C00019C081E017C08DE015C08DE013C08DE00C
:1024D00011C08DE00FC08DE00DC08DE00BC08DE010
:1024E00009C08DE007C08DE005C08DE003C08DE020
:1024F00001C08DE02E960FB6F894DEBF0FBECDBFA3
:10250000DF91CF911F910F91FF90EF90DF90CF90CF
:10251000BF90AF909F908F907F906F905F904F9003
:102520003F902F900895EF92FF920F931F93CF93B8
:10253000DF93EC0192DC182F811152C08881833027
:1025400009F046C08D81882309F442C01EA61FA64B
:1025500018AA19AA40E052E060E070E07E0182E330
:10256000E80EF11CC70125DB85E59AEAFE01E05D76
:10257000FD4F9183808382E592E5A1E6B1E48AABC9
:102580009BABACABBDAB82E792E7A1E4B1E67A9737
:1025900080839183A283B3838E859F85A889B9891F
:1025A000349680839183A283B3838A859B85AC858F
:1025B000BD85349680839183A283B3832A893B8926
:1025C0004C895D8901E0B70189810E94A4211D82A7
:1025D00040E050E060E089810E940322811111E017
:1025E000812FDF91CF911F910F91FF90EF90089570
:1025F0000F931F93FC019A01AB012250310941094D
:10260000510986899789A08DB18D0297A109B109D9
:10261000281739074A075B0768F4A281B0E00E94D7
:10262000ED2202A513A524A535A5600F711F821FF9
:10263000931F03C060E070E0CB011F910F910895DC
:10264000AF92BF92CF92DF92EF92FF920F931F93C0
:10265000CF93DF93423051056105710508F4B2C094
:10266000FC0106891789208D318D401751076207BB
:10267000730708F0ACC06A017B01EC0180818230F5
:1026800009F44DC0833009F46DC0813009F0A4C055
:102690005A01B694A794A40EB51E42A153A164A1F9
:1026A00075A1C501892F99278695480F591F611D6E
:1026B000711DCF0139DC811193C0F501F170EC0F70
:1026C000FD1F02A910E0FFEFAF1ABF0A4AA15BA1EC
:1026D0006CA17DA1C501892F99278695480F591FA7
:1026E000611D711DCE0120DC81117EC081E0B82208
:1026F000CA0DDB1D6AA970E0762F6627602B712B4F
:10270000C0FE09C0729562956F7067277F7067275A
:1027100080E090E074C07F7080E090E070C042A1E3
:1027200053A164A175A1BB27AF2D9E2D8D2D480F00
:10273000591F6A1F7B1FCF01F7DB811159C0B701F9
:10274000A601440F551F661F771F4E7F51706627E5
:1027500077274E5C5F4FC40FD51F6881798180E079
:1027600090E04DC042A153A164A175A1D701C6015B
:10277000689416F8B695A795979587951694D1F70E
:10278000480F591F6A1F7B1FCF01CEDB811134C058
:10279000B701A601440F551F661F771F440F551F31
:1027A000661F771F4C7F5170662777274E5C5F4FFF
:1027B000C40FD51F88819981AA81BB81BC01CD013D
:1027C0009F701DC061E070E080E090E018C061E0A3
:1027D00070E080E090E013C06FEF7FEFCB010FC09F
:1027E0006FEF7FEFCB010BC06FEF7FEFCB0107C027
:1027F0006FEF7FEFCB0103C06FEF7FEFCB01DF9176
:10280000CF911F910F91FF90EF90DF90CF90BF90ED
:10281000AF900895EF92FF920F931F93CF93DF93A2
:10282000EC018B017D836C834E815F8168857985A6
:10283000413051056105710509F491C0E881F981C4
:1028400086899789A08DB18D481759076A077B073C
:1028500008F087C0411551056105710539F4808183
:10286000833021F446A157A160A571A541155105FA
:1028700061057105F1F44A875B876C877D878085E8
:1028800091850817190708F06EC086A197A1A0A529
:10289000B1A59801329522952F7023273F702327E9
:1028A000820F931FA11DB11D8E879F87A88BB98BA7
:1028B00040C0E28080E1E89E700111240E151F05E2
:1028C00000F188819981BCDEAB01BC014F3F8FEFE5
:1028D00058076807780709F448C042305105610578
:1028E000710508F444C0E881F98186899789A08D33
:1028F000B18D481759076A077B07D8F50E191F09CC
:10290000DDCF4A875B876C877D878881998170DE00
:102910009801329522952F7023273F702327DC01E1
:10292000CB01820F931FA11DB11D8E879F87A88B9E
:10293000B98B288139810F701127C801880F991F21
:1029400082959295907F9827807F982789010E5CC9
:102950001F4F080F191F1B8B0A8B80E00BC082E0F2
:1029600009C082E007C082E005C081E003C082E0C8
:1029700001C082E0DF91CF911F910F91FF90EF9006
:1029800008954F925F926F927F92AF92BF92CF92D3
:10299000DF92EF92FF920F931F93CF93DF9300D0BC
:1029A00000D000D0CDB7DEB74230510561057105CA
:1029B00008F4F4C0FC01C688D788E08CF18C4C1573
:1029C0005D056E057F0508F0EBC0280139016A013D
:1029D0007B019E838D838081823009F475C08330B2
:1029E00009F498C0813009F0D3C05A01B694A79475
:1029F000A40EB51E42A153A164A175A1C501892FE2
:102A000099278695480F591F611D711DCF018CDADA
:102A10008111BFC0C5019170A701960121703327B4
:102A20004427552729833A834B835C83C0FE0CC01F
:102A300040E1449E90011124ED81FE81E80FF91FD1
:102A400042A94F70242B01C0242DED81FE81E80F97
:102A5000F91F22AB5FEFA51AB50A81E0ED81FE8177
:102A6000848342A153A164A175A1C501892F99272F
:102A70008695480F591F611D711DCF0155DA8111CF
:102A800088C0F1E0BF2229813A814B815C81232BF0
:102A9000242B252B49F0689413F876946794579467
:102AA00047941694D1F70AC0ED81FE81EA0DFB1D13
:102AB00022A9207F952D9F70422E492AED81FE810B
:102AC000EA0DFB1D42AA65C0ED81FE8142A153A122
:102AD00064A175A1BB27AF2D9E2D8D2D480F591FC9
:102AE0006A1F7B1FCF0120DA811153C0CC0CDD1C83
:102AF000EE1CFF1CE894C0F8F1E0DF22EE24FF2476
:102B000022E3C20ED11CED81FE81EC0DFD1D518230
:102B100040823FC0ED81FE8142A153A164A175A115
:102B2000D701C601689416F8B695A795979587952D
:102B30001694D1F7480F591F6A1F7B1FCF01F4D994
:102B4000811127C0CC0CDD1CEE1CFF1CCC0CDD1C45
:102B5000EE1CFF1CFCEFCF22F1E0DF22EE24FF246D
:102B600022E3C20ED11CED81FE81EC0DFD1D008122
:102B7000118122813381002711272227307F402AAB
:102B8000512A622A732A408251826282738201C072
:102B900082E091E0ED81FE81948303C082E001C078
:102BA00082E026960FB6F894DEBF0FBECDBFDF9150
:102BB000CF911F910F91FF90EF90DF90CF90BF903A
:102BC000AF907F906F905F904F9008954F925F927B
:102BD0006F927F928F929F92AF92BF92CF92DF922D
:102BE000EF92FF920F931F93CF93DF93EC012A0193
:102BF0003B01411551056105710599F48A849B8457
:102C0000AC84BD8481149104A104B104F1F08E89D7
:102C10009F89A88DB98D88169906AA06BB06D0F49F
:102C20001DC00EDD623071058105910508F488C074
:102C3000CE88DF88E88CF98C6C157D058E059F05A4
:102C400008F483C05301420109C0812C912C540126
:102C5000839404C0812C912C5401839475016401E8
:102C60002FEFC21AD20AE20AF20A8E899F89A88D32
:102C7000B98DC816D906EA06FB0660F082E0881610
:102C80009104A104B10408F464C0C12CD12C7601D4
:102C90006894C1F8B701A601CE01D2DC61157105B7
:102CA0008105910599F06F3F2FEF72078207920718
:102CB00009F454C0613071058105910509F452C0D1
:102CC000C814D904EA04FB0459F650C00FEF1FEFF3
:102CD0002FEF3FE0B701A601CE0153DE81110BC0FB
:102CE000411451046104710431F097018601B3016C
:102CF000A201CE0146DE81111CC0CA86DB86EC86AD
:102D0000FD868E859F85A889B9898F3F2FEF920711
:102D1000A207B20781F10197A109B1098E879F87A8
:102D2000A88BB98B81E08D834C2D3D2D2E2D9F2DB1
:102D30002BC0813029F54FEF3FEF2FEF9FEF24C0DD
:102D400041E030E020E090E01FC0462F372F282FD1
:102D50001BC040E030E020E090E016C0462F372F47
:102D6000282F12C0462F372F282F0EC040E030E00A
:102D700020E090E009C04C2D3D2D2E2D9F2D04C04C
:102D800041E030E020E090E0642F732F822FDF914C
:102D9000CF911F910F91FF90EF90DF90CF90BF9058
:102DA000AF909F908F907F906F905F904F9008951D
:102DB0008F929F92AF92BF92CF92DF92EF92FF924B
:102DC0000F931F93CF93DF93DC011496CD91DC9189
:102DD0001597219609F4F6C01E968D909D90AD90A2
:102DE000BC90519781149104A104B10409F4ECC082
:102DF0007B018C016E01BFE0CB22DD24C114D10424
:102E000009F0CAC0EFEF8E1A9E0AAE0ABE0ADC01B4
:102E10001E968D929D92AD92BC9251971A964D91AD
:102E20005D916D917C911D9741155105610571056D
:102E300049F4ED91FC9180859185C817D90708F078
:102E4000C5C0AAC0DC01ED91FC91228130E0215087
:102E50003109CE01929582958F7089279F708927BD
:102E600028233923232B09F097C0CF01E9DB4B013D
:102E70005C01623071058105910508F4A9C06F3FBE
:102E80007F4F8F4F9F4F09F4A5C0D801ED91FC9162
:102E900086899789A08DB18D88169906AA06BB06EA
:102EA00008F469C0EF2809F497C0D8011A964D912B
:102EB0005D916D917C911D97CF0188DE4B015C0186
:102EC000611571058105910509F488C061307105AE
:102ED0008105910509F484C06F3F7F4F8F4F9F4F4D
:102EE00009F480C0D8018D919C910E942D0F811111
:102EF0007BC0F8018081918140E052E060E070E0A9
:102F0000C2960E94D90DD801ED90FC90B501A401A4
:102F1000C7016EDBF70166A777A780AB91ABF12CF9
:102F2000D801ED91FC9111978281F816C0F481E0EF
:102F300084838D919C910E942D0F811157C0D801DF
:102F4000ED91FC9186A597A5A0A9B1A90196A11D17
:102F5000B11D86A797A7A0ABB1ABF394E1CF86A52F
:102F600097A5A0A9B1A98F199109A109B10986A7AF
:102F700097A7A0ABB1ABF80182869386A486B586ED
:102F8000B501A4018081918133DBD8011E966D9338
:102F90007D938D939C935197F801D583C483808151
:102FA0009181CC0CDD1CCC0CDD1CCC0CDD1CCC0CC4
:102FB000DD1CCC0CDD1CC296C80ED91ED38AC28A79
:102FC00080E015C084E013C084E011C084E00FC02D
:102FD00082E00DC081E00BC084E009C087E007C03B
:102FE00082E005C081E003C081E001C081E0DF91A3
:102FF000CF911F910F91FF90EF90DF90CF90BF90F6
:10300000AF909F908F9008951F93CF93DF93EC0123
:1030100060E070E0FFDB81112EC04E855F8568891E
:103020007989888199810E94940F182F81111FC07E
:10303000EA89FB8980818823D9F0838583FD0BC0D1
:103040006C897D894BE050E0CF010E94E30D892B14
:1030500021F481E003C080E001C080E081110AC05A
:1030600060E070E0CE01A4DE8823B9F204C003C0A2
:1030700084E001C0812FDF91CF911F9108950F93BC
:103080001F93CF93DF9300D0CDB7DEB78C017A8347
:103090006983E62FF72F80818F3211F08C3519F478
:1030A0003196FA83E983D80116961D921D921D92DE
:1030B0001C921997E981FA818081803240F460E0A6
:1030C00070E0C801A7DBF801138A128A2EC0BE0186
:1030D0006F5F7F4FC8010E94340E811126C0C80166
:1030E00093DFD8015496ED91FC91559793858823F1
:1030F00029F08430D1F492FF15C017C092FD15C09D
:10310000F80162897389DB011B968C9184FF0CC0E6
:10311000808191810E94150EF801668377838087F4
:103120009187D5CF85E001C085E00F900F90DF91AA
:10313000CF911F910F910895EF92FF920F931F93DC
:10314000CF93DF93EC017B0160E070E063DB8111E2
:1031500021C000E010E04E855F856889798988810B
:1031600099810E94940F811115C0EA89FB89908191
:10317000953E11F0911106C00F5F1F4F0E151F05F0
:1031800019F408C000E010E061E070E0CE0110DE4C
:10319000882309F3DF91CF911F910F91FF90EF905A
:1031A00008950F931F93CF938C0161E070E0C4DF0B
:1031B000C82F811129C0D8011E964D915D916D9146
:1031C0007C9151978D919C910E94940FC82F8111F1
:1031D0001BC040E250E060E070E0F8018289938912
:1031E0000E94D90DD80154966D917C9155974BE072
:1031F00050E052968D919C9153970E94C20DD80138
:10320000ED91FC9181E084838C2FCF911F910F91E0
:1032100008958F929F92AF92BF92CF92DF92EF92DA
:10322000FF920F931F93CF93DF93EC016A017B0111
:10323000423051056105710508F44BC08E899F89A4
:10324000A88DB98D481759076A077B0708F043C056
:1032500010E002C0750164018E899F89A88DB98D27
:10326000C816D906EA06FB06D8F5B701A601CE01B5
:10327000E7D94B015C01672B682B692B89F181E051
:1032800088169104A104B10441F12FEF8216920631
:10329000A206B20621F100E010E09801B701A601F4
:1032A000CE016FDB182F81111BC08E859F85A889E9
:1032B000B9898F3F2FEF9207A207B20759F2019603
:1032C000A11DB11D8E879F87A88BB98B81E08D834F
:1032D000C1CF12E005C012E003C012E001C011E04E
:1032E000812FDF91CF911F910F91FF90EF90DF9091
:1032F000CF90BF90AF909F908F90089581111AC08A
:1033000090E0FC01EE0FFF1FE851FC4F0190F081AF
:10331000E02D309709F010826115710511F0FB0165
:103320001082880F991FFC01E851FC4F7183608364
:1033300080E008958BE008954F925F926F927F92A4
:10334000AF92BF92CF92DF92EF92FF920F931F93B3
:10335000CF93DF93CDB7DEB7A8970FB6F894DEBF53
:103360000FBECDBF7CA36BA3009709F4D9C0042F77
:103370007C01DC011D921C92B42FBF71DB2E4E71BB
:10338000BE016F5F7F4FCE0183960E94F10F8111C6
:10339000CAC0CE0147969E8B8D8B6BA17CA14697B0
:1033A0006EDE182FAB88BC88811104C0A114B10453
:1033B00009F416E0802F8C7109F462C0112361F0CA
:1033C000143021F4CE010196ECDE182FED2DE860CB
:1033D000DE2EAB88BC880BC0D5011B968C91817109
:1033E00019F402FD03C003C017E001C018E0111179
:1033F00056C0D3FE54C00E946600F50166877787E9
:10340000808B918B1386148E158E168E178EB501B8
:1034100089819A810E94150E2B013C0140E050E009
:10342000BA01C5010E942E0EE981FA8181E08483F0
:10343000411451046104710491F186A597A5A0A9D6
:10344000B1A98DA39EA3AFA3B8A7B301A201CF01D9
:10345000E0DE182F811123C089819A81A1E04A1AE8
:10346000510861087108FC0142865386648675869E
:103470004DA15EA16FA178A50E94940F182F0FC0D7
:1034800011110DC0D5011B968C9184FD05C001FF63
:1034900006C080FD03C003C014E001C017E0111195
:1034A00012C0D3FE03C0BD2DB062DB2EE981FA81CC
:1034B00086A597A5A0A9B1A9F701828F938FA48FA4
:1034C000B58FB78EA68E11112DC0D7011496DC9240
:1034D000C980DA80B501C6010E94150EF701668722
:1034E0007787808B918BF501848D958DA68DB78D17
:1034F000F70182879387A487B58716821782108683
:103500001186168A178A108E118ED182C082D6013A
:1035100016968D919C91179793838283812F03C078
:1035200089E001C0812FA8960FB6F894DEBF0FBEC8
:10353000CDBFDF91CF911F910F91FF90EF90DF9062
:10354000CF90BF90AF907F906F905F904F90089515
:103550002F923F924F925F926F927F928F929F92A3
:10356000AF92BF92CF92DF92EF92FF920F931F9391
:10357000CF93DF93EC015B016A014901F9011182EC
:1035800010820E94CC0F81117BC18C8188230CF4A6
:1035900074C181FF74C18A859B85AC85BD85AC01F2
:1035A000BD014C0D5D1D611D711D481759076A074E
:1035B0007B0710F4C12CD12CC114D10409F447C1EC
:1035C0004E815F8168857985DB01CA019170AA27E8
:1035D000BB27892B8A2B8B2B09F0EFC0E881F9815F
:1035E00012811150DB01CA01072E79E0B695A7952B
:1035F000979587957A95D1F7702D1823E1F5452B8E
:10360000462B472B99F46E857F85888999896115AA
:1036100071058105910581F440E050E0BA01CF01C8
:10362000D5DA6E877F87888B998B06C04A895B893C
:103630006C897D89CF01CADA611571058105910513
:1036400009F405C1613071058105910529F48C816A
:1036500080688C8382E014C16F3FFFEF7F078F0784
:103660009F0729F48C8180688C8381E009C16A8B73
:103670007B8B8C8B9D8BE881F98146A557A560A932
:1036800071A98E899F89A88DB98D481759076A0736
:103690007B0739F4CF010E942D0F882321F081E0B0
:1036A00003C080E001C080E0882329F08C8180681D
:1036B0008C8381E0E5C04A895B896C897D8928809B
:1036C0003980C1010E94F8126115710581059105CB
:1036D00029F48C8180688C8382E0D2C02B013C016C
:1036E000410E511C611C711C7601EF2CFF24E694E5
:1036F000E114F10409F440C0F1014281242F30E0CB
:10370000C701810F911D2817390718F47901E11AB3
:10371000F1080E2DA3019201B501F101818114D6AA
:10372000882329F08C8180688C8381E0A9C0E8819E
:10373000F98186A597A5A0A9B1A984199509A6091B
:10374000B709A70160E070E084179507A607B707DF
:1037500078F4982F8827990FB501680F791F40E0FA
:1037600052E0CF01C2960E94C20DE881F981148215
:10377000FE2CEE24FF0C53C04E815F816885798555
:103780008A859B85AC85BD85481759076A077B07E5
:1037900080F0C1010E942D0F882329F08C81806860
:1037A0008C8381E06DC0E881F98146A657A660AAA6
:1037B00071AA4E8A5F8A688E798E8E819F81A885D4
:1037C000B985917020E032E07901E81AF90ACE1447
:1037D000DF0408F476014E895F89688D798D8881D0
:1037E00099810E94940F882329F08C8180688C83B2
:1037F00081E046C0288139814E815F816885798565
:10380000517066277727CA01C296A701B501820FBA
:10381000931F0E94C20DE881F98181E08483AE0C80
:10382000BF1C8E819F81A885B9858E0D9F1DA11D0E
:10383000B11D8E839F83A887B987F4018081918110
:103840008E0D9F1D91838083CE18DF08B5CE8E81AB
:103850009F81A885B9854A855B856C857D854817DC
:1038600059076A077B0720F48A879B87AC87BD8747
:103870008C8180628C8380E003C082E001C087E09D
:10388000DF91CF911F910F91FF90EF90DF90CF903C
:10389000BF90AF909F908F907F906F905F904F9070
:1038A0003F902F9008950F931F93CF93DF93EC01D8
:1038B0000E94CC0F811136C09C8195FF33C04A8D88
:1038C0005B8D6C8D7D8D888199810E94940F811113
:1038D00029C00E8D1F8DF8018385806283878A85BC
:1038E0009B85AC85BD85848F958FA68FB78F4E85C0
:1038F0005F8568897989C8010E942E0E0E94660042
:10390000F801668B778B808F918F138A128A8C8156
:103910008F7D8C83E881F98181E08483888199811E
:103920000E949312DF91CF911F910F910895CF9331
:10393000DF93EC01B8DF811102C019821882DF9198
:10394000CF9108952F923F924F925F926F927F9204
:103950008F929F92AF92BF92CF92DF92EF92FF929F
:103960001F93CF93DF9300D000D000D0CDB7DEB748
:103970009E838D836A017B010E94CC0F182F8111D9
:1039800092C1AD81BE8114968C91149788230CF45A
:103990008BC11A964D915D916D917C911D974C153F
:1039A0005D056E057F0520F481FD02C06A017B0183
:1039B000ED81FE8146805780608471841682178273
:1039C00010861186C114D104E104F10409F430C158
:1039D00020803180F1018280912CA12CB12C072E06
:1039E00079E0880C991CAA1CBB1C7A95D1F7702D24
:1039F000411451046104710409F43EC0C701B601C9
:103A00006150710981099109A5019401C4D52983E7
:103A10003A834B835C83F1E04F1A510861087108C7
:103A2000C301B201A5019401B6D589819A81AB8108
:103A3000BC8182179307A407B507F0F08827992760
:103A4000DC0188199909AA09BB09482259226A226E
:103A50007B22AD81BE8116964D925D926D927C92D5
:103A60001997C418D508E608F70852964D915D914C
:103A70006D917C9155973CC0ED81FE8146855785BF
:103A800060897189411551056105710559F540E05D
:103A900050E0BA01C1019AD8AB01BC0141305105D7
:103AA0006105710551F4AD81BE8114968C91149716
:103AB000806814968C9382E0FAC04F3FBFEF5B079B
:103AC0006B077B0739F4ED81FE81848180688483F4
:103AD00081E0EDC0AD81BE811E964D935D936D93E7
:103AE0007C935197ED81FE81428B538B648B758B58
:103AF000411551056105710509F49EC08C149D04A2
:103B0000AE04BF0408F05CC0AD81BE8114968C91F8
:103B1000149781FF0DC08D919C9158D8AB01BC01C9
:103B2000411551056105710559F47501640148C0DD
:103B3000AD81BE818D919C910E942013AB01BC018F
:103B40004F3FBFEF5B076B077B0739F4ED81FE81C9
:103B500084818068848381E0AAC042305105610578
:103B6000710568F0AD81BE81ED91FC9186899789E0
:103B7000A08DB18D481759076A077B0738F0ED8192
:103B8000FE8184818068848382E091C0AD81BE81A2
:103B900052964D935D936D937C935597FD0186816D
:103BA0009781A085B185880D991DAA1DBB1D8683AF
:103BB0009783A087B187C818D908EA08FB089ECF69
:103BC000ED81FE8186819781A085B1858C0D9D1D3B
:103BD000AE1DBF1D86839783A087B187D701C6011D
:103BE0009170AA27BB27892B8A2B8B2B49F18081C7
:103BF00091810E94F812611571058105910551F4BA
:103C0000AD81BE8114968C911497806814968C9324
:103C100082E04DC00B2EB9E0F694E794D794C79498
:103C2000BA95D1F7B02DC60ED71EE81EF91E0BC0EF
:103C3000C12CD12C760107C0C12CD12C760103C038
:103C4000C12CD12C7601ED81FE8186819781A085E2
:103C5000B185AC01BD01517066277727452B462BF6
:103C6000472B69F046895789608D718DC416D5063A
:103C7000E606F70621F0C68AD78AE08EF18EED813E
:103C8000FE814285538564857585481759076A0703
:103C90007B0760F482879387A487B58784818062DD
:103CA0008483812F04C003C082E001C0812F269647
:103CB0000FB6F894DEBF0FBECDBFDF91CF911F913D
:103CC000FF90EF90DF90CF90BF90AF909F908F903C
:103CD0007F906F905F904F903F902F90089523B109
:103CE0000197E9F70895FC019F012F5F3F4F808105
:103CF000882324F495B1906295B903C095B19F7D56
:103D000095B995B1906895B995B19F7795B986FFAA
:103D100004C095B1906295B903C095B19F7D95B9E6
:103D200095B1906895B995B19F7795B985FF04C015
:103D300095B1906295B903C095B19F7D95B995B144
:103D4000906895B995B19F7795B984FF04C095B1F6
:103D5000906295B903C095B19F7D95B995B1906872
:103D600095B995B19F7795B983FF04C095B19062DD
:103D700095B903C095B19F7D95B995B1906895B9F6
:103D800095B19F7795B982FF04C095B1906295B9BE
:103D900003C095B19F7D95B995B1906895B995B1DE
:103DA0009F7795B981FF04C095B1906295B903C022
:103DB00095B19F7D95B995B1906895B995B19F776B
:103DC00095B980FF04C085B1806285B903C085B113
:103DD0008F7D85B985B1806885B985B18F7785B9C3
:103DE00061507109F90109F07FCF0895FC0185B197
:103DF000806285B901C0F9011E9902C090E001C03E
:103E000091E085B1806885B985B18F7785B9990FC3
:103E10001E999F5F85B1806885B985B18F7785B917
:103E2000990F1E999F5F85B1806885B985B18F779D
:103E300085B9990F1E999F5F85B1806885B985B155
:103E40008F7785B9990F1E999F5F85B1806885B975
:103E500085B18F7785B9990F1E999F5F85B180686D
:103E600085B985B18F7785B9990F1E999F5F85B107
:103E7000806885B985B18F7785B9990F1E999F5F45
:103E800025B1206825B925B12F7725B99F012F5F6E
:103E90003F4F90836150710909F0ADCF08950F93A2
:103EA0001F93CF93DF931F92CDB7DEB708E813E1DE
:103EB0000115110571F061E070E0CE01019696DF09
:103EC00089818F3F31F084E690E009DF01501109CC
:103ED000EFCF012B19F081E090E002C080E090E08C
:103EE0000F90DF91CF911F910F910895CF93DF93A2
:103EF0001F92CDB7DEB785B1826085B961E070E011
:103F0000CE01019673DF0F90DF91CF9108950F934B
:103F10001F93CF93DF931F92CDB7DEB785B18D7F0F
:103F200085B961E070E0CE01019660DFB8DF8C01F9
:103F3000892B11F4DBDF02C001E010E0C8010F9013
:103F4000DF91CF911F910F910895CF92DF92EF9261
:103F5000FF920F931F93CF93DF9300D0CDB7DEB7BF
:103F60007C016B0108EE13E00115110571F061E0B1
:103F700070E0CE0101963ADF89818F3F31F484E60B
:103F800090E0ADDE01501109EFCF89818E3F59F4E9
:103F9000B601C7012BDF62E070E0CE01019626DF9B
:103FA00081E090E002C080E090E00F900F90DF9100
:103FB000CF911F910F91FF90EF90DF90CF900895D8
:103FC000EF92FF921F93CF93DF9300D0CDB7DEB770
:103FD0007C01162F64DF009711F1198361E070E016
:103FE000CE01019680DE1D3FA9F060E072E0C701BE
:103FF0007ADE62E070E0CE010196F8DE61E070E00A
:10400000CE010196F3DE89818F71853031F080E039
:1040100090E005C081E090E002C081E090E00F9068
:104020000F90DF91CF911F91FF90EF900895DF9255
:10403000EF92FF920F931F93CF93DF93CDB7DEB72D
:1040400027970FB6F894DEBF0FBECDBF182F042FF1
:10405000F52EE62ED72E882344F41F7740E050E05B
:10406000BA0187E3E4DF8230A0F540DF50DF892B1F
:1040700079F1812F80648A83DB82EC82FD820E835A
:10408000112311F081E001C085E9183009F487E8B7
:104090008F8366E070E0CE01029625DE1C3029F4A5
:1040A00061E070E0CE010196A1DE1AE061E070E00F
:1040B000CE0101969BDE8981882324F4115021F0E2
:1040C00091E003C090E001C090E09111EFCF01C0FA
:1040D0008FEF27960FB6F894DEBF0FBECDBFDF91EE
:1040E000CF911F910F91FF90EF90DF900895811174
:1040F00003C080910601089581E00895EF92FF9238
:104100000F931F93CF93DF9300D000D0CDB7DEB7CE
:104110008111B8C080E197E2E2DD84B1826084B9A8
:1041200085B1826085B984B1806884B985B18F77A3
:1041300085B984B1806284B91AE0112339F061E055
:1041400070E0CE01019652DE1150F7CF40E050E012
:10415000BA0180E06CDF813009F07DC04AEA51E0AD
:1041600060E070E088E063DF813009F03EC064E029
:1041700070E0CE0101963ADE8B81813009F06DC08E
:104180008C818A3A09F06BC008EE13E00115110525
:1041900071F040E050E060E070E489EA48DF882395
:1041A00031F088EE93E09BDD01501109EFCF012B38
:1041B00049F040E050E0BA018AE339DF811104C0E0
:1041C00081E003C080E001C080E0882309F449C099
:1041D00064E070E0CE01019609DE898186FF43C06C
:1041E0000F2EFCE0FF2EF02D43C040E050E0BA015E
:1041F00089EA1DDF823040F40F2EF9EAEF2EF02D10
:104200006894FF24F1F804C0EE24E394FF24F394AF
:1042100008EE13E00115110569F040E050E0BA0125
:104220008E2D05DF882331F088EE93E058DD0150B4
:104230001109F0CF012B49F040E052E060E070E05E
:1042400080E1F5DE811103C003C081E001C081E09F
:1042500081110DC00DC0F12C0BC0F12C09C0F12C47
:1042600007C0F12C05C06894FF24F2F801C0F12CBE
:10427000F092EA0311E0F11010E01093060136DE2F
:10428000812F01C083E00F900F900F900F90DF916E
:10429000CF911F910F91FF90EF900895CF92DF92F1
:1042A000EF92FF920F93CF93DF93EB0169017A01B5
:1042B0001EDF80FD3EC08091EA0383FD09C00B2E06
:1042C000B9E0CC0CDD1CEE1CFF1CBA95D1F7B02D6B
:1042D0000130A1F4B701A60181E1A9DE811108C076
:1042E00060E072E0CE0131DE892B21F081E003C075
:1042F00080E001C080E0811116C016C0B701A601A0
:1043000082E195DE811110C060E072E0CE011DDE19
:10431000892B19F0DE5F0150B9F740E050E0BA0197
:104320008CE085DE01C000E0E1DD002321F081E0CA
:1043300003C083E001C080E0DF91CF910F91FF9037
:10434000EF90DF90CF900895CF92DF92EF92FF929F
:104350000F93CF93DF93EB0169017A01C8DE80FDF3
:1043600047C08091EA0383FD09C00B2EB9E0CC0C55
:10437000DD1CEE1CFF1CBA95D1F7B02D013099F46D
:10438000B701A60188E153DE811107C06EEFCE01AF
:1043900017DE892B21F081E003C080E001C080E0BE
:1043A00081111EC020C0867031F0402F50E060E0C7
:1043B00070E087E93CDEB701A60189E138DE8111B2
:1043C00012C06CEFCE01FCDD892B19F0DE5F0150CD
:1043D000C1F76DEF80E090E0F3DD892B19F003C0A9
:1043E00000E001C001E082DD002321F081E003C094
:1043F00083E001C080E0DF91CF910F91FF90EF90BB
:10440000DF90CF900895EF92FF921F93CF93DF93A9
:10441000CDB7DEB760970FB6F894DEBF0FBECDBF45
:10442000162F7A0164DE80FDA9C0113059F020F00A
:10443000133009F490C09AC06ADD892B09F098C046
:1044400011E099C040E050E0BA0189E0F0DD81114F
:1044500009C060E170E0CE01019677DD892B21F083
:1044600081E003C080E001C080E0882309F482C0BD
:10447000898190E0082E892F000C881F990B000C71
:10448000881F991F019731F58A85298530E0322FE1
:104490002227280F311D88858F7390E0A0E0B0E0BF
:1044A000DC0199278827820F931FA11DB11D01965A
:1044B000A11DB11D072E7AE0880F991FAA1FBB1FEF
:1044C0007A95D1F7702DF70180839183A283B3830E
:1044D00010E051C08E812B859A85382F3F70822F36
:1044E000881F8827881F830F9370990F890F42E0D8
:1044F000480F898590E0BC01062E672F000C661FCF
:10450000770B000C661F771F288530E0C901880FE4
:10451000991F880F991F860F971F2F81237030E0F6
:10452000322F2227330F330F820F931F0196A0E003
:10453000B0E0242F30E02950310904C0880F991FC2
:10454000AA1FBB1F2A95D2F7F70180839183A2830C
:10455000B38310E010C080E890E0A0E0B0E0F70185
:1045600080839183A283B38310E005C014E003C06D
:1045700010E001C011E0BADC812F01C083E0609639
:104580000FB6F894DEBF0FBECDBFDF91CF911F9164
:10459000FF90EF900895A1E21A2EAA1BBB1BFD010C
:1045A0000DC0AA1FBB1FEE1FFF1FA217B307E40712
:1045B000F50720F0A21BB30BE40BF50B661F771F6A
:1045C000881F991F1A9469F760957095809590954A
:1045D0009B01AC01BD01CF01089509D0A59F900DAD
:1045E000B49F900DA49F800D911D11240895A29F4A
:1045F000B001B39FC001A39F700D811D1124911DB7
:10460000B29F700D811D1124911D08950F931F936A
:10461000CF93DF938230910510F482E090E0E09137
:10462000ED03F091EE0320E030E0A0E0B0E0309741
:1046300019F1408151810281138148175907C8F04F
:104640008417950769F4109731F012960C9312971E
:1046500013961C9327C00093ED031093EE0322C022
:104660002115310519F04217530718F49A01BD01BD
:10467000EF01DF01F801DBCF21153105F9F0281B2F
:10468000390B2430310580F48A819B8161157105D5
:1046900021F0FB019383828304C09093EE03809307
:1046A000ED03FE01329644C0FE01E20FF31F819339
:1046B000919322503109398328833AC02091EB032A
:1046C0003091EC03232B41F420910201309103013E
:1046D0003093EC032093EB03209100013091010112
:1046E0002115310541F42DB73EB740910401509199
:1046F0000501241B350BE091EB03F091EC03E2176D
:10470000F307A0F42E1B3F0B2817390778F0AC01F4
:104710004E5F5F4F2417350748F04E0F5F1F5093D1
:10472000EC034093EB038193919302C0E0E0F0E04F
:10473000CF01DF91CF911F910F910895CF93DF9318
:10474000009709F481C0FC01329713821282A09174
:10475000ED03B091EE03109781F420813181820F37
:10476000931F2091EB033091EC032817390751F583
:10477000F093EC03E093EB0367C0ED0120E030E041
:10478000CE17DF0740F44A815B819E014115510538
:10479000F1F0EA01F5CFD383C28340815181840FC8
:1047A000951FC817D90759F488819981840F951FDF
:1047B0000296918380838A819B81938382832115D2
:1047C000310529F4F093EE03E093ED033DC0E901D8
:1047D000FB83EA8349915991C40FD51FEC17FD075C
:1047E00061F480819181840F951F0296E90199837C
:1047F0008883828193819B838A83E0E0F0E0129634
:104800008D919C911397009719F0FD01DC01F7CF72
:104810008D919C9111979D012E5F3F4F820F931FA9
:104820002091EB033091EC032817390769F4309796
:1048300029F41092EE031092ED0302C0138212824B
:10484000B093EC03A093EB03DF91CF910895F8941C
:02485000FFCF98
:104852000000EF03200001696D61676537392E6A38
:10486200706700222A2B2C3A3B3C3D3E3F5B5D7C2D
:104872007F00222A2B2C2E3A3B3C3D3E3F5B5D7C47
:104882007F00809A90418E418F8045454549494934
:104892008E8F9092924F994F555559999A9B9C9D04
:1048A2009E9F41494F55A5A5A6A7A8A9AAABAC2191
:1048B200AEAFB0B1B2B3B4B5B6B7B8B9BABBBCBD9E
:1048C200BEBFC0C1C2C3C4C5C6C7C8C9CACBCCCD8E
:1048D200CECFD0D1D2D3D4D5D6D7D8D9DADBDCDD7E
:1048E200DEDFE0E1E2E3E4E5E6E7E8E9EAEBECED6E
:1048F200EEEFF0F1F2F3F4F5F6F7F8F9FAFBFCFD5E
:02490200FEFFB6
:00000001FF
