:1000000045C0000062C0000060C000005EC000008B
:100010005CC000005AC0000058C0000056C000007C
:1000200054C0000052C0000050C000004EC000008C
:100030004CC000004AC0000048C0000046C000009C
:1000400044C0000042C0000040C000003EC00000AC
:100050003CC000003AC0000038C0000036C00000BC
:1000600034C0000032C0000030C000002EC00000CC
:100070002CC000002AC0000028C0000026C00000DC
:1000800024C0000022C0000020C0000011241FBEB8
:10009000CFEFD0E4DEBFCDBF11E0A0E0B1E0EEEAEB
:1000A000FAE400E00BBF02C007900D92A23BB1073B
:1000B000D9F723E0A2EBB1E001C01D92AF3EB20739
:1000C000E1F70E94C60E0C9455259ACFFC019F01C2
:1000D0002F5F3F4F8081882324F495B1906295B9BA
:1000E00003C095B19F7D95B995B1906895B995B1CB
:1000F0009F7795B986FF04C095B1906295B903C00A
:1001000095B19F7D95B995B1906895B995B19F7757
:1001100095B985FF04C095B1906295B903C095B1BA
:100120009F7D95B995B1906895B995B19F7795B92F
:1001300084FF04C095B1906295B903C095B19F7DCD
:1001400095B995B1906895B995B19F7795B983FFA9
:1001500004C095B1906295B903C095B19F7D95B9E2
:1001600095B1906895B995B19F7795B982FF04C014
:1001700095B1906295B903C095B19F7D95B995B140
:10018000906895B995B19F7795B981FF04C095B1F5
:10019000906295B903C095B19F7D95B995B190686E
:1001A00095B995B19F7795B980FF04C085B18062FC
:1001B00085B903C085B18F7D85B985B1806885B962
:1001C00085B18F7785B961507109F90109F07FCF49
:1001D0000895FC0185B1806285B901C0F9011E99BD
:1001E00002C090E001C091E085B1806885B985B119
:1001F0008F7785B9990F1E999F5F85B1806885B902
:1002000085B18F7785B9990F1E999F5F85B18068F9
:1002100085B985B18F7785B9990F1E999F5F85B193
:10022000806885B985B18F7785B9990F1E999F5FD1
:1002300085B1806885B985B18F7785B9990F1E9989
:100240009F5F85B1806885B985B18F7785B9990F32
:100250001E999F5F85B1806885B985B18F7785B913
:10026000990F1E999F5F25B1206825B925B12F7779
:1002700025B99F012F5F3F4F90836150710909F0AD
:10028000ADCF089560EC73EA82E093E4089584B101
:10029000846084B985B1846085B984B1886084B98B
:1002A00085B1886085B984B1806A84B908950F9357
:1002B0001F93CF93DF9300D0CDB7DEB789836A83D6
:1002C00085B101E010E002C0000F111F4A95E2F76E
:1002D000902F9095892385B962E070E0CE01019658
:1002E000F5DE85B1082B05B90F900F90DF91CF9106
:1002F0001F910F9108950F931F93CF93DF931F9238
:10030000CDB7DEB7898385B101E010E002C0000FF0
:10031000111F6A95E2F7902F9095892385B961E0C6
:1003200070E0CE010196D2DE61E070E0CE01019670
:1003300050DF85B1082B05B989810F90DF91CF91EE
:100340001F910F910895CF93C82F482F61E084E843
:10035000AEDF4C2F61E084E8AADF4C2F60E184E837
:10036000A6DF4C2F60E284E8A2DF4C2F62E084E835
:100370009EDF6C2F81E4BFDF83FFFBCFCF91089519
:100380001092B9008CE08093B80081B1806C81B983
:1003900082B18F7B82B982B18F7782B9089594EA56
:1003A0009093BC009091BC009923E4F79091B90020
:1003B000987F983011F0903191F48093BB0084E8DD
:1003C0008093BC008091BC008823E4F78091B90041
:1003D000887F883131F0803431F480E0089581E005
:1003E000089580E0089581E008958093BB0084E83B
:1003F0008093BC008091BC008823E4F78091B90011
:10040000887F883211F081E0089580E008951F937D
:10041000CF93DF93182FD62FC42F88E7C0DF812F0B
:10042000E4DF8D2FE2DF8C2FE0DFDF91CF911F9192
:1004300008951F93CF93DF93D82FC62F142F642FC7
:100440005ADF682F6C2B412F8D2F806830DFDF91B2
:10045000CF911F91089543E963E081E3D8DF42E83B
:1004600068E080E3D4DF4FE767E180E3D0DF4CEF63
:1004700068E180E3CCDF42EC60E188E3C8DF40EF75
:1004800065E186E3C4DF40E060E080E3C0DF40E098
:1004900061E080E3BCDF4CE562E080E3B8DF40E090
:1004A00063E080E3B4DF4FEF64E080E3B0DF4FEF61
:1004B00065E080E3ACDF43E466E080E3A8DF47E388
:1004C00067E080E3A4DF48E061E180E3A0DF40E192
:1004D00060E180E39CDF42E26CE086E498DF44E088
:1004E00065E188E394DF40EA6CE087E390DF4CEF5E
:1004F00062E086E38CDF4FEF62E186E388DF40EC69
:1005000064E386E384DF40E063E186E380DF4CE779
:1005100065E086E37CDF49E061E286E378DF40E680
:1005200062E286E374DF40E464E086E370DF47EA7A
:1005300063E086E36CDF47E263E086E368DF41E285
:1005400060E080E464DF42E26DE180E460DF44E586
:1005500060E086E35CDF44E065E086E358DF4FE37C
:1005600066E086E354DF40E861E08CE350DF4FE46F
:1005700060E080E54CDF44E060E280E548DF49E789
:1005800061E881E544DF40E062E881E540DF42E286
:1005900065E881E53CDF41E067E981E538DF4FEF61
:1005A00061E080E534DF4AE060E085E530DF40E08F
:1005B00064E085E52CDF4FE765E085E528DF48E06E
:1005C00060E880E524DF48E16EE080E320DF40E082
:1005D00060E186E41CDF45E06DE187E418DF46E07A
:1005E00068E087E414DF42E068E088E310DF40E879
:1005F00069E088E30CDF41E06AE088E308DF40EE71
:100600006BE088E304DF47E06EE088E300DF40ED65
:100610006FE088E3FCDE40E06FE180E5F8DE4FE468
:1006200060E080E5F4DE40E360E083E4F0DE47E094
:1006300063E085E3ECDE43E761E085E3E8DE40E884
:1006400062E085E3E4DE40E06BE085E3E0DE47E086
:1006500063E085E3DCDE41E164E288E3D8DE4EE17D
:1006600061E085E3D4DE40E862E085E3D0DE4FE779
:100670006BE085E3CCDE4CE06CE088E3C8DE40E86C
:100680006DE088E3C4DE43E06EE088E3C0DE48EE60
:100690006FE088E3BCDE44E06DE08AE3B8DE43E06F
:1006A0006EE08AE3B4DE41EC68E188E3B0DE4BED56
:1006B00065E087E3ACDE41E86AE087E3A8DE40E876
:1006C00061E088E3A4DE47E861E286E3A0DE40E57E
:1006D00061E088E39CDE48E063E088E398DE48E080
:1006E00067E288E394DE40E460E188E390DE45E081
:1006F00064E088E38CDE40E065E088E388DE45E086
:1007000062E886E584DE40E063E886E580DE43E07B
:1007100066E088E37CDE40EC67E088E378DE43E077
:1007200066E886E574DE4CEB67E886E570DE48E750
:1007300060E08AE36CDE45E06AE18AE368DE40E37C
:1007400063E18AE364DE40E068E18AE360DE4CE76F
:1007500069E18AE35CDE42E168E08AE358DE40EC6E
:1007600069E08AE354DE4FE06AE08AE350DE40EA63
:100770006BE08AE34CDE47E06CE085E348DE40ED69
:100780006DE085E344DE40E060E085E340DE40E08C
:1007900061E085E33CDE40E062E085E338DE40E096
:1007A0006AE085E334DE40E06BE085E330DE40E084
:1007B00063E085E32CDE42E06AE882E528DE44E07F
:1007C0006BE882E524DE48E06CE882E520DE48E064
:1007D0006DE882E51CDE48E06EE882E518DE40E167
:1007E0006FE882E514DE40E160E982E510DE40E07A
:1007F00062E982E50CDE42E063E982E508DE40E082
:1008000064E982E504DE42E065E982E500DE40E07D
:1008100066E982E5FCDD42E067E982E5F8DD40E07B
:1008200068E982E5F4DD42E069E982E5F0DD40E077
:100830006AE982E5ECDD42E06BE982E5E8DD40E073
:100840006CE982E5E4DD42E06DE982E5E0DD40E06F
:100850006EE982E5DCDD42E06FE982E5D8DD4BE060
:1008600060E380E3D4DD40E062E08AE3D0DD4DE781
:1008700063E08AE3CCDD40E064E08AE3C8DD40E089
:1008800064E18AE3C4DD4DE765E18AE3C0DD40E071
:1008900066E18AE3BCDD48E760E08AE3B8DD49E071
:1008A00068E08AE3B4DD40E669E08AE3B0DD47E072
:1008B0006AE08AE3ACDD40ED6BE08AE3A8DD48E066
:1008C0006DE08AE3A4DD46E06EE08AE3A0DD40E768
:1008D00063E981E59CDD44E06BE988E598DD45EC62
:1008E0006AE988E594DD40E26EE180E490DD42E46F
:1008F00061E080E48CDD44E06CE180E488DD41E08F
:100900006AE882E584DD44E06BE882E580DD48E06A
:100910006CE882E57CDD40E16DE882E578DD40E26F
:100920006EE882E574DD48E26FE882E570DD40E361
:1009300060E982E56CDD40E062E982E568DD41E086
:1009400063E982E564DD40E064E982E560DD44E07E
:1009500065E982E55CDD40E066E982E558DD48E076
:1009600067E982E554DD40E068E982E550DD40E179
:1009700069E982E54CDD40E06AE982E548DD40E274
:100980006BE982E544DD40E06CE982E540DD48E268
:100990006DE982E53CDD40E06EE982E538DD40E36B
:1009A0006FE982E534DD40E062E882E530DD40E079
:1009B00060E083E52CDD40E261E083E528DD40E096
:1009C00062E083E524DD4CE763E083E520DD40E081
:1009D0006CE083E51CDD4CE06DE083E518DD40E272
:1009E0006EE083E514DD40E86FE083E510DD40E272
:1009F00060E183E50CDD40E861E183E508DD40E28C
:100A000068E083E504DD40E469E083E500DD40E083
:100A100064E083E5FCDC40E365E083E5F8DC40E08E
:100A200066E083E5F4DC40E867E083E5F0DC48E07D
:100A300064E183E5ECDC40E265E183E5E8DC40E38A
:100A400069E183E5E4DC40E166E183E5E0DC40E088
:100A500067E183E5DCDC42E068E183E5D8DC4FE375
:100A600062E084E5D4DC40E063E084E5D0DC40E093
:100A700066E084E3CCDC4FEF60E881E5C8DC42E56A
:100A800061E881E5C4DC41E162E881E5C0DC44E184
:100A900063E881E5BCDC45E264E881E5B8DC44E27A
:100AA00065E881E5B4DC46E066E881E5B0DC48E075
:100AB00067E881E5ACDC48E068E881E5A8DC4CE764
:100AC00069E881E5A4DC40E66AE881E5A0DC42EB68
:100AD0006BE881E59CDC42EB6CE881E598DC44E462
:100AE0006DE881E594DC4DE36EE881E590DC48E556
:100AF0006FE881E58CDC46E460E981E588DC48EF5D
:100B000061E981E584DC44E062E981E580DC40E77D
:100B100063E981E57CDC40EF64E981E578DC40EF66
:100B200065E981E574DC43E066E981E570DC41E07C
:100B300067E981E56CDC44E068E981E568DC42E175
:100B400069E981E564DC44E06AE981E560DC40E074
:100B50006BE981E55CDC46E06CE981E558DC42E864
:100B60006DE981E554DC40E06EE981E550DC40E868
:100B700065E280E54CDC40E463E885E548DC40E480
:100B800064E885E544DC42E060E885E540DC4FEC64
:100B900060E080E53CDC40E160E187E338DC41E592
:100BA00062E386E334DC40E162E087E330DC42EB81
:100BB00063E087E32CDC48E164E087E328DC40E481
:100BC0006BE087E324DC43E06DE087E320DC41E079
:100BD00061E386E31CDC42E562E386E318DC44E281
:100BE00066E086E314DC46E960E286E310DC47E079
:100BF00065E887E50CDC40E363E18AE308DC42E575
:100C000060E086E304DC48E464E086E300DC4BE17A
:100C100066E086E3FCDB4BE06DE087E3F8DB40EC6D
:100C20006FE087E3F4DB41E069E087E3F0DB40E07D
:100C300063E288E3ECDB40E067E080E5E8DB40E08E
:100C400069E080E5E4DB40E061E180E5E0DB40E095
:100C500063E180E5DCDB40E06EE981E5D8DB40E084
:100C600066E880E5D4DB40E067E880E5D0DB40E083
:100C700068E880E5CCDB40E069E880E5C8DB40E07F
:100C80006BE280E3C4DB41E068E088E3C0DB40E482
:100C900069E088E3BCDB40E06AE088E3B8DB40EF72
:100CA0006BE088E3B4DB48E760E08AE3B0DB4FEF5A
:100CB00061E080E5ACDB40E563E885E5A8DB40E585
:100CC00064E885E5A4DB42E060E885E5A0DB40E878
:100CD00061E08CE39CDB44E060E08CE398DB48E47B
:100CE00060E088E594DB41E361E088E590DB41E288
:100CF00062E088E58CDB4BE163E088E588DB4AE174
:100D000064E088E584DB4EE165E088E580DB49E26C
:100D100066E088E57CDB48E367E088E578DB46E26F
:100D200068E088E574DB47E169E088E570DB41E174
:100D30006AE088E56CDB4EE06BE088E568DB4DE05F
:100D40006CE088E564DB4EE06DE088E560DB43E164
:100D50006EE088E55CDB4AE16FE088E558DB45E161
:100D600060E188E554DB4DE061E188E550DB48E077
:100D700062E188E54CDB45E063E188E548DB44E07F
:100D800064E188E544DB45E065E188E540DB49E076
:100D900066E188E53CDB4DE067E188E538DB41E171
:100DA00068E188E534DB4AE069E188E530DB44E06E
:100DB0006AE188E52CDB40E06BE188E528DB40E078
:100DC0006CE188E524DB41E06DE188E520DB46E06D
:100DD0006EE188E51CDB49E06FE188E518DB42E164
:100DE00060E288E514DB4BE061E288E510DB44E07B
:100DF00062E288E50CDB40E063E288E508DB40E086
:100E000064E288E504DB41E065E288E500DB46E07A
:100E100066E288E5FCDA4AE067E288E5F8DA47E16D
:100E200068E288E5F4DA4FE069E288E5F0DA49E063
:100E30006AE288E5ECDA46E06BE288E5E8DA45E06C
:100E40006CE288E5E4DA46E06DE288E5E0DA4AE063
:100E50006EE288E5DCDA4EE06FE288E5D8DA48E257
:100E600060E388E5D4DA4AE161E388E5D0DA41E17C
:100E700062E388E5CCDA4EE063E388E5C8DA4EE069
:100E800064E388E5C4DA4FE065E388E5C0DA45E16C
:100E900066E388E5BCDA4DE167E388E5B8DA4EE65B
:100EA00068E388E5B4DA49E369E388E5B0DA47E264
:100EB0006AE388E5ACDA4FE16BE388E5A8DA4EE156
:100EC0006CE388E5A4DA43E26DE388E5A0DA4FE25B
:100ED0006EE388E59CDA41E46FE388E598DA4EE05A
:100EE00060E488E594DA4CE061E488E590DA4DE06E
:100EF00062E488E58CDA4CE063E488E588DA4CE06B
:100F000064E488E584DA4CE065E488E580DA4CE066
:100F100066E488E57CDA4CE067E488E578DA4DE061
:100F200068E488E574DA4EE069E488E570DA4EE05A
:100F30006AE488E56CDA4AE06BE488E568DA4EE05A
:100F40006CE488E564DA4EE06DE488E560DA40E15F
:100F50006EE488E55CDA40E16FE488E558DA41E167
:100F600060E588E554DA4AE061E588E550DA4FE06B
:100F700062E588E54CDA4EE063E588E548DA40E171
:100F800064E588E544DA40E165E588E540DA40E17A
:100F900066E588E53CDA4AE067E588E538DA4EE060
:100FA00068E588E534DA4EE069E588E530DA4FE057
:100FB0006AE588E52CDA4FE06BE588E528DA4FE052
:100FC0006CE588E524DA4AE06DE588E520DA49E059
:100FD0006EE588E51CDA4DE06FE588E518DA4CE04F
:100FE00060E688E514DA4BE061E688E510DA4DE06A
:100FF00062E688E50CDA47E063E688E508DA47E16F
:1010000064E688E504DA44E165E688E500DA48E16B
:1010100066E688E5FCD948E167E688E5F8D946E167
:1010200068E688E5F4D942E169E688E5F0D94BE164
:101030006AE688E5ECD94AE16BE688E5E8D946E15D
:101040006CE688E5E4D946E16DE688E5E0D948E15B
:101050006EE688E5DCD94FE16FE688E5D8D94CE14A
:1010600060E788E5D4D946E161E788E5D0D940E179
:1010700062E788E5CCD94FE063E788E5C8D943E16A
:1010800064E788E5C4D94CE165E788E5C0D94EE15D
:1010900066E788E5BCD947E167E788E5B8D941E16B
:1010A00068E788E5B4D941E169E788E5B0D944E16A
:1010B0006AE788E5ACD94EE16BE788E5A8D94CE151
:1010C0006CE788E5A4D94CE16DE788E5A0D94AE151
:1010D0006EE788E59CD94AE16FE788E598D94BE14E
:1010E00060E888E594D94FE161E888E590D944E16A
:1010F00062E888E58CD94AE163E888E588D94DE162
:1011000064E888E584D94EE165E888E580D94AE15C
:1011100066E888E57CD94AE167E888E578D94FEF49
:1011200060E881E574D942E561E881E570D941E183
:1011300062E881E56CD944E163E881E568D945E27C
:1011400064E881E564D944E265E881E560D944E179
:1011500066E881E55CD944E167E881E558D944E176
:1011600068E881E554D949E669E881E550D940E667
:101170006AE881E54CD942EA6BE881E548D94CE957
:101180006CE881E544D946E36DE881E540D944E364
:101190006EE881E53CD944E56FE881E538D94CE457
:1011A00060E981E534D948EF61E981E530D944E06F
:1011B00062E981E52CD940E763E981E528D940EF70
:1011C00064E981E524D940EF65E981E520D943E070
:1011D00066E981E51CD941E067E981E518D945E078
:1011E00068E981E514D94FE269E981E510D944E065
:1011F0006AE981E50CD940E06BE981E508D946E070
:101200006CE981E504D940EA6DE981E500D940EA5D
:101210006EE981E5FCD840E06AE882E5F8D841E073
:101220006BE882E5F4D844E06CE882E5F0D848E069
:101230006DE882E5ECD840E16EE882E5E8D840E26E
:101240006FE882E5E4D840E360E982E5E0D840E079
:1012500062E982E5DCD840E063E982E5D8D840E085
:1012600064E982E5D4D841E065E982E5D0D840E080
:1012700066E982E5CCD844E067E982E5C8D840E079
:1012800068E982E5C4D848E069E982E5C0D840E071
:101290006AE982E5BCD840E16BE982E5B8D840E074
:1012A0006CE982E5B4D840E26DE982E5B0D840E06F
:1012B0006EE982E5ACD840E36FE982E5A8D840E06A
:1012C00062E882E5A4D840E060E083E5A0D840E28F
:1012D00061E083E59CD840E062E083E598D84CE784
:1012E00063E083E594D840E06CE083E590D840E18A
:1012F0006DE083E58CD840E26EE083E588D840E875
:101300006FE083E584D840E260E183E580D840E87F
:1013100061E183E57CD840E268E083E578D840E489
:1013200069E083E574D840E064E083E570D840E389
:1013300065E083E56CD840E066E083E568D840E886
:1013400067E083E564D848E064E183E560D840E283
:1013500065E183E55CD840E369E183E558D840E185
:1013600066E183E554D840E067E183E550D842E088
:1013700068E183E54CD841E060E883E548D840E087
:1013800061E883E544D840E062E883E540D84FE176
:1013900063E883E53CD840E064E883E538D846E07C
:1013A00065E883E534D840E066E883E530D840E07E
:1013B00067E883E52CD840E068E883E528D841EE6B
:1013C00069E883E524D840E06AE883E520D84BE269
:1013D0006BE883E51CD840E06CE883E518D840E072
:1013E0006DE883E514D840E06EE883E510D840E16D
:1013F0006FE883E50CD840E060E983E508D843EB6B
:1014000061E983E504D840E062E983E500D846EA73
:1014100063E983E50E94070248E064E983E50E94EE
:1014200007024CE060E884E50E94070248E161E8B9
:1014300084E50E9407024FE262E884E50E94070209
:1014400045E563E884E50E94070244E664E884E534
:101450000E94070241E765E884E50E9407024DE724
:1014600066E884E50E94070247E867E884E50E9491
:10147000070241E968E884E50E9407024AE969E851
:1014800084E50E9407024AEA6AE884E50E940702AE
:1014900048EB6BE884E50E9407024DEC6CE884E5BC
:1014A0000E9407024DED6DE884E50E9407024AEEB6
:1014B0006EE884E50E9407024DE16FE884E50E9432
:1014C000070245E060E984E50E94070240E061E927
:1014D00084E50E94070244E062E984E50E94070275
:1014E00040E263E984E50E94070243E064E984E5A1
:1014F0000E94070240E665E984E50E94070242E097
:1015000066E984E50E94070248EB67E984E50E94EA
:10151000070242E068E984E50E94070246E869E9BB
:1015200084E50E94070242E06AE984E50E9407021E
:101530004BE56BE984E50E94070242E06CE984E533
:101540000E9407024BE36DE984E50E94070242E036
:101550006EE984E50E9407024CE16FE984E50E9490
:10156000070242E060EA84E50E94070244E061EA83
:1015700084E50E94070241E062EA84E50E940702D6
:101580004DEE63EA84E50E94070241E064EA84E5E7
:101590000E94070245EC65EA84E50E94070241E0EB
:1015A00066EA84E50E94070245EA67EA84E50E944C
:1015B000070241E068EA84E50E9407024CE669EA16
:1015C00084E50E94070241E06AEA84E50E9407027E
:1015D00041E46BEA84E50E94070241E06CEA84E59D
:1015E0000E94070240E26DEA84E50E94070240E0A3
:1015F0006EEA84E50E94070246E16FEA84E50E94F4
:10160000070241E060EB84E50E94070240E261EBE3
:1016100084E50E94070240E062EB84E50E94070235
:1016200040E163EB84E50E94070240E064EB84E55F
:101630000E94070240EF65EB84E50E94070240E04C
:1016400066EB84E50E9407024FED67EB84E50E949C
:1016500007024FE362E084E50E94070240E063E096
:1016600084E50E94070240E160E085E50E940702F0
:1016700040E062E085E50E94070246E063E085E520
:101680000E94070240E064E085E50E9407024FE700
:1016900065E085E50E94070240E865E280E50E947A
:1016A000070240E36FE08AE30E94070248E260E13C
:1016B0008AE30E94070240E36BE18AE30E9407028B
:1016C00048E26EE18AE30E94070241E661E18AE3B3
:1016D0000E94070240E16FE18AE30E9407024DEF9A
:1016E00068E886E50E9407024FED69E886E50E94FA
:1016F00007024EEF6AE886E50E9407024FEE6BE8AC
:1017000086E50E9407024EEF6CE886E50E9407021C
:101710004FEE6DE886E50E9407024AEA6EE886E52C
:101720000E9407024AEA6FE886E50E9407024FEF2F
:101730006FEF8FEF0C940702089547E063E085E3B5
:101740000E94070240E060E080E30E94070240E060
:1017500061E080E30E94070240E062E080E30E94D3
:10176000070240E063E080E30E9407024FEF65E07C
:1017700080E30E9407024FEF66E080E30E940702C9
:101780004FE367E080E30E94070247E06CE085E3F7
:101790000E94070240ED6DE085E30E94070244EEDF
:1017A00062E086E30E9407024CEA62E186E30E945F
:1017B000070244E463E186E30E94070247E261E234
:1017C00086E30E94070248E062E286E30E94070285
:1017D00042E263E286E30E94070240E664E086E3B9
:1017E0000E9407024AED65E087E30E94070240E895
:1017F0006AE087E30E9407024AE861E088E30E940A
:1018000007024AE063E088E30E9407024AE064E0DE
:1018100088E30E94070240E265E088E30E94070235
:1018200047E066E088E30E94070248E967E088E352
:101830000E9407024AE068E088E30E94070240E253
:1018400069E088E30E94070247E06AE088E30E94BB
:10185000070248E96BE088E30E9407024CE06CE075
:1018600088E30E94070240E86DE088E30E940702D7
:1018700047E06EE088E30E94070240ED6FE088E3F6
:101880000E94070242EC60E188E30E94070244E400
:1018900065E188E30E94070248EC68E188E30E9462
:1018A000070241E064E288E30E9407024AE067E23F
:1018B00088E30E94070248E760E08AE30E9407028B
:1018C00040E16DE08AE30E9407024DE06EE08AE3AA
:1018D0000E94070242E360E18AE30E9407024CE3B0
:1018E0006BE18AE30E94070242E36EE18AE30E9411
:1018F000070240E861E18AE30E94070240E26FE1EB
:101900008AE30E94070248E760E08AE30E94070238
:1019100045E36BE086E40E94070240E06DE187E466
:101920000E94070243E063E187E40E94070240E56A
:101930006CE187E40E9407024AE062E886E50E94C3
:10194000070240E263E886E50E94070247E066E896
:1019500086E50E94070248E967E886E50E940702DB
:101960004FE461E080E50E94070240E06BE988E512
:101970000E94070240EC6AE988E50E94070244E001
:1019800067E084E40E94070240E06BE988E50E947A
:10199000070240EC6AE988E50E9407024CE062E039
:1019A00080E30E94070240E062E080E30E940702B9
:1019B00040E063E085E30E94070240E160E180E3EC
:1019C0000E94070248E061E180E30E9407024FEFB6
:1019D00060E080E50E9407024FEF6FEF8FEF0C94FD
:1019E0000702089541E060E088E30E94070248EAA8
:1019F00061E088E30E94070240E062E088E30E9421
:101A000007024AE063E088E30E9407024AE064E0DC
:101A100088E30E94070240E265E088E30E94070233
:101A200047E066E088E30E94070248E967E088E350
:101A30000E94070241E068E088E30E94070240E458
:101A400069E088E30E94070240E06AE088E30E94C0
:101A5000070240EF6BE088E30E9407024CE06CE075
:101A600088E30E94070240E86DE088E30E940702D5
:101A700047E06EE088E30E94070240ED6FE088E3F4
:101A80000E9407024FE761E080E50E94070240E004
:101A900060E886E50E94070240E061E886E50E9472
:101AA00007024AE062E886E50E94070240E263E836
:101AB00086E50E94070240E064E886E50E9407028E
:101AC00040E065E886E50E94070247E066E886E5B3
:101AD0000E94070248E967E886E50E9407024FEF87
:101AE0006FEF8FEF0C9407020895CF93C82F8230C9
:101AF00021F485B18F7E85B905C0833019F485B195
:101B0000806185B94C2F60E887E80E9457014C2F0F
:101B100060E087E80E94570140E868E080E30E94A7
:101B200007020E942B0209DE5DDF87EA91E601973A
:101B3000F1F700C0000048EA68E188E30E9407026C
:101B400040E161E286E30E94070240EB61E088E346
:101B50000E94070248E067E084E40E94070240E038
:101B600068E888E50E9407024FEF60E080E50E9488
:101B700007024C2F62E083E00E9419024C2F60E0C4
:101B800081E80E945701CF910895AF92BF92CF9202
:101B9000DF92EF92FF920F931F93CF93DF93CDB716
:101BA000DEB7C250D1400FB6F894DEBF0FBECDBF36
:101BB000B82E6B018FE493EC0197F1F700C00000A1
:101BC00064EB71E080E00E94AC1A80E290E00E9439
:101BD00034249093B3018093B20190E010E0AA24E2
:101BE000A394E12CF12C0DC07C0109C0A12CE12CA7
:101BF000F12C05C0E12CF12C02C0E12CF12C912F2D
:101C0000102F81E0193D09F080E0882331F081E058
:101C10009F3F09F080E081116EC06B2D8DE30E9423
:101C20007B01082FC7010196E3E0F0E0EC0FFD1FF8
:101C3000EE0DFF1D0083E5E0EA95F1F78F3F91057A
:101C400099F294F29BB181E089278BB9AA2029F1FE
:101C50008BB182608BB94AE0B6018091B20190915C
:101C6000B3010E94CA1A8111C1CF9E012F5F3F4F5D
:101C700040E051E0BE016D5F7F4F8091B2019091D5
:101C8000B3010E94D61B8091B2019091B3010E94D2
:101C9000C51DA12CE12CF12CB2CF42E1B6018091FF
:101CA000B2019091B3010E94CA1A8111A3CF809111
:101CB000B2019091B301FC0142855385648575851D
:101CC0000E94D01D811199CF9E012F5F3F4F40E0B0
:101CD00051E0BE016D5F7F4F8091B2019091B301E1
:101CE0000E94D61B8091B2019091B3010E94C51D44
:101CF000E12CF12C84CF1E141F045CF542E1B601E7
:101D00008091B2019091B3010E94CA1A811121C041
:101D10008091B2019091B301FC01428553856485A5
:101D200075850E94D01D811114C09E012F5F3F4F09
:101D300040E051E0BE016D5F7F4F8091B201909114
:101D4000B3010E94D61B8091B2019091B3010E9411
:101D5000C51D8091B2019091B3010E94C51D4B2D0C
:101D600061E084E80E945701CE5FDE4F0FB6F89421
:101D7000DEBF0FBECDBFDF91CF911F910F91FF90BE
:101D8000EF90DF90CF90BF90AF9008958AB18160BF
:101D90008AB98AB182608AB984B1806184B98BB111
:101DA0008E7F8BB98BB18D7F8BB985B18F7E85B9D5
:101DB00064E080E00E9447010E94C00182E095DE5D
:101DC00082E00E94A30167E071E082E0DEDE8BB179
:101DD00081608BB98BB182608BB980E090E008950F
:101DE000DC01FB014230510538F0819191918D93D6
:101DF0009D9342505109F6CFCA010197452B31F00E
:101E000020812C93AC0131961196F6CF0895FC01F8
:101E1000CA010197452B21F06083AC013196F8CFC0
:101E20000895CF93DF93EC01DB0180E090E0FA01AD
:101E30003197452B81F09E012F5F3F4F888190E0C5
:101E4000AD014F5F5F4F6C91861B910931F4DA0150
:101E5000E90121E005C020E003C0DA01E90120E04A
:101E6000AF012111E4CFDF91CF910895FC01808172
:101E7000882339F0282F30E02617370711F03196E4
:101E8000F6CF90E008950F931F93DC01FB01628D64
:101E9000738D80E090E02C91233059F404891589EA
:101EA00020E030E0980111270027602B712B822B56
:101EB000932B1F910F910895FC01538F428F758BC7
:101EC000648B08954F925F926F928F929F92AF9220
:101ED000BF92CF92DF92EF92FF921F93CF93DF9347
:101EE000FC015B01DB01CD91DC9198819F3211F007
:101EF0009C3511F42196F9CFC488D5884BE050E089
:101F000060E270E0C60183DF412C512C80E090E05C
:101F10006894882483F8912C612C01C0C7017C014E
:101F2000BFEFEB1AFB0AFE01E80FF91F1081113217
:101F300008F449C01F3209F446C01C3509F443C0F7
:101F40001E3219F048145904A0F0E8E08E169104EE
:101F500009F05FC01E3209F05EC0660C660C689422
:101F6000442443F8512C0F2EFBE08F2E912CF02DA2
:101F7000D5CF112344F4F62DF3606F2EE12FF0E05E
:101F8000EF54FF4F1081612F70E082E191E06EDF2E
:101F9000892B09F042C08FEB810F8A3120F4262D66
:101FA0002260622E08C08FE9810F8A3120F4862DCD
:101FB0008160682E1052F601E40DF51D1083D201E8
:101FC00011962D01ABCFCE0DDF1DF501D183C0835E
:101FD000113210F494E001C090E0452801F1D601DF
:101FE0008C91853E11F485E08C93B8E08B169104BA
:101FF00011F4660C660C862D8370813009F49061B3
:10200000862D8C70843009F49860F601938780E007
:1020100007C086E005C086E003C086E001C086E018
:10202000DF91CF911F91FF90EF90DF90CF90BF9005
:10203000AF909F908F906F905F904F9008950F9307
:10204000CF93DF93EC019A01AB01BC016E5C7F4F33
:1020500001E089810E947C22811122C0FE01E05DA5
:10206000FD4F8081918185359A4AE1F4E85CF14029
:1020700080819181A281B381BB2786349144A4459C
:10208000B10591F0CC57DF4F88819981AA81BB813E
:10209000BB2786349144A445B10541F480E007C0D4
:1020A00083E005C082E003C080E001C081E0DF91F1
:1020B000CF910F9108958F929F92AF92BF92CF923E
:1020C000DF92EF92FF920F93CF93DF93FC01248175
:1020D000222309F442C0EC01C6A4D7A4E0A8F1A8C9
:1020E0004C01F2E38F0E911C01E0A7019601B401AF
:1020F00089810E94D222811132C01C828AA19BA1B7
:10210000ACA1BDA1C816D906EA06FB0650F14A8D5E
:102110005B8D6C8D7D8D840F951FA61FB71FC81614
:10212000D906EA06FB06F8F4AB80B12C82E0A816CB
:10213000B104D8F08A8D9B8DAC8DBD8DC80ED91E93
:10214000EA1EFB1E01E0A7019601B40189810E94ED
:10215000D222E1E0AE1AB108E9CF80E007C081E009
:1021600005C080E003C080E001C080E0DF91CF9136
:102170000F91FF90EF90DF90CF90BF90AF909F9026
:102180008F900895CF92DF92EF92FF920F931F935B
:10219000CF93DF93FC01C6A4D7A4E0A8F1A8C4168E
:1021A000D506E606F706B9F06A017B01EC0183DF8C
:1021B000182F811112C001E0A7019601BE016E5CCB
:1021C0007F4F89810E947C22811109C0CEA6DFA6A3
:1021D000E8AAF9AA05C010E003C011E001C011E0AF
:1021E000812FDF91CF911F910F91FF90EF90DF90A2
:1021F000CF9008950097C9F0DC01ED91FC91119703
:102200003097A9F020812223A1F0268137811296F0
:102210008D919C9113972817390769F481810E9449
:10222000A52180FF0AC083E0089589E0089589E030
:10223000089589E0089589E0089580E008952F9237
:102240003F924F925F926F927F928F929F92AF9246
:10225000BF92CF92DF92EF92FF920F931F93CF9393
:10226000DF93CDB7DEB72E970FB6F894DEBF0FBE63
:10227000CDBFDC01ED91FC91E080F12CB0E3EB1AD5
:10228000F1082AE0E216F10440F421812A3341F4F6
:102290003296DC01ED93FC9305C0E12CF12C02C0D9
:1022A000E12CF12CFB0111821082E114F10409F000
:1022B0002AC2F701EE0FFF1FE851FC4F808091808A
:1022C0009E868D868114910409F41FC2142FFB0190
:1022D00091828082D4018C91882369F011968C912F
:1022E0000E94A52180FD07C0112309F410C282FDC0
:1022F00010C280E02DC2ED85FE851082E1828E2D18
:102300000E94AC2180FD07C2112311F082FD05C29D
:1023100040E050E0BA018D859E8591DE813089F4E0
:10232000ED85FE85E051FE4F9481992371F0C084C4
:10233000D184E284F384B701A6018D859E857FDE7A
:1023400007C0C12CD12C760103C0C12CD12C760141
:10235000833009F4E4C18111E4C1AD85BE85DD9609
:102360008D919C91DE978115924009F0DCC1ED853D
:10237000FE85E85BFF4F808191812C01612C712CDF
:10238000411451046104710441F4ED85FE85EA5A5B
:10239000FF4F4080518062807380ED85FE85428EC4
:1023A000538E648E758EEE5BFF4FA081ED85FE85AA
:1023B000A3838FEF8A0F823008F0B7C1B0E0A3018A
:1023C00092010E941B246D837E838F83988727ADA3
:1023D0002283222309F4ABC1422F50E0CA010197A6
:1023E00084239523892B09F0A4C1ED5BFF4F208046
:1023F0003180AD85BE8519963C922E921897C10109
:102400008F709927892B09F096C1FD01EB5BFF4F77
:1024100060817181CB01A0E0B0E00097A105B1051A
:1024200041F4ED85FE85EE5AFF4F80819181A281B6
:10243000B381ED85FE85E05CFF4F40815181411500
:10244000510509F47AC14A01A12CB12C89869A86DA
:10245000AB86BC868D809E80AF80B88449855A85C6
:102460006B857C85840E951EA61EB71EF101F29524
:10247000E295EF70EF27FF70EF27B501A4014E0F33
:102480005F1F611D711D49835A836B837C83841791
:102490009507A607B70708F452C1BC01CD01898092
:1024A0009A80AB80BC80681979098A099B0930E061
:1024B00040E050E00E94F923DA01C90121153105FD
:1024C0004105510509F43DC1263F6FE0360741053E
:1024D000510510F411E001C012E0863F9F4FA105A5
:1024E000B10508F013E049015A0182E0880E911C01
:1024F000A11CB11CAD85BE8556968D929D92AD9264
:10250000BC925997FD01C68ED78EE0A2F1A28985B3
:102510009A85AB85BC858C0D9D1DAE1DBF1D82A30C
:1025200093A3A4A3B5A349815A816B817C814C0DEF
:102530005D1D6E1D7F1D42A753A764A775A71330AD
:10254000C1F4232809F0FFC0E25AFF4F8081918136
:10255000A281B381ED85FE8586A397A3A0A7B1A72D
:10256000880C991CAA1CBB1C880C991CAA1CBB1C9F
:102570002DC0232809F4E9C02D813E814F81588563
:10258000820F931FA41FB51FED85FE8586A397A319
:10259000A0A7B1A7123029F4880C991CAA1CBB1C57
:1025A00015C0A3E0B0E0A50194010E941B24DC014A
:1025B000CB01B695A79597958795F1E08F22992441
:1025C000AA24BB24880E991EAA1EBB1E2FEF820EC2
:1025D00021E0921EA11CB11C072E79E0B694A794AD
:1025E000979487947A95D1F7702D481459046A040A
:1025F0007B0408F4ACC08FEF9FEFDC01ED85FE8516
:1026000086879787A08BB18BDF011286138614868D
:102610001586133009F05FC01582EE59FF4F808197
:102620009181A7019601280F391F411D511DFD0100
:10263000228B338B448B558B01E0BD016E5C7F4F49
:1026400081810E947C22811123C0ED85FE85E05DA1
:10265000FD4F8081918185359A4AE1F4ED85FE85B3
:1026600082A993A9A4A9B5A982359245A146B144EE
:1026700099F4ED85FE85EA5EFD4F80819181A2810E
:10268000B38182379247A144B14641F080E007C050
:1026900080E005C080E003C080E001C081E08823C5
:1026A000D1F0ED85FE85E25EFD4F80819181A281B2
:1026B000B381ED85FE8582879387A487B587E65E23
:1026C000FD4F80819181A281B381ED85FE85868752
:1026D0009787A08BB18BAD85BE851C938091E60357
:1026E0009091E70301969093E7038093E603179692
:1026F0009C938E931697FD0116A617A610AA11AAF1
:10270000148280E025C08BE023C08CE021C080E0F3
:102710001FC08AE01DC083E01BC08AE019C081E0B1
:1027200017C08DE015C08DE013C08DE011C08DE0A5
:102730000FC08DE00DC08DE00BC08DE009C08DE0B5
:1027400007C08DE005C08DE003C08DE001C08DE0C5
:102750002E960FB6F894DEBF0FBECDBFDF91CF919E
:102760001F910F91FF90EF90DF90CF90BF90AF90AF
:102770009F908F907F906F905F904F903F902F90A1
:102780000895EF92FF920F931F93CF93DF93EC0185
:1027900092DC182F811152C08881833009F046C025
:1027A0008D81882309F442C01EA61FA618AA19AA63
:1027B00040E052E060E070E07E0182E3E80EF11C50
:1027C000C70125DB85E59AEAFE01E05DFD4F9183B7
:1027D000808382E592E5A1E6B1E48AAB9BABACAB2A
:1027E000BDAB82E792E7A1E4B1E67A97808391835B
:1027F000A283B3838E859F85A889B9893496808307
:102800009183A283B3838A859B85AC85BD853496ED
:1028100080839183A283B3832A893B894C895D8914
:1028200001E0B70189810E94D2221D8240E050E080
:1028300060E089810E943123811111E0812FDF91B5
:10284000CF911F910F91FF90EF9008950F931F93D9
:10285000FC019A01AB0122503109410951098689D5
:102860009789A08DB18D0297A109B1092817390761
:102870004A075B0768F4A281B0E00E941B2402A50E
:1028800013A524A535A5600F711F821F931F03C0D8
:1028900060E070E0CB011F910F910895AF92BF925D
:1028A000CF92DF92EF92FF920F931F93CF93DF931C
:1028B000423051056105710508F4B2C0FC0106897A
:1028C0001789208D318D401751076207730708F073
:1028D000ACC06A017B01EC018081823009F44DC0FB
:1028E000833009F46DC0813009F0A4C05A01B69458
:1028F000A794A40EB51E42A153A164A175A1C50160
:10290000892F99278695480F591F611D711DCF0189
:1029100039DC811193C0F501F170EC0FFD1F02A9A4
:1029200010E0FFEFAF1ABF0A4AA15BA16CA17DA125
:10293000C501892F99278695480F591F611D711D63
:10294000CE0120DC81117EC081E0B822CA0DDB1DE2
:102950006AA970E0762F6627602B712BC0FE09C034
:10296000729562956F7067277F70672780E090E0AF
:1029700074C07F7080E090E070C042A153A164A158
:1029800075A1BB27AF2D9E2D8D2D480F591F6A1F96
:102990007B1FCF01F7DB811159C0B701A601440F9E
:1029A000551F661F771F4E7F5170662777274E5C35
:1029B0005F4FC40FD51F6881798180E090E04DC0E2
:1029C00042A153A164A175A1D701C601689416F86C
:1029D000B695A795979587951694D1F7480F591FE7
:1029E0006A1F7B1FCF01CEDB811134C0B701A60166
:1029F000440F551F661F771F440F551F661F771F13
:102A00004C7F5170662777274E5C5F4FC40FD51FF0
:102A100088819981AA81BB81BC01CD019F701DC0B5
:102A200061E070E080E090E018C061E070E080E07C
:102A300090E013C06FEF7FEFCB010FC06FEF7FEF20
:102A4000CB010BC06FEF7FEFCB0107C06FEF7FEFC4
:102A5000CB0103C06FEF7FEFCB01DF91CF911F91CF
:102A60000F91FF90EF90DF90CF90BF90AF900895BF
:102A7000EF92FF920F931F93CF93DF93EC018B01A3
:102A80007D836C834E815F816885798541305105F6
:102A90006105710509F491C0E881F98186899789FA
:102AA000A08DB18D481759076A077B0708F087C0CA
:102AB000411551056105710539F48081833021F498
:102AC00046A157A160A571A5411551056105710584
:102AD000F1F44A875B876C877D878085918508172D
:102AE000190708F06EC086A197A1A0A5B1A598010D
:102AF000329522952F7023273F702327820F931F33
:102B0000A11DB11D8E879F87A88BB98B40C0E28025
:102B100080E1E89E700111240E151F0500F18881E7
:102B20009981BCDEAB01BC014F3F8FEF58076807AE
:102B3000780709F448C0423051056105710508F471
:102B400044C0E881F98186899789A08DB18D4817A5
:102B500059076A077B07D8F50E191F09DDCF4A8789
:102B60005B876C877D878881998170DE98013295BB
:102B700022952F7023273F702327DC01CB01820F82
:102B8000931FA11DB11D8E879F87A88BB98B2881AC
:102B900039810F701127C801880F991F829592956E
:102BA000907F9827807F982789010E5C1F4F080F20
:102BB000191F1B8B0A8B80E00BC082E009C082E0EA
:102BC00007C082E005C081E003C082E001C082E06E
:102BD000DF91CF911F910F91FF90EF9008954F9249
:102BE0005F926F927F92AF92BF92CF92DF92EF92FD
:102BF000FF920F931F93CF93DF9300D000D000D0AC
:102C0000CDB7DEB7423051056105710508F4F4C057
:102C1000FC01C688D788E08CF18C4C155D056E05EB
:102C20007F0508F0EBC0280139016A017B019E8312
:102C30008D838081823009F475C0833009F498C097
:102C4000813009F0D3C05A01B694A794A40EB51EE2
:102C500042A153A164A175A1C501892F9927869529
:102C6000480F591F611D711DCF018CDA8111BFC042
:102C7000C5019170A701960121703327442755277C
:102C800029833A834B835C83C0FE0CC040E1449EA1
:102C900090011124ED81FE81E80FF91F42A94F70C8
:102CA000242B01C0242DED81FE81E80FF91F22ABFA
:102CB0005FEFA51AB50A81E0ED81FE81848342A110
:102CC00053A164A175A1C501892F99278695480F45
:102CD000591F611D711DCF0155DA811188C0F1E0C6
:102CE000BF2229813A814B815C81232B242B252B08
:102CF00049F0689413F8769467945794479416941F
:102D0000D1F70AC0ED81FE81EA0DFB1D22A9207FCB
:102D1000952D9F70422E492AED81FE81EA0DFB1D03
:102D200042AA65C0ED81FE8142A153A164A175A1B3
:102D3000BB27AF2D9E2D8D2D480F591F6A1F7B1F5E
:102D4000CF0120DA811153C0CC0CDD1CEE1CFF1C1E
:102D5000E894C0F8F1E0DF22EE24FF2422E3C20E63
:102D6000D11CED81FE81EC0DFD1D518240823FC0E2
:102D7000ED81FE8142A153A164A175A1D701C601D5
:102D8000689416F8B695A795979587951694D1F7F8
:102D9000480F591F6A1F7B1FCF01F4D9811127C02B
:102DA000CC0CDD1CEE1CFF1CCC0CDD1CEE1CFF1C37
:102DB000FCEFCF22F1E0DF22EE24FF2422E3C20E5B
:102DC000D11CED81FE81EC0DFD1D00811181228160
:102DD0003381002711272227307F402A512A622A77
:102DE000732A408251826282738201C082E091E044
:102DF000ED81FE81948303C082E001C082E02696CB
:102E00000FB6F894DEBF0FBECDBFDF91CF911F91FB
:102E10000F91FF90EF90DF90CF90BF90AF907F9099
:102E20006F905F904F9008954F925F926F927F9254
:102E30008F929F92AF92BF92CF92DF92EF92FF92CA
:102E40000F931F93CF93DF93EC012A013B014115B0
:102E500051056105710599F48A849B84AC84BD8415
:102E600081149104A104B104F1F08E899F89A88D89
:102E7000B98D88169906AA06BB06D0F41DC00EDDD2
:102E8000623071058105910508F488C0CE88DF881D
:102E9000E88CF98C6C157D058E059F0508F483C0C0
:102EA0005301420109C0812C912C5401839404C028
:102EB000812C912C54018394750164012FEFC21A67
:102EC000D20AE20AF20A8E899F89A88DB98DC816A6
:102ED000D906EA06FB0660F082E088169104A10498
:102EE000B10408F464C0C12CD12C76016894C1F8F7
:102EF000B701A601CE01D2DC6115710581059105EE
:102F000099F06F3F2FEF72078207920709F454C0C0
:102F1000613071058105910509F452C0C814D904C6
:102F2000EA04FB0459F650C00FEF1FEF2FEF3FE00C
:102F3000B701A601CE0153DE81110BC0411451042B
:102F40006104710431F097018601B301A201CE0141
:102F500046DE81111CC0CA86DB86EC86FD868E8526
:102F60009F85A889B9898F3F2FEF9207A207B207E3
:102F700081F10197A109B1098E879F87A88BB98B31
:102F800081E08D834C2D3D2D2E2D9F2D2BC081302A
:102F900029F54FEF3FEF2FEF9FEF24C041E030E0E6
:102FA00020E090E01FC0462F372F282F1BC040E0A5
:102FB00030E020E090E016C0462F372F282F12C0B7
:102FC000462F372F282F0EC040E030E020E090E061
:102FD00009C04C2D3D2D2E2D9F2D04C041E030E029
:102FE00020E090E0642F732F822FDF91CF911F910B
:102FF0000F91FF90EF90DF90CF90BF90AF909F9098
:103000008F907F906F905F904F9008958F929F92D6
:10301000AF92BF92CF92DF92EF92FF920F931F93E6
:10302000CF93DF93DC011496CD91DC911597219617
:1030300009F4F6C01E968D909D90AD90BC9051976E
:1030400081149104A104B10409F4ECC07B018C014A
:103050006E01BFE0CB22DD24C114D10409F0CAC047
:10306000EFEF8E1A9E0AAE0ABE0ADC011E968D9202
:103070009D92AD92BC9251971A964D915D916D9132
:103080007C911D97411551056105710549F4ED913C
:10309000FC9180859185C817D90708F0C5C0AAC0E2
:1030A000DC01ED91FC91228130E021503109CE010B
:1030B000929582958F7089279F70892728233923BD
:1030C000232B09F097C0CF01E9DB4B015C01623093
:1030D00071058105910508F4A9C06F3F7F4F8F4F9F
:1030E0009F4F09F4A5C0D801ED91FC91868997897D
:1030F000A08DB18D88169906AA06BB0608F469C092
:10310000EF2809F497C0D8011A964D915D916D9101
:103110007C911D97CF0188DE4B015C016115710523
:103120008105910509F488C061307105810591051B
:1031300009F484C06F3F7F4F8F4F9F4F09F480C0C9
:10314000D8018D919C910E945B1081117BC0F80188
:103150008081918140E052E060E070E0C2960E9480
:10316000070FD801ED90FC90B501A401C7016EDBFB
:10317000F70166A777A780AB91ABF12CD801ED9151
:10318000FC9111978281F816C0F481E084838D91BF
:103190009C910E945B10811157C0D801ED91FC9168
:1031A00086A597A5A0A9B1A90196A11DB11D86A7C5
:1031B00097A7A0ABB1ABF394E1CF86A597A5A0A943
:1031C000B1A98F199109A109B10986A797A7A0AB49
:1031D000B1ABF80182869386A486B586B501A401B9
:1031E0008081918133DBD8011E966D937D938D9301
:1031F0009C935197F801D583C48380819181CC0C35
:10320000DD1CCC0CDD1CCC0CDD1CCC0CDD1CCC0C7A
:10321000DD1CC296C80ED91ED38AC28A80E015C0B2
:1032200084E013C084E011C084E00FC082E00DC0D0
:1032300081E00BC084E009C087E007C082E005C0E0
:1032400081E003C081E001C081E0DF91CF911F9157
:103250000F91FF90EF90DF90CF90BF90AF909F9035
:103260008F9008951F93CF93DF93EC0160E070E09F
:10327000FFDB81112EC04E855F8568897989888141
:1032800099810E94C210182F81111FC0EA89FB8901
:1032900080818823D9F0838583FD0BC06C897D896B
:1032A0004BE050E0CF010E94110F892B21F481E007
:1032B00003C080E001C080E081110AC060E070E0DE
:1032C000CE01A4DE8823B9F204C003C084E001C0AB
:1032D000812FDF91CF911F9108950F931F93CF936B
:1032E000DF9300D0CDB7DEB78C017A836983E62FF8
:1032F000F72F80818F3211F08C3519F43196FA83D3
:10330000E983D80116961D921D921D921C92199761
:10331000E981FA818081803240F460E070E0C80188
:10332000A7DBF801138A128A2EC0BE016F5F7F4FA0
:10333000C8010E94620F811126C0C80193DFD80125
:103340005496ED91FC9155979385882329F084300C
:10335000D1F492FF15C017C092FD15C0F801628923
:103360007389DB011B968C9184FF0CC08081918155
:103370000E94430FF8016683778380879187D5CFBA
:1033800085E001C085E00F900F90DF91CF911F91F4
:103390000F910895EF92FF920F931F93CF93DF93B6
:1033A000EC017B0160E070E063DB811121C000E093
:1033B00010E04E855F8568897989888199810E94AE
:1033C000C210811115C0EA89FB899081953E11F0E8
:1033D000911106C00F5F1F4F0E151F0519F408C08D
:1033E00000E010E061E070E0CE0110DE882309F318
:1033F000DF91CF911F910F91FF90EF9008950F9360
:103400001F93CF938C0161E070E0C4DFC82F81115E
:1034100029C0D8011E964D915D916D917C91519777
:103420008D919C910E94C210C82F81111BC040E257
:1034300050E060E070E0F801828993890E94070FF4
:10344000D80154966D917C9155974BE050E052967F
:103450008D919C9153970E94F00ED801ED91FC91B3
:1034600081E084838C2FCF911F910F9108958F92CB
:103470009F92AF92BF92CF92DF92EF92FF920F9303
:103480001F93CF93DF93EC016A017B01423051051A
:103490006105710508F44BC08E899F89A88DB98D8F
:1034A000481759076A077B0708F043C010E002C0BD
:1034B000750164018E899F89A88DB98DC816D906BA
:1034C000EA06FB06D8F5B701A601CE01E7D94B0104
:1034D0005C01672B682B692B89F181E088169104C8
:1034E000A104B10441F12FEF82169206A206B206A2
:1034F00021F100E010E09801B701A601CE016FDBD9
:10350000182F81111BC08E859F85A889B9898F3F8F
:103510002FEF9207A207B20759F20196A11DB11D24
:103520008E879F87A88BB98B81E08D83C1CF12E0F6
:1035300005C012E003C012E001C011E0812FDF914D
:10354000CF911F910F91FF90EF90DF90CF90BF90A0
:10355000AF909F908F90089581111AC090E0FC0168
:10356000EE0FFF1FE851FC4F0190F081E02D3097E6
:1035700009F010826115710511F0FB011082880FAE
:10358000991FFC01E851FC4F7183608380E008952E
:103590008BE008954F925F926F927F92AF92BF92AD
:1035A000CF92DF92EF92FF920F931F93CF93DF930F
:1035B000CDB7DEB7A8970FB6F894DEBF0FBECDBF6C
:1035C0007CA36BA3009709F4D9C0042F7C01DC0114
:1035D0001D921C92B42FBF71DB2E4E71BE016F5F26
:1035E0007F4FCE0183960E941F118111CAC0CE0168
:1035F00047969E8B8D8B6BA17CA146976EDE182F14
:10360000AB88BC88811104C0A114B10409F416E090
:10361000802F8C7109F462C0112361F0143021F401
:10362000CE010196ECDE182FED2DE860DE2EAB8882
:10363000BC880BC0D5011B968C91817119F402FDD9
:1036400003C003C017E001C018E0111156C0D3FE3B
:1036500054C00E944201F50166877787808B918B69
:103660001386148E158E168E178EB50189819A8158
:103670000E94430F2B013C0140E050E0BA01C5011C
:103680000E945C0FE981FA8181E084834114510436
:103690006104710491F186A597A5A0A9B1A98DA394
:1036A0009EA3AFA3B8A7B301A201CF01E0DE182FFC
:1036B000811123C089819A81A1E04A1A51086108C9
:1036C0007108FC0142865386648675864DA15EA111
:1036D0006FA178A50E94C210182F0FC011110DC044
:1036E000D5011B968C9184FD05C001FF06C080FDAD
:1036F00003C003C014E001C017E0111112C0D3FED3
:1037000003C0BD2DB062DB2EE981FA8186A597A5A5
:10371000A0A9B1A9F701828F938FA48FB58FB78E1F
:10372000A68E11112DC0D7011496DC92C980DA80C3
:10373000B501C6010E94430FF70166877787808B2A
:10374000918BF501848D958DA68DB78DF7018287BC
:103750009387A487B5871682178210861186168AEA
:10376000178A108E118ED182C082D60116968D9145
:103770009C91179793838283812F03C089E001C0B6
:10378000812FA8960FB6F894DEBF0FBECDBFDF9194
:10379000CF911F910F91FF90EF90DF90CF90BF904E
:1037A000AF907F906F905F904F9008952F923F92CF
:1037B0004F925F926F927F928F929F92AF92BF9241
:1037C000CF92DF92EF92FF920F931F93CF93DF93ED
:1037D000EC015B016A014901F901118210820E942A
:1037E000FA1081117BC18C8188230CF474C181FF94
:1037F00074C18A859B85AC85BD85AC01BD014C0D2E
:103800005D1D611D711D481759076A077B0710F47C
:10381000C12CD12CC114D10409F447C14E815F8160
:1038200068857985DB01CA019170AA27BB27892B9E
:103830008A2B8B2B09F0EFC0E881F981128111509E
:10384000DB01CA01072E79E0B695A7959795879574
:103850007A95D1F7702D1823E1F5452B462B472B90
:1038600099F46E857F85888999896115710581052F
:10387000910581F440E050E0BA01CF01D5DA6E87BE
:103880007F87888B998B06C04A895B896C897D8983
:10389000CF01CADA611571058105910509F405C1E9
:1038A000613071058105910529F48C8180688C83D4
:1038B00082E014C16F3FFFEF7F078F079F0729F456
:1038C0008C8180688C8381E009C16A8B7B8B8C8BB7
:1038D0009D8BE881F98146A557A560A971A98E89BC
:1038E0009F89A88DB98D481759076A077B0739F456
:1038F000CF010E945B10882321F081E003C080E0AB
:1039000001C080E0882329F08C8180688C8381E06D
:10391000E5C04A895B896C897D8928803980C1012D
:103920000E942614611571058105910529F48C8189
:1039300080688C8382E0D2C02B013C01410E511C77
:10394000611C711C7601EF2CFF24E694E114F10454
:1039500009F440C0F1014281242F30E0C701810FFA
:10396000911D2817390718F47901E11AF1080E2D75
:10397000A3019201B501F101818114D6882329F0B8
:103980008C8180688C8381E0A9C0E881F98186A55B
:1039900097A5A0A9B1A984199509A609B709A701F6
:1039A00060E070E084179507A607B70778F4982FB2
:1039B0008827990FB501680F791F40E052E0CF01C9
:1039C000C2960E94F00EE881F9811482FE2CEE244A
:1039D000FF0C53C04E815F81688579858A859B8500
:1039E000AC85BD85481759076A077B0780F0C10180
:1039F0000E945B10882329F08C8180688C8381E091
:103A00006DC0E881F98146A657A660AA71AA4E8AC0
:103A10005F8A688E798E8E819F81A885B985917025
:103A200020E032E07901E81AF90ACE14DF0408F444
:103A300076014E895F89688D798D888199810E9490
:103A4000C210882329F08C8180688C8381E046C075
:103A5000288139814E815F8168857985517066271B
:103A60007727CA01C296A701B501820F931F0E9452
:103A7000F00EE881F98181E08483AE0CBF1C8E8159
:103A80009F81A885B9858E0D9F1DA11DB11D8E83B7
:103A90009F83A887B987F401808191818E0D9F1D36
:103AA00091838083CE18DF08B5CE8E819F81A88553
:103AB000B9854A855B856C857D85481759076A07F6
:103AC0007B0720F48A879B87AC87BD878C818062C7
:103AD0008C8380E003C082E001C087E0DF91CF915A
:103AE0001F910F91FF90EF90DF90CF90BF90AF901C
:103AF0009F908F907F906F905F904F903F902F900E
:103B000008950F931F93CF93DF93EC010E94FA1057
:103B1000811136C09C8195FF33C04A8D5B8D6C8DC1
:103B20007D8D888199810E94C210811129C00E8DDE
:103B30001F8DF8018385806283878A859B85AC858C
:103B4000BD85848F958FA68FB78F4E855F856889D9
:103B50007989C8010E945C0F0E944201F801668BBE
:103B6000778B808F918F138A128A8C818F7D8C83C3
:103B7000E881F98181E08483888199810E94C11361
:103B8000DF91CF911F910F910895CF93DF93EC01B7
:103B9000B8DF811102C019821882DF91CF91089598
:103BA0002F923F924F925F926F927F928F929F924D
:103BB000AF92BF92CF92DF92EF92FF921F93CF937B
:103BC000DF9300D000D000D0CDB7DEB79E838D83C9
:103BD0006A017B010E94FA10182F811192C1AD81F8
:103BE000BE8114968C91149788230CF48BC11A967D
:103BF0004D915D916D917C911D974C155D056E0504
:103C00007F0520F481FD02C06A017B01ED81FE8108
:103C100046805780608471841682178210861186D0
:103C2000C114D104E104F10409F430C120803180D1
:103C3000F1018280912CA12CB12C072E79E0880C07
:103C4000991CAA1CBB1C7A95D1F7702D4114510404
:103C50006104710409F43EC0C701B60161507109E5
:103C600081099109A5019401C4D529833A834B8325
:103C70005C83F1E04F1A510861087108C301B20179
:103C8000A5019401B6D589819A81AB81BC81821747
:103C90009307A407B507F0F088279927DC01881956
:103CA0009909AA09BB09482259226A227B22AD81BF
:103CB000BE8116964D925D926D927C921997C418B2
:103CC000D508E608F70852964D915D916D917C916B
:103CD00055973CC0ED81FE81468557856089718985
:103CE000411551056105710559F540E050E0BA01F3
:103CF000C1019AD8AB01BC01413051056105710584
:103D000051F4AD81BE8114968C91149780681496FD
:103D10008C9382E0FAC04F3FBFEF5B076B077B07D6
:103D200039F4ED81FE8184818068848381E0EDC077
:103D3000AD81BE811E964D935D936D937C9351979B
:103D4000ED81FE81428B538B648B758B4115510540
:103D50006105710509F49EC08C149D04AE04BF0476
:103D600008F05CC0AD81BE8114968C91149781FFE0
:103D70000DC08D919C9158D8AB01BC0141155105E6
:103D80006105710559F47501640148C0AD81BE81BA
:103D90008D919C910E944E14AB01BC014F3FBFEF2F
:103DA0005B076B077B0739F4ED81FE8184818068B6
:103DB000848381E0AAC0423051056105710568F035
:103DC000AD81BE81ED91FC9186899789A08DB18DE1
:103DD000481759076A077B0738F0ED81FE81848117
:103DE0008068848382E091C0AD81BE8152964D93FC
:103DF0005D936D937C935597FD0186819781A08596
:103E0000B185880D991DAA1DBB1D86839783A08748
:103E1000B187C818D908EA08FB089ECFED81FE815A
:103E200086819781A085B1858C0D9D1DAE1DBF1D1E
:103E300086839783A087B187D701C6019170AA278F
:103E4000BB27892B8A2B8B2B49F1808191810E9482
:103E50002614611571058105910551F4AD81BE816E
:103E600014968C911497806814968C9382E04DC0C0
:103E70000B2EB9E0F694E794D794C794BA95D1F78E
:103E8000B02DC60ED71EE81EF91E0BC0C12CD12CBA
:103E9000760107C0C12CD12C760103C0C12CD12CD6
:103EA0007601ED81FE8186819781A085B185AC0187
:103EB000BD01517066277727452B462B472B69F0AC
:103EC00046895789608D718DC416D506E606F706BA
:103ED00021F0C68AD78AE08EF18EED81FE8142857F
:103EE000538564857585481759076A077B0760F411
:103EF00082879387A487B587848180628483812F9A
:103F000004C003C082E001C0812F26960FB6F8944A
:103F1000DEBF0FBECDBFDF91CF911F91FF90EF901D
:103F2000DF90CF90BF90AF909F908F907F906F90D9
:103F30005F904F903F902F90089523B10197E9F73C
:103F40000895FC019F012F5F3F4F8081882324F457
:103F500095B1906295B903C095B19F7D95B995B122
:103F6000906895B995B19F7795B986FF04C095B1D2
:103F7000906295B903C095B19F7D95B995B1906850
:103F800095B995B19F7795B985FF04C095B19062B9
:103F900095B903C095B19F7D95B995B1906895B9D4
:103FA00095B19F7795B984FF04C095B1906295B99A
:103FB00003C095B19F7D95B995B1906895B995B1BC
:103FC0009F7795B983FF04C095B1906295B903C0FE
:103FD00095B19F7D95B995B1906895B995B19F7749
:103FE00095B982FF04C095B1906295B903C095B1AF
:103FF0009F7D95B995B1906895B995B19F7795B921
:1040000081FF04C095B1906295B903C095B19F7DC1
:1040100095B995B1906895B995B19F7795B980FF9D
:1040200004C085B1806285B903C085B18F7D85B933
:1040300085B1806885B985B18F7785B9615071097F
:10404000F90109F07FCF0895FC0185B1806285B93F
:1040500001C0F9011E9902C090E001C091E085B154
:10406000806885B985B18F7785B9990F1E999F5F53
:1040700085B1806885B985B18F7785B9990F1E990B
:104080009F5F85B1806885B985B18F7785B9990FB4
:104090001E999F5F85B1806885B985B18F7785B995
:1040A000990F1E999F5F85B1806885B985B18F771B
:1040B00085B9990F1E999F5F85B1806885B985B1D3
:1040C0008F7785B9990F1E999F5F85B1806885B9F3
:1040D00085B18F7785B9990F1E999F5F25B12068AB
:1040E00025B925B12F7725B99F012F5F3F4F9083C9
:1040F0006150710909F0ADCF08950F931F93CF93CD
:10410000DF931F92CDB7DEB708E813E10115110563
:1041100071F061E070E0CE01019696DF89818F3FFA
:1041200031F084E690E009DF01501109EFCF012B57
:1041300019F081E090E002C080E090E00F90DF9104
:10414000CF911F910F910895CF93DF931F92CDB719
:10415000DEB785B1826085B961E070E0CE0101967D
:1041600073DF0F90DF91CF9108950F931F93CF933B
:10417000DF931F92CDB7DEB785B18D7F85B961E042
:1041800070E0CE01019660DFB8DF8C01892B11F45D
:10419000DBDF02C001E010E0C8010F90DF91CF919A
:1041A0001F910F910895CF92DF92EF92FF920F939C
:1041B0001F93CF93DF9300D0CDB7DEB77C016B01A7
:1041C00008EE13E00115110571F061E070E0CE0119
:1041D00001963ADF89818F3F31F484E690E0ADDECD
:1041E00001501109EFCF89818E3F59F4B601C70103
:1041F0002BDF62E070E0CE01019626DF81E090E0E7
:1042000002C080E090E00F900F90DF91CF911F915E
:104210000F91FF90EF90DF90CF900895EF92FF9273
:104220001F93CF93DF9300D0CDB7DEB77C01162F5D
:1042300064DF009711F1198361E070E0CE0101960F
:1042400080DE1D3FA9F060E072E0C7017ADE62E027
:1042500070E0CE010196F8DE61E070E0CE010196DB
:10426000F3DE89818F71853031F080E090E005C008
:1042700081E090E002C081E090E00F900F90DF912C
:10428000CF911F91FF90EF900895DF92EF92FF92F0
:104290000F931F93CF93DF93CDB7DEB727970FB65A
:1042A000F894DEBF0FBECDBF182F042FF52EE62EDB
:1042B000D72E882344F41F7740E050E0BA0187E30B
:1042C000E4DF8230A0F540DF50DF892B79F1812FC8
:1042D00080648A83DB82EC82FD820E83112311F0DD
:1042E00081E001C085E9183009F487E88F8366E032
:1042F00070E0CE01029625DE1C3029F461E070E00A
:10430000CE010196A1DE1AE061E070E0CE010196D7
:104310009BDE8981882324F4115021F091E003C0B1
:1043200090E001C090E09111EFCF01C08FEF279690
:104330000FB6F894DEBF0FBECDBFDF91CF911F91B6
:104340000F91FF90EF90DF900895811103C080914D
:104350000601089581E00895EF92FF920F931F9355
:10436000CF93DF9300D000D0CDB7DEB78111B8C0B6
:1043700080E197E2E2DD84B1826084B985B1826038
:1043800085B984B1806884B985B18F7785B984B1E6
:10439000806284B91AE0112339F061E070E0CE0147
:1043A000019652DE1150F7CF40E050E0BA0180E0B4
:1043B0006CDF813009F07DC04AEA51E060E070E0D6
:1043C00088E063DF813009F03EC064E070E0CE0138
:1043D00001963ADE8B81813009F06DC08C818A3A7A
:1043E00009F06BC008EE13E00115110571F040E013
:1043F00050E060E070E489EA48DF882331F088EE1D
:1044000093E09BDD01501109EFCF012B49F040E013
:1044100050E0BA018AE339DF811104C081E003C0B2
:1044200080E001C080E0882309F449C064E070E0C6
:10443000CE01019609DE898186FF43C00F2EFCE084
:10444000FF2EF02D43C040E050E0BA0189EA1DDFA5
:10445000823040F40F2EF9EAEF2EF02D6894FF24FD
:10446000F1F804C0EE24E394FF24F39408EE13E083
:104470000115110569F040E050E0BA018E2D05DF0D
:10448000882331F088EE93E058DD01501109F0CF18
:10449000012B49F040E052E060E070E080E1F5DEA1
:1044A000811103C003C081E001C081E081110DC012
:1044B0000DC0F12C0BC0F12C09C0F12C07C0F12C60
:1044C00005C06894FF24F2F801C0F12CF092EA03D1
:1044D00011E0F11010E01093060136DE812F01C0CB
:1044E00083E00F900F900F900F90DF91CF911F916D
:1044F0000F91FF90EF900895CF92DF92EF92FF928D
:104500000F93CF93DF93EB0169017A011EDF80FDEA
:104510003EC08091EA0383FD09C00B2EB9E0CC0CAC
:10452000DD1CEE1CFF1CBA95D1F7B02D0130A1F4B3
:10453000B701A60181E1A9DE811108C060E072E047
:10454000CE0131DE892B21F081E003C080E001C083
:1045500080E0811116C016C0B701A60182E195DE88
:10456000811110C060E072E0CE011DDE892B19F0D0
:10457000DE5F0150B9F740E050E0BA018CE085DE23
:1045800001C000E0E1DD002321F081E003C083E011
:1045900001C080E0DF91CF910F91FF90EF90DF900D
:1045A000CF900895CF92DF92EF92FF920F93CF9327
:1045B000DF93EB0169017A01C8DE80FD47C080917D
:1045C000EA0383FD09C00B2EB9E0CC0CDD1CEE1C08
:1045D000FF1CBA95D1F7B02D013099F4B701A601AF
:1045E00088E153DE811107C06EEFCE0117DE892B03
:1045F00021F081E003C080E001C080E081111EC095
:1046000020C0867031F0402F50E060E070E087E914
:104610003CDEB701A60189E138DE811112C06CEFE2
:10462000CE01FCDD892B19F0DE5F0150C1F76DEF83
:1046300080E090E0F3DD892B19F003C000E001C0B9
:1046400001E082DD002321F081E003C083E001C0AE
:1046500080E0DF91CF910F91FF90EF90DF90CF90AE
:104660000895EF92FF921F93CF93DF93CDB7DEB7FC
:1046700060970FB6F894DEBF0FBECDBF162F7A013C
:1046800064DE80FDA9C0113059F020F0133009F428
:1046900090C09AC06ADD892B09F098C011E099C0DA
:1046A00040E050E0BA0189E0F0DD811109C060E12D
:1046B00070E0CE01019677DD892B21F081E003C007
:1046C00080E001C080E0882309F482C0898190E005
:1046D000082E892F000C881F990B000C881F991F2A
:1046E000019731F58A85298530E0322F2227280F5E
:1046F000311D88858F7390E0A0E0B0E0DC01992740
:104700008827820F931FA11DB11D0196A11DB11D08
:10471000072E7AE0880F991FAA1FBB1F7A95D1F741
:10472000702DF70180839183A283B38310E051C081
:104730008E812B859A85382F3F70822F881F88277E
:10474000881F830F9370990F890F42E0480F898566
:1047500090E0BC01062E672F000C661F770B000C43
:10476000661F771F288530E0C901880F991F880FC1
:10477000991F860F971F2F81237030E0322F222739
:10478000330F330F820F931F0196A0E0B0E0242F68
:1047900030E02950310904C0880F991FAA1FBB1FA0
:1047A0002A95D2F7F70180839183A283B38310E027
:1047B00010C080E890E0A0E0B0E0F7018083918332
:1047C000A283B38310E005C014E003C010E001C071
:1047D00011E0BADC812F01C083E060960FB6F89437
:1047E000DEBF0FBECDBFDF91CF911F91FF90EF9045
:1047F0000895A1E21A2EAA1BBB1BFD010DC0AA1F22
:10480000BB1FEE1FFF1FA217B307E407F50720F039
:10481000A21BB30BE40BF50B661F771F881F991FB4
:104820001A9469F760957095809590959B01AC01FD
:10483000BD01CF01089509D0A59F900DB49F900DA3
:10484000A49F800D911D11240895A29FB001B39FD4
:10485000C001A39F700D811D1124911DB29F700D89
:10486000811D1124911D08950F931F93CF93DF9302
:104870008230910510F482E090E0E091ED03F09138
:10488000EE0320E030E0A0E0B0E0309719F1408185
:1048900051810281138148175907C8F08417950781
:1048A00069F4109731F012960C93129713961C939B
:1048B00027C00093ED031093EE0322C021153105AC
:1048C00019F04217530718F49A01BD01EF01DF01F7
:1048D000F801DBCF21153105F9F0281B390B243005
:1048E000310580F48A819B816115710521F0FB01FE
:1048F0009383828304C09093EE038093ED03FE01C3
:10490000329644C0FE01E20FF31F8193919322502F
:104910003109398328833AC02091EB033091EC03AD
:10492000232B41F420910201309103013093EC03D9
:104930002093EB03209100013091010121153105F5
:1049400041F42DB73EB74091040150910501241B5D
:10495000350BE091EB03F091EC03E217F307A0F4C1
:104960002E1B3F0B2817390778F0AC014E5F5F4FC5
:104970002417350748F04E0F5F1F5093EC03409308
:10498000EB038193919302C0E0E0F0E0CF01DF916F
:10499000CF911F910F910895CF93DF93009709F462
:1049A00081C0FC01329713821282A091ED03B09175
:1049B000EE03109781F420813181820F931F2091A3
:1049C000EB033091EC032817390751F5F093EC0312
:1049D000E093EB0367C0ED0120E030E0CE17DF0786
:1049E00040F44A815B819E0141155105F1F0EA01D5
:1049F000F5CFD383C28340815181840F951FC8179F
:104A0000D90759F488819981840F951F0296918363
:104A100080838A819B81938382832115310529F4C8
:104A2000F093EE03E093ED033DC0E901FB83EA83DD
:104A300049915991C40FD51FEC17FD0761F480818E
:104A40009181840F951F0296E90199838883828161
:104A500093819B838A83E0E0F0E012968D919C9194
:104A60001397009719F0FD01DC01F7CF8D919C9110
:104A700011979D012E5F3F4F820F931F2091EB03F3
:104A80003091EC032817390769F4309729F4109214
:104A9000EE031092ED0302C013821282B093EC0376
:0E4AA000A093EB03DF91CF910895F894FFCF20
:104AAE000000EF03200001696D6167654C2E6A708E
:104ABE006700222A2B2C3A3B3C3D3E3F5B5D7C7FC0
:104ACE0000222A2B2C2E3A3B3C3D3E3F5B5D7C7FE9
:104ADE0000809A90418E418F804545454949498EC7
:104AEE008F9092924F994F555559999A9B9C9D9E96
:104AFE009F41494F55A5A5A6A7A8A9AAABAC21AE23
:104B0E00AFB0B1B2B3B4B5B6B7B8B9BABBBCBDBE2F
:104B1E00BFC0C1C2C3C4C5C6C7C8C9CACBCCCDCE1F
:104B2E00CFD0D1D2D3D4D5D6D7D8D9DADBDCDDDE0F
:104B3E00DFE0E1E2E3E4E5E6E7E8E9EAEBECEDEEFF
:104B4E00EFF0F1F2F3F4F5F6F7F8F9FAFBFCFDFEEF
:024B5E00FF0056
:00000001FF
