S0180000496D616765436170747572655F6370702E73726563B3
S113000045C0000060C000005EC000005CC000008D
S11300105AC0000058C0000056C0000054C0000080
S113002052C0000050C000004EC000004CC0000090
S11300304AC0000048C0000046C0000044C00000A0
S113004042C0000040C000003EC000003CC00000B0
S11300503AC0000038C0000036C0000034C00000C0
S113006032C0000030C000002EC000002CC00000D0
S11300702AC0000028C0000026C0000024C00000E0
S113008022C0000020C000001EC0000011241FBEBA
S1130090CFEFD0E4DEBFCDBF11E0A0E0B1E0E2EFEE
S11300A0F1E000E00BBF02C007900D92A030B10751
S11300B0D9F721E0A0E0B1E001C01D92A030B20761
S11300C0E1F77ED094C09CCF84B1846084B985B1BB
S11300D0846085B984B1886084B985B1886085B944
S11300E084B1806A84B908951092B9008CE0809339
S11300F0B80081B1806C81B982B18F7B82B982B141
S11301008F7782B9089582B1806482B9000082B188
S1130110806882B9000082B18F7B82B9000082B10D
S11301208F7782B90000089582B18F7B82B9000075
S113013082B1806882B9000082B1806482B9000013
S1130140089528E02223A9F0882324F492B190642E
S113015092B903C092B19F7B92B9880F000092B10B
S1130160906892B9000092B19F7792B90000215033
S1130170E9CF82B1806482B982B1806882B900001B
S113018080B1829586958695837091E0892792B196
S11301909F7792B9817008951F93CF93DF93182F9F
S11301A0D62FC42FB0DF88E7CCDF812FCADF8D2F95
S11301B0C8DF8C2FC6DFB8DFDF91CF911F91089580
S11301C08AB181608AB98AB182608AB98BB18E7F23
S11301D08BB98BB18D7F8BB964E080E075DF84DFF0
S11301E040E868E080E3D8DF80E090E00895F89488
S10501F0FFCF3B
S9030000FC
