:1000000045C000005AC0000058C0000056C00000A3
:1000100054C0000052C0000050C000004EC000009C
:100020004CC000004AC0000048C0000046C00000AC
:1000300044C0000042C0000040C000003EC00000BC
:100040003CC000003AC0000038C0000036C00000CC
:1000500034C0000032C0000030C000002EC00000DC
:100060002CC000002AC0000028C0000026C00000EC
:1000700024C0000022C0000020C000001EC00000FC
:100080001CC000001AC0000018C0000011241FBED0
:10009000CFEFD0E4DEBFCDBF11E0A0E0B1E0ECEBEC
:1000A000F9E100E00BBF02C007900D92A030B1074C
:1000B000D9F70E94CB0C0C94DC0CA2CF94B19061C8
:1000C00094B995B1906195B994B1946094B995B192
:1000D000946095B994B1906A94B990E0880F991F93
:1000E000880F991F862B806D8CBD089595B19B7FDD
:1000F00095B98EBD0DB407FEFDCF1EBC0DB407FE35
:10010000FDCF8EB595B1946095B9089595B19B7F5B
:1001100095B98EBD0DB407FEFDCF6EBD0DB407FEC3
:10012000FDCF85B1846085B9089561E084E8EEDF94
:1001300061E084E8EBDF60E184E8E8DF60E284E826
:10014000E5DF2FE38DE093E0215080409040E1F720
:1001500000C0000062E084E8D9DF81E4C7DF83FFEC
:10016000FCCF83EC99E00197F1F700C000000895FF
:100170001092B9008CE08093B800089594EA9093AF
:10018000BC009091BC009923E4F79091B900987F4E
:10019000983011F0903191F48093BB0084E8809303
:1001A000BC008091BC008823E4F78091B900887F6F
:1001B000883131F0803431F480E0089581E0089591
:1001C00080E0089581E008958093BB0084E88093E7
:1001D000BC008091BC008823E4F78091B900887F3F
:1001E000883211F081E0089580E008951F93CF9345
:1001F000DF93182FD62FC42F88E7C0DF812FE4DFCD
:100200008D2FE2DF8C2FE0DFDF91CF911F910895DA
:10021000CF93DF93D82FC62F69DF682F6C2B8D2FDC
:10022000806874DFDF91CF91089543E963E081E353
:10023000DDDF42E868E080E3D9DF4FE767E180E394
:10024000D5DF4CEF68E180E3D1DF42EC60E188E389
:10025000CDDF40EF65E186E3C9DF40E060E080E3A9
:10026000C5DF40E061E080E3C1DF4CE562E080E3B0
:10027000BDDF40E063E080E3B9DF4FEF64E080E39F
:10028000B5DF4FEF65E080E3B1DF43E466E080E394
:10029000ADDF47E367E080E3A9DF48E061E180E3A9
:1002A000A5DF40E160E180E3A1DF42E26CE086E4AB
:1002B0009DDF44E065E188E399DF40EA6CE087E395
:1002C00095DF4CEF62E086E391DF4FEF62E186E37A
:1002D0008DDF40EC64E386E389DF40E063E186E3A1
:1002E00085DF4CE765E086E381DF49E061E286E394
:1002F0007DDF40E662E286E379DF40E464E086E3A6
:1003000075DF47EA63E086E371DF47E263E086E397
:100310006DDF41E260E080E469DF42E26DE180E4AC
:1003200065DF44E560E086E361DF44E065E086E3A5
:100330005DDF4FE366E086E359DF40E861E08CE390
:1003400055DF4FE460E080E551DF44E060E280E5A6
:100350004DDF49E761E881E549DF40E062E881E59A
:1003600045DF42E265E881E541DF41E067E981E59B
:100370003DDF4FEF61E080E539DF4AE060E085E591
:1003800035DF40E064E085E531DF4FE765E085E596
:100390002DDF48E060E880E529DF48E16EE080E39A
:1003A00025DF40E060E186E421DF45E06DE187E4A0
:1003B0001DDF46E068E087E419DF42E068E088E39B
:1003C00015DF40E869E088E311DF41E06AE088E397
:1003D0000DDF40EE6BE088E309DF47E06EE088E385
:1003E00005DF40ED6FE088E301DF40E06FE180E58D
:1003F000FDDE4FE460E080E5F9DE40E360E083E4A9
:10040000F5DE47E063E085E3F1DE43E761E085E3A5
:10041000EDDE40E862E085E3E9DE40E06BE085E3A5
:10042000E5DE47E063E085E3E1DE41E164E288E3A5
:10043000DDDE4EE161E085E3D9DE40E862E085E3A0
:10044000D5DE4FE76BE085E3D1DE4CE06CE088E37E
:10045000CDDE40E86DE088E3C9DE43E06EE088E38E
:10046000C5DE48EE6FE088E3C1DE44E06DE08AE37C
:10047000BDDE43E06EE08AE3B9DE41EC68E188E38B
:10048000B5DE4BED65E087E3B1DE41E86AE087E386
:10049000ADDE40E861E088E3A9DE47E861E286E39B
:1004A000A5DE40E561E088E3A1DE48E063E088E3A3
:1004B0009DDE48E067E288E399DE40E460E188E39E
:1004C00095DE45E064E088E391DE40E065E088E3A6
:1004D0008DDE45E062E886E589DE40E063E886E59A
:1004E00085DE43E066E088E381DE40EC67E088E398
:1004F0007DDE43E066E886E579DE4CEB67E886E57D
:1005000075DE48E760E08AE371DE45E06AE18AE390
:100510006DDE40E363E18AE369DE40E068E18AE39F
:1005200065DE4CE769E18AE361DE42E168E08AE387
:100530005DDE40EC69E08AE359DE4FE06AE08AE381
:1005400055DE40EA6BE08AE351DE47E06CE085E38C
:100550004DDE40ED6DE085E349DE40E060E085E39F
:1005600045DE40E061E085E341DE40E062E085E3B6
:100570003DDE40E06AE085E339DE40E06BE085E3A4
:1005800035DE40E063E085E331DE42E06AE882E5A3
:100590002DDE44E06BE882E529DE48E06CE882E588
:1005A00025DE48E06DE882E521DE48E06EE882E580
:1005B0001DDE40E16FE882E519DE40E160E982E599
:1005C00015DE40E062E982E511DE42E063E982E5A2
:1005D0000DDE40E064E982E509DE42E065E982E59E
:1005E00005DE40E066E982E501DE42E067E982E59A
:1005F000FDDD40E068E982E5F9DD42E069E982E598
:10060000F5DD40E06AE982E5F1DD42E06BE982E593
:10061000EDDD40E06CE982E5E9DD42E06DE982E58F
:10062000E5DD40E06EE982E5E1DD42E06FE982E58B
:10063000DDDD4BE060E380E3D9DD40E062E08AE3AA
:10064000D5DD4DE763E08AE3D1DD40E064E08AE395
:10065000CDDD40E064E18AE3C9DD4DE765E18AE391
:10066000C5DD40E066E18AE3C1DD48E760E08AE39A
:10067000BDDD49E068E08AE3B9DD40E669E08AE390
:10068000B5DD47E06AE08AE3B1DD40ED6BE08AE387
:10069000ADDD48E06DE08AE3A9DD46E06EE08AE387
:1006A000A5DD40E763E981E5A1DD44E06BE988E58C
:1006B0009DDD45EC6AE988E599DD40E26EE180E484
:1006C00095DD42E461E080E491DD44E06CE180E4AA
:1006D0008DDD41E06AE882E589DD44E06BE882E592
:1006E00085DD48E06CE882E581DD40E16DE882E58A
:1006F0007DDD40E26EE882E579DD48E26FE882E583
:1007000075DD40E360E982E571DD40E062E982E5A4
:100710006DDD41E063E982E569DD40E064E982E5A1
:1007200065DD44E065E982E561DD40E066E982E59A
:100730005DDD48E067E982E559DD40E068E982E592
:1007400055DD40E169E982E551DD40E06AE982E595
:100750004DDD40E26BE982E549DD40E06CE982E590
:1007600045DD48E26DE982E541DD40E06EE982E584
:100770003DDD40E36FE982E539DD40E062E882E596
:1007800035DD40E060E083E531DD40E261E083E5B6
:100790002DDD40E062E083E529DD4CE763E083E5A1
:1007A00025DD40E06CE083E521DD4CE06DE083E594
:1007B0001DDD40E26EE083E519DD40E86FE083E592
:1007C00015DD40E260E183E511DD40E861E183E5AC
:1007D0000DDD40E268E083E509DD40E469E083E5A2
:1007E00005DD40E064E083E501DD40E365E083E5AD
:1007F000FDDC40E066E083E5F9DC40E867E083E5A6
:10080000F5DC48E064E183E5F1DC40E265E183E5A5
:10081000EDDC40E369E183E5E9DC40E166E183E5A5
:10082000E5DC40E067E183E5E1DC42E068E183E5A7
:10083000DDDC4FE362E084E5D9DC40E063E084E5A1
:10084000D5DC40E066E084E3D1DC4FEF60E881E591
:10085000CDDC42E561E881E5C9DC41E162E881E5A2
:10086000C5DC44E163E881E5C1DC45E264E881E59B
:10087000BDDC44E265E881E5B9DC46E066E881E597
:10088000B5DC48E067E881E5B1DC48E068E881E58F
:10089000ADDC4CE769E881E5A9DC40E66AE881E582
:1008A000A5DC42EB6BE881E5A1DC42EB6CE881E57D
:1008B0009DDC44E46DE881E599DC4DE36EE881E57B
:1008C00095DC48E56FE881E591DC46E460E981E587
:1008D0008DDC48EF61E981E589DC44E062E981E58E
:1008E00085DC40E763E981E581DC40EF64E981E58F
:1008F0007DDC40EF65E981E579DC43E066E981E58F
:1009000075DC41E067E981E571DC44E068E981E597
:100910006DDC42E169E981E569DC44E06AE981E591
:1009200065DC40E06BE981E561DC46E06CE981E58E
:100930005DDC42E86DE981E559DC40E06EE981E586
:1009400055DC40E865E280E551DC40E463E885E59C
:100950004DDC40E464E885E549DC42E060E885E59B
:1009600045DC4FEC60E080E541DC40E160E187E39D
:100970003DDC41E562E386E339DC40E162E087E3A8
:1009800035DC42EB63E087E331DC48E164E087E398
:100990002DDC40E46BE087E329DC43E06DE087E396
:1009A00025DC41E061E386E321DC42E562E386E3A6
:1009B0001DDC44E266E086E319DC46E960E286E39A
:1009C00015DC47E065E887E511DC40E363E18AE395
:1009D0000DDC42E560E086E309DC48E464E086E3A0
:1009E00005DC4BE166E086E301DC4BE06DE087E38C
:1009F000FDDB40EC6FE087E3F9DB41E069E087E392
:100A0000F5DB40E063E288E3F1DB40E067E080E5AE
:100A1000EDDB40E069E080E5E9DB40E061E180E5B5
:100A2000E5DB40E063E180E5E1DB40E06EE981E5A4
:100A3000DDDB40E066E880E5D9DB40E067E880E5A3
:100A4000D5DB40E068E880E5D1DB40E069E880E59F
:100A5000CDDB40E06BE280E3C9DB41E068E088E3A6
:100A6000C5DB40E469E088E3C1DB40E06AE088E39D
:100A7000BDDB40EF6BE088E3B9DB48E760E08AE389
:100A8000B5DB4FEF61E080E5B1DB40E563E885E58C
:100A9000ADDB40E564E885E5A9DB42E060E885E59B
:100AA000A5DB40E861E08CE3A1DB44E060E08CE39F
:100AB0009DDB48E460E088E599DB41E361E088E59F
:100AC00095DB41E262E088E591DB4BE163E088E59C
:100AD0008DDB4AE164E088E589DB4EE165E088E58D
:100AE00085DB49E266E088E581DB48E367E088E58D
:100AF0007DDB46E268E088E579DB47E169E088E58F
:100B000075DB41E16AE088E571DB4EE06BE088E58A
:100B10006DDB4DE06CE088E569DB4EE06DE088E57B
:100B200065DB43E16EE088E561DB4AE16FE088E583
:100B30005DDB45E160E188E559DB4DE061E188E599
:100B400055DB48E062E188E551DB45E063E188E59B
:100B50004DDB44E064E188E549DB45E065E188E59B
:100B600045DB49E066E188E541DB4DE067E188E58A
:100B70003DDB41E168E188E539DB4AE069E188E590
:100B800035DB44E06AE188E531DB40E06BE188E594
:100B90002DDB40E06CE188E529DB41E06DE188E593
:100BA00025DB46E06EE188E521DB49E06FE188E581
:100BB0001DDB42E160E288E519DB4BE061E288E59C
:100BC00015DB44E062E288E511DB40E063E288E5A2
:100BD0000DDB40E064E288E509DB41E065E288E5A1
:100BE00005DB46E066E288E501DB4AE067E288E58E
:100BF000FDDA47E168E288E5F9DA4FE069E288E585
:100C0000F5DA49E06AE288E5F1DA46E06BE288E588
:100C1000EDDA45E06CE288E5E9DA46E06DE288E588
:100C2000E5DA4AE06EE288E5E1DA4EE06FE288E577
:100C3000DDDA48E260E388E5D9DA4AE161E388E594
:100C4000D5DA41E162E388E5D1DA4EE063E388E595
:100C5000CDDA4EE064E388E5C9DA4FE065E388E584
:100C6000C5DA45E166E388E5C1DA4DE167E388E589
:100C7000BDDA4EE668E388E5B9DA49E369E388E579
:100C8000B5DA47E26AE388E5B1DA4FE16BE388E57C
:100C9000ADDA4EE16CE388E5A9DA43E26DE388E57D
:100CA000A5DA4FE26EE388E5A1DA41E46FE388E577
:100CB0009DDA4EE060E488E599DA4CE061E488E58D
:100CC00095DA4DE062E488E591DA4CE063E488E58A
:100CD0008DDA4CE064E488E589DA4CE065E488E587
:100CE00085DA4CE066E488E581DA4CE067E488E583
:100CF0007DDA4DE068E488E579DA4EE069E488E57C
:100D000075DA4EE06AE488E571DA4AE06BE488E57A
:100D10006DDA4EE06CE488E569DA4EE06DE488E572
:100D200065DA40E16EE488E561DA40E16FE488E588
:100D30005DDA41E160E588E559DA4AE061E588E598
:100D400055DA4FE062E588E551DA4EE063E588E583
:100D50004DDA40E164E588E549DA40E165E588E59A
:100D600045DA40E166E588E541DA4AE067E588E58D
:100D70003DDA4EE068E588E539DA4EE069E588E578
:100D800035DA4FE06AE588E531DA4FE06BE588E572
:100D90002DDA4FE06CE588E529DA4AE06DE588E573
:100DA00025DA49E06EE588E521DA4DE06FE588E572
:100DB0001DDA4CE060E688E519DA4BE061E688E58B
:100DC00015DA4DE062E688E511DA47E063E688E58A
:100DD0000DDA47E164E688E509DA44E165E688E58D
:100DE00005DA48E166E688E501DA48E167E688E584
:100DF000FDD946E168E688E5F9D942E169E688E58A
:100E0000F5D94BE16AE688E5F1D94AE16BE688E578
:100E1000EDD946E16CE688E5E9D946E16DE688E57D
:100E2000E5D948E16EE688E5E1D94FE16FE688E56E
:100E3000DDD94CE160E788E5D9D946E161E788E58D
:100E4000D5D940E162E788E5D1D94FE063E788E58D
:100E5000CDD943E164E788E5C9D94CE165E788E588
:100E6000C5D94EE166E788E5C1D947E167E788E57E
:100E7000BDD941E168E788E5B9D941E169E788E58D
:100E8000B5D944E16AE788E5B1D94EE16BE788E579
:100E9000ADD94CE16CE788E5A9D94CE16DE788E56F
:100EA000A5D94AE16EE788E5A1D94AE16FE788E56F
:100EB0009DD94BE160E888E599D94FE161E888E583
:100EC00095D944E162E888E591D94AE163E888E58B
:100ED0008DD94DE164E888E589D94EE165E888E57A
:100EE00085D94AE166E888E581D94AE167E888E57D
:100EF0007DD94FEF60E881E579D942E561E881E588
:100F000075D941E162E881E571D944E163E881E5A1
:100F10006DD945E264E881E569D944E265E881E597
:100F200065D944E166E881E561D944E167E881E596
:100F30005DD944E168E881E559D949E669E881E588
:100F400055D940E66AE881E551D942EA6BE881E586
:100F50004DD94CE96CE881E549D946E36DE881E576
:100F600045D944E36EE881E541D944E56FE881E580
:100F70003DD94CE460E981E539D948EF61E981E583
:100F800035D944E062E981E531D940E763E981E59B
:100F90002DD940EF64E981E529D940EF65E981E584
:100FA00025D943E066E981E521D941E067E981E59A
:100FB0001DD945E068E981E519D94FE269E981E584
:100FC00015D944E06AE981E511D940E06BE981E592
:100FD0000DD946E06CE981E509D940EA6DE981E582
:100FE00005D940EA6EE981E501D940E06AE882E589
:100FF000FDD841E06BE882E5F9D844E06CE882E591
:10100000F5D848E06DE882E5F1D840E16EE882E588
:10101000EDD840E26FE882E5E9D840E360E982E597
:10102000E5D840E062E982E5E1D840E063E982E5A5
:10103000DDD840E064E982E5D9D841E065E982E5A0
:10104000D5D840E066E982E5D1D844E067E982E599
:10105000CDD840E068E982E5C9D848E069E982E591
:10106000C5D840E06AE982E5C1D840E16BE982E594
:10107000BDD840E06CE982E5B9D840E26DE982E58F
:10108000B5D840E06EE982E5B1D840E36FE982E58A
:10109000ADD840E062E882E5A9D840E060E083E5B1
:1010A000A5D840E261E083E5A1D840E062E083E5B5
:1010B0009DD84CE763E083E599D840E06CE083E598
:1010C00095D840E16DE083E591D840E26EE083E59C
:1010D0008DD840E86FE083E589D840E260E183E5A0
:1010E00085D840E861E183E581D840E268E083E5A6
:1010F0007DD840E469E083E579D840E064E083E5A9
:1011000075D840E365E083E571D840E066E083E5AB
:101110006DD840E867E083E569D848E064E183E59D
:1011200065D840E265E183E561D840E369E183E5A4
:101130005DD840E166E183E559D840E067E183E5A9
:1011400055D842E068E183E551D841E060E883E5A5
:101150004DD840E061E883E549D840E062E883E5A6
:1011600045D84FE163E883E541D840E064E883E592
:101170003DD846E065E883E539D840E066E883E598
:1011800035D840E067E883E531D840E068E883E59A
:101190002DD841EE69E883E529D840E06AE883E587
:1011A00025D84BE26BE883E521D840E06CE883E585
:1011B0001DD840E06DE883E519D840E06EE883E58E
:1011C00015D840E16FE883E511D840E060E983E598
:1011D0000DD843EB61E983E509D840E062E983E596
:1011E00005D846EA63E983E501D848E064E983E588
:1011F0000E94F6004CE060E884E50E94F60048E1B9
:1012000061E884E50E94F6004FE262E884E50E940E
:10121000F60045E563E884E50E94F60044E664E8EC
:1012200084E50E94F60041E765E884E50E94F60047
:101230004DE766E884E50E94F60047E867E884E544
:101240000E94F60041E968E884E50E94F6004AE958
:1012500069E884E50E94F6004AEA6AE884E50E94AB
:10126000F60048EB6BE884E50E94F6004DEC6CE874
:1012700084E50E94F6004DED6DE884E50E94F600DD
:101280004AEE6EE884E50E94F6004DE16FE884E5E1
:101290000E94F60045E060E984E50E94F60040E027
:1012A00061E984E50E94F60044E062E984E50E9479
:1012B000F60040E263E984E50E94F60043E064E959
:1012C00084E50E94F60040E665E984E50E94F600A8
:1012D00042E066E984E50E94F60048EB67E984E5B0
:1012E0000E94F60042E068E984E50E94F60046E8C4
:1012F00069E984E50E94F60042E06AE984E50E941B
:10130000F6004BE56BE984E50E94F60042E06CE9EB
:1013100084E50E94F6004BE36DE984E50E94F60047
:1013200042E06EE984E50E94F6004CE16FE984E555
:101330000E94F60042E060EA84E50E94F60044E084
:1013400061EA84E50E94F60041E062EA84E50E94D9
:10135000F6004DEE63EA84E50E94F60041E064EA9F
:1013600084E50E94F60045EC65EA84E50E94F600FB
:1013700041E066EA84E50E94F60045EA67EA84E512
:101380000E94F60041E068EA84E50E94F6004CE61F
:1013900069EA84E50E94F60041E06AEA84E50E9479
:1013A000F60041E46BEA84E50E94F60041E06CEA55
:1013B00084E50E94F60040E26DEA84E50E94F600B2
:1013C00040E06EEA84E50E94F60046E16FEA84E5BB
:1013D0000E94F60041E060EB84E50E94F60040E2E6
:1013E00061EB84E50E94F60040E062EB84E50E9438
:1013F000F60040E163EB84E50E94F60040E064EB18
:1014000084E50E94F60040EF65EB84E50E94F6005B
:1014100040E066EB84E50E94F6004FED67EB84E563
:101420000E94F6004FE362E084E50E94F60040E08F
:1014300063E084E50E94F60040E160E085E50E94FB
:10144000F60040E062E085E50E94F60046E063E0D9
:1014500085E50E94F60040E064E085E50E94F60024
:101460004FE765E085E50E94F60040E865E280E52B
:101470000E94F60040E36FE08AE30E94F60048E233
:1014800060E18AE30E94F60040E36BE18AE30E9498
:10149000F60048E26EE18AE30E94F60041E661E16F
:1014A0008AE30E94F60040E16FE18AE30E94F600C1
:1014B0004DEF68E886E50E94F6004FED69E886E5A5
:1014C0000E94F6004EEF6AE886E50E94F6004FEEB5
:1014D0006BE886E50E94F6004EEF6CE886E50E9418
:1014E000F6004FEE6DE886E50E94F6004AEA6EE8E7
:1014F00086E50E94F6004AEA6FE886E50E94F6005B
:101500004FEF6FEF8FEF0C94F600089547E063E024
:1015100085E30E94F60040E060E080E30E94F60070
:1015200040E061E080E30E94F60040E062E080E39A
:101530000E94F60040E063E080E30E94F6004FEF77
:1015400065E080E30E94F6004FEF66E080E30E94D2
:10155000F6004FE367E080E30E94F60047E06CE0AE
:1015600085E30E94F60040ED6DE085E30E94F60001
:1015700044EE62E086E30E94F6004CEA62E186E314
:101580000E94F60044E463E186E30E94F60047E22D
:1015900061E286E30E94F60048E062E286E30E9490
:1015A000F60042E263E286E30E94F60040E664E071
:1015B00086E30E94F6004AED65E087E30E94F600AC
:1015C00040E86AE087E30E94F6004AE861E088E3C9
:1015D0000E94F6004AE063E088E30E94F6004AE0D9
:1015E00064E088E30E94F60040E265E088E30E9440
:1015F000F60047E066E088E30E94F60048E967E00D
:1016000088E30E94F6004AE068E088E30E94F60062
:1016100040E269E088E30E94F60047E06AE088E380
:101620000E94F60048E96BE088E30E94F6004CE077
:101630006CE088E30E94F60040E86DE088E30E94D9
:10164000F60047E06EE088E30E94F60040ED6FE0B0
:1016500088E30E94F60042EC60E188E30E94F60015
:1016600044E465E188E30E94F60048EC68E188E321
:101670000E94F60041E064E288E30E94F6004AE03E
:1016800067E288E30E94F60048E760E08AE30E9490
:10169000F60040E16DE08AE30E94F6004DE06EE066
:1016A0008AE30E94F60042E360E18AE30E94F600CA
:1016B0004CE36BE18AE30E94F60042E36EE18AE3C9
:1016C0000E94F60040E861E18AE30E94F60040E2F1
:1016D0006FE18AE30E94F60048E760E08AE30E9437
:1016E000F60045E36BE086E40E94F60040E06DE121
:1016F00087E40E94F60043E063E187E40E94F6007D
:1017000040E56CE187E40E94F6004AE062E886E585
:101710000E94F60040E263E886E50E94F60047E09A
:1017200066E886E50E94F60048E967E886E50E94DB
:10173000F6004FE461E080E50E94F60040E06BE9CE
:1017400088E50E94F60040EC6AE988E50E94F60010
:1017500044E067E084E40E94F60040E06BE988E53D
:101760000E94F60040EC6AE988E50E94F6004CE031
:1017700062E080E30E94F60040E062E080E30E94C5
:10178000F60040E063E085E30E94F60040E160E19E
:1017900080E30E94F60048E061E180E30E94F600E9
:1017A0004FEF60E080E50E94F6004FEF6FEF8FEFA4
:1017B0000C94F600089541E060E088E30E94F60092
:1017C00048EA61E088E30E94F60040E062E088E3D6
:1017D0000E94F6004AE063E088E30E94F6004AE0D7
:1017E00064E088E30E94F60040E265E088E30E943E
:1017F000F60047E066E088E30E94F60048E967E00B
:1018000088E30E94F60041E068E088E30E94F60069
:1018100040E469E088E30E94F60040E06AE088E383
:101820000E94F60040EF6BE088E30E94F6004CE077
:101830006CE088E30E94F60040E86DE088E30E94D7
:10184000F60047E06EE088E30E94F60040ED6FE0AE
:1018500088E30E94F6004FE761E080E50E94F60011
:1018600040E060E886E50E94F60040E061E886E539
:101870000E94F6004AE062E886E50E94F60040E237
:1018800063E886E50E94F60040E064E886E50E9491
:10189000F60040E065E886E50E94F60047E066E86D
:1018A00086E50E94F60048E967E886E50E94F600B2
:1018B0004FEF6FEF8FEF0C94F600089560E887E824
:1018C0000E94860060E087E80E94860040E850E0C1
:1018D00068E070E080E390E00E94F6000E9415014D
:1018E00015DE69DF87EA91E60197F1F700C0000095
:1018F00048EA50E068E170E088E390E00E94F6007A
:1019000040E150E061E270E086E390E00E94F60082
:1019100040EB50E061E070E088E390E00E94F60068
:1019200048E050E067E070E084E490E00E94F60058
:1019300040E050E068E870E088E590E00E94F60042
:101940004FEF50E060E070E080E590E00E94F6002C
:1019500062E070E083E090E00E94080160E081E8CE
:101960000C9486000895CF9320E0C0E008C08DE37A
:101970000E94760095E09A95F1F72C2FC82F91E000
:10198000C93D09F490E081E02F3F09F480E0892B04
:1019900071F7CF91089564E080E00E945E000E949C
:1019A000B8008CDF0E949500DEDF61E084E80E94D1
:0C19B000860080E090E00895F894FFCFDE
:00000001FF
