:1000000019C033C032C031C030C02FC02EC02DC087
:100010002CC02BC02AC029C028C027C026C025C09C
:1000200024C02AC022C021C020C01FC01EC01DC0C5
:100030001CC01BC011241FBECFEFD4E0DEBFCDBF5C
:1000400011E0A0E0B1E0ECE6F1E002C005900D9215
:10005000AC30B107D9F721E0ACE0B1E001C01D92AE
:10006000A139B207E1F702D07FC0CACF43D078945C
:1000700080E091E06BD0FFCF1F920F920FB60F92EE
:1000800011242F933F938F939F93EF93FF9380912E
:100090000E0190E001968F73992720910D0130E0B9
:1000A0008217930739F080930E012EB5FC01EF5EA5
:1000B000FE4F20839091100180910F01981771F0ED
:1000C00080910F0190E001968F73992780930F0123
:1000D000FC01EF5AFE4F80818EBD01C01EBCFF9116
:1000E000EF919F918F913F912F910F900FBE0F90A5
:1000F0001F901895249A80EC8CBD8DB58EB51EBCD2
:1001000010920C0108952091100130E02F5F3F4FB5
:100110002F7333274091100190910F01491309C0AB
:1001200090910C01911105C08EBD81E080930C016E
:10013000089540910F0150E02417350731F0F9017F
:10014000EF5AFE4F8083209310010895CF93DF93E1
:10015000EC018881882329F02196D5DF89918111CE
:0C016000FCCFDF91CF910895F894FFCF01
:0C016C00574F524C442048454C4C4F006B
:00000001FF
